{
  "contractName": "Dota",
  "abi": [
    {
      "inputs": [
        {
          "internalType": "address",
          "name": "_VRFCoordinator",
          "type": "address"
        },
        {
          "internalType": "address",
          "name": "_LinkToken",
          "type": "address"
        },
        {
          "internalType": "bytes32",
          "name": "_keyHash",
          "type": "bytes32"
        }
      ],
      "stateMutability": "nonpayable",
      "type": "constructor"
    },
    {
      "anonymous": false,
      "inputs": [
        {
          "indexed": true,
          "internalType": "address",
          "name": "owner",
          "type": "address"
        },
        {
          "indexed": true,
          "internalType": "address",
          "name": "approved",
          "type": "address"
        },
        {
          "indexed": true,
          "internalType": "uint256",
          "name": "tokenId",
          "type": "uint256"
        }
      ],
      "name": "Approval",
      "type": "event"
    },
    {
      "anonymous": false,
      "inputs": [
        {
          "indexed": true,
          "internalType": "address",
          "name": "owner",
          "type": "address"
        },
        {
          "indexed": true,
          "internalType": "address",
          "name": "operator",
          "type": "address"
        },
        {
          "indexed": false,
          "internalType": "bool",
          "name": "approved",
          "type": "bool"
        }
      ],
      "name": "ApprovalForAll",
      "type": "event"
    },
    {
      "anonymous": false,
      "inputs": [
        {
          "indexed": false,
          "internalType": "address",
          "name": "_owner",
          "type": "address"
        },
        {
          "indexed": false,
          "internalType": "uint8",
          "name": "_code",
          "type": "uint8"
        },
        {
          "indexed": false,
          "internalType": "uint16",
          "name": "_strength",
          "type": "uint16"
        },
        {
          "indexed": false,
          "internalType": "uint16",
          "name": "_agility",
          "type": "uint16"
        },
        {
          "indexed": false,
          "internalType": "uint16",
          "name": "_intelligence",
          "type": "uint16"
        },
        {
          "indexed": false,
          "internalType": "uint16",
          "name": "_damage",
          "type": "uint16"
        }
      ],
      "name": "HeroCreated",
      "type": "event"
    },
    {
      "anonymous": false,
      "inputs": [
        {
          "indexed": false,
          "internalType": "address",
          "name": "_owner",
          "type": "address"
        },
        {
          "indexed": false,
          "internalType": "uint8",
          "name": "_code",
          "type": "uint8"
        }
      ],
      "name": "ItemCreated",
      "type": "event"
    },
    {
      "anonymous": false,
      "inputs": [
        {
          "indexed": true,
          "internalType": "address",
          "name": "from",
          "type": "address"
        },
        {
          "indexed": true,
          "internalType": "address",
          "name": "to",
          "type": "address"
        },
        {
          "indexed": true,
          "internalType": "uint256",
          "name": "tokenId",
          "type": "uint256"
        }
      ],
      "name": "Transfer",
      "type": "event"
    },
    {
      "anonymous": false,
      "inputs": [
        {
          "indexed": false,
          "internalType": "uint256",
          "name": "_tokenId",
          "type": "uint256"
        },
        {
          "indexed": false,
          "internalType": "uint256",
          "name": "_heroId",
          "type": "uint256"
        },
        {
          "indexed": false,
          "internalType": "uint8",
          "name": "_level",
          "type": "uint8"
        }
      ],
      "name": "heroLeveledUp",
      "type": "event"
    },
    {
      "inputs": [
        {
          "internalType": "address",
          "name": "to",
          "type": "address"
        },
        {
          "internalType": "uint256",
          "name": "tokenId",
          "type": "uint256"
        }
      ],
      "name": "approve",
      "outputs": [],
      "stateMutability": "nonpayable",
      "type": "function"
    },
    {
      "inputs": [
        {
          "internalType": "address",
          "name": "owner",
          "type": "address"
        }
      ],
      "name": "balanceOf",
      "outputs": [
        {
          "internalType": "uint256",
          "name": "",
          "type": "uint256"
        }
      ],
      "stateMutability": "view",
      "type": "function",
      "constant": true
    },
    {
      "inputs": [],
      "name": "baseURI",
      "outputs": [
        {
          "internalType": "string",
          "name": "",
          "type": "string"
        }
      ],
      "stateMutability": "view",
      "type": "function",
      "constant": true
    },
    {
      "inputs": [
        {
          "internalType": "uint256",
          "name": "tokenId",
          "type": "uint256"
        }
      ],
      "name": "getApproved",
      "outputs": [
        {
          "internalType": "address",
          "name": "",
          "type": "address"
        }
      ],
      "stateMutability": "view",
      "type": "function",
      "constant": true
    },
    {
      "inputs": [
        {
          "internalType": "address",
          "name": "owner",
          "type": "address"
        },
        {
          "internalType": "address",
          "name": "operator",
          "type": "address"
        }
      ],
      "name": "isApprovedForAll",
      "outputs": [
        {
          "internalType": "bool",
          "name": "",
          "type": "bool"
        }
      ],
      "stateMutability": "view",
      "type": "function",
      "constant": true
    },
    {
      "inputs": [],
      "name": "name",
      "outputs": [
        {
          "internalType": "string",
          "name": "",
          "type": "string"
        }
      ],
      "stateMutability": "view",
      "type": "function",
      "constant": true
    },
    {
      "inputs": [
        {
          "internalType": "uint256",
          "name": "tokenId",
          "type": "uint256"
        }
      ],
      "name": "ownerOf",
      "outputs": [
        {
          "internalType": "address",
          "name": "",
          "type": "address"
        }
      ],
      "stateMutability": "view",
      "type": "function",
      "constant": true
    },
    {
      "inputs": [
        {
          "internalType": "bytes32",
          "name": "requestId",
          "type": "bytes32"
        },
        {
          "internalType": "uint256",
          "name": "randomness",
          "type": "uint256"
        }
      ],
      "name": "rawFulfillRandomness",
      "outputs": [],
      "stateMutability": "nonpayable",
      "type": "function"
    },
    {
      "inputs": [
        {
          "internalType": "address",
          "name": "from",
          "type": "address"
        },
        {
          "internalType": "address",
          "name": "to",
          "type": "address"
        },
        {
          "internalType": "uint256",
          "name": "tokenId",
          "type": "uint256"
        }
      ],
      "name": "safeTransferFrom",
      "outputs": [],
      "stateMutability": "nonpayable",
      "type": "function"
    },
    {
      "inputs": [
        {
          "internalType": "address",
          "name": "from",
          "type": "address"
        },
        {
          "internalType": "address",
          "name": "to",
          "type": "address"
        },
        {
          "internalType": "uint256",
          "name": "tokenId",
          "type": "uint256"
        },
        {
          "internalType": "bytes",
          "name": "_data",
          "type": "bytes"
        }
      ],
      "name": "safeTransferFrom",
      "outputs": [],
      "stateMutability": "nonpayable",
      "type": "function"
    },
    {
      "inputs": [
        {
          "internalType": "address",
          "name": "operator",
          "type": "address"
        },
        {
          "internalType": "bool",
          "name": "approved",
          "type": "bool"
        }
      ],
      "name": "setApprovalForAll",
      "outputs": [],
      "stateMutability": "nonpayable",
      "type": "function"
    },
    {
      "inputs": [
        {
          "internalType": "bytes4",
          "name": "interfaceId",
          "type": "bytes4"
        }
      ],
      "name": "supportsInterface",
      "outputs": [
        {
          "internalType": "bool",
          "name": "",
          "type": "bool"
        }
      ],
      "stateMutability": "view",
      "type": "function",
      "constant": true
    },
    {
      "inputs": [],
      "name": "symbol",
      "outputs": [
        {
          "internalType": "string",
          "name": "",
          "type": "string"
        }
      ],
      "stateMutability": "view",
      "type": "function",
      "constant": true
    },
    {
      "inputs": [
        {
          "internalType": "uint256",
          "name": "index",
          "type": "uint256"
        }
      ],
      "name": "tokenByIndex",
      "outputs": [
        {
          "internalType": "uint256",
          "name": "",
          "type": "uint256"
        }
      ],
      "stateMutability": "view",
      "type": "function",
      "constant": true
    },
    {
      "inputs": [
        {
          "internalType": "address",
          "name": "owner",
          "type": "address"
        },
        {
          "internalType": "uint256",
          "name": "index",
          "type": "uint256"
        }
      ],
      "name": "tokenOfOwnerByIndex",
      "outputs": [
        {
          "internalType": "uint256",
          "name": "",
          "type": "uint256"
        }
      ],
      "stateMutability": "view",
      "type": "function",
      "constant": true
    },
    {
      "inputs": [
        {
          "internalType": "uint256",
          "name": "tokenId",
          "type": "uint256"
        }
      ],
      "name": "tokenURI",
      "outputs": [
        {
          "internalType": "string",
          "name": "",
          "type": "string"
        }
      ],
      "stateMutability": "view",
      "type": "function",
      "constant": true
    },
    {
      "inputs": [],
      "name": "totalSupply",
      "outputs": [
        {
          "internalType": "uint256",
          "name": "",
          "type": "uint256"
        }
      ],
      "stateMutability": "view",
      "type": "function",
      "constant": true
    },
    {
      "inputs": [
        {
          "internalType": "address",
          "name": "from",
          "type": "address"
        },
        {
          "internalType": "address",
          "name": "to",
          "type": "address"
        },
        {
          "internalType": "uint256",
          "name": "tokenId",
          "type": "uint256"
        }
      ],
      "name": "transferFrom",
      "outputs": [],
      "stateMutability": "nonpayable",
      "type": "function"
    },
    {
      "inputs": [
        {
          "internalType": "uint256",
          "name": "_seed",
          "type": "uint256"
        },
        {
          "internalType": "string",
          "name": "_name",
          "type": "string"
        }
      ],
      "name": "requestHero",
      "outputs": [
        {
          "internalType": "bytes32",
          "name": "",
          "type": "bytes32"
        }
      ],
      "stateMutability": "payable",
      "type": "function",
      "payable": true
    },
    {
      "inputs": [
        {
          "internalType": "uint256",
          "name": "_seed",
          "type": "uint256"
        }
      ],
      "name": "requestItem",
      "outputs": [
        {
          "internalType": "bytes32",
          "name": "",
          "type": "bytes32"
        }
      ],
      "stateMutability": "payable",
      "type": "function",
      "payable": true
    },
    {
      "inputs": [
        {
          "internalType": "uint256",
          "name": "_id",
          "type": "uint256"
        }
      ],
      "name": "getHeroFirstHalf",
      "outputs": [
        {
          "internalType": "uint8",
          "name": "",
          "type": "uint8"
        },
        {
          "internalType": "string",
          "name": "",
          "type": "string"
        },
        {
          "internalType": "uint8",
          "name": "",
          "type": "uint8"
        },
        {
          "internalType": "uint16",
          "name": "",
          "type": "uint16"
        },
        {
          "internalType": "uint16",
          "name": "",
          "type": "uint16"
        },
        {
          "internalType": "uint16",
          "name": "",
          "type": "uint16"
        }
      ],
      "stateMutability": "view",
      "type": "function",
      "constant": true
    },
    {
      "inputs": [
        {
          "internalType": "uint256",
          "name": "_id",
          "type": "uint256"
        }
      ],
      "name": "getHeroSecondHalf",
      "outputs": [
        {
          "internalType": "uint16",
          "name": "",
          "type": "uint16"
        },
        {
          "internalType": "uint16",
          "name": "",
          "type": "uint16"
        },
        {
          "internalType": "uint16",
          "name": "",
          "type": "uint16"
        },
        {
          "internalType": "uint16",
          "name": "",
          "type": "uint16"
        },
        {
          "internalType": "uint16",
          "name": "",
          "type": "uint16"
        },
        {
          "internalType": "uint256",
          "name": "",
          "type": "uint256"
        }
      ],
      "stateMutability": "view",
      "type": "function",
      "constant": true
    },
    {
      "inputs": [
        {
          "internalType": "uint256",
          "name": "_id",
          "type": "uint256"
        }
      ],
      "name": "getItem",
      "outputs": [
        {
          "internalType": "uint8",
          "name": "",
          "type": "uint8"
        },
        {
          "internalType": "uint256",
          "name": "",
          "type": "uint256"
        }
      ],
      "stateMutability": "view",
      "type": "function",
      "constant": true
    },
    {
      "inputs": [
        {
          "internalType": "uint256",
          "name": "_id",
          "type": "uint256"
        }
      ],
      "name": "levelUp",
      "outputs": [],
      "stateMutability": "payable",
      "type": "function",
      "payable": true
    },
    {
      "inputs": [],
      "name": "withdrawLink",
      "outputs": [],
      "stateMutability": "nonpayable",
      "type": "function"
    },
    {
      "inputs": [
        {
          "internalType": "uint256",
          "name": "_id",
          "type": "uint256"
        }
      ],
      "name": "getHeroOwner",
      "outputs": [
        {
          "internalType": "address",
          "name": "",
          "type": "address"
        }
      ],
      "stateMutability": "view",
      "type": "function",
      "constant": true
    },
    {
      "inputs": [
        {
          "internalType": "uint256",
          "name": "_id",
          "type": "uint256"
        }
      ],
      "name": "getItemOwner",
      "outputs": [
        {
          "internalType": "address",
          "name": "",
          "type": "address"
        }
      ],
      "stateMutability": "view",
      "type": "function",
      "constant": true
    },
    {
      "inputs": [
        {
          "internalType": "address",
          "name": "_account",
          "type": "address"
        }
      ],
      "name": "getNFTCount",
      "outputs": [
        {
          "internalType": "uint256",
          "name": "",
          "type": "uint256"
        }
      ],
      "stateMutability": "view",
      "type": "function",
      "constant": true
    },
    {
      "inputs": [],
      "name": "getHeroCount",
      "outputs": [
        {
          "internalType": "uint256",
          "name": "",
          "type": "uint256"
        }
      ],
      "stateMutability": "view",
      "type": "function",
      "constant": true
    },
    {
      "inputs": [],
      "name": "getItemCount",
      "outputs": [
        {
          "internalType": "uint256",
          "name": "",
          "type": "uint256"
        }
      ],
      "stateMutability": "view",
      "type": "function",
      "constant": true
    },
    {
      "inputs": [
        {
          "internalType": "address",
          "name": "_account",
          "type": "address"
        }
      ],
      "name": "getHeroNFTs",
      "outputs": [
        {
          "internalType": "uint256[]",
          "name": "",
          "type": "uint256[]"
        }
      ],
      "stateMutability": "view",
      "type": "function",
      "constant": true
    },
    {
      "inputs": [
        {
          "internalType": "address",
          "name": "_account",
          "type": "address"
        }
      ],
      "name": "getItemNFTs",
      "outputs": [
        {
          "internalType": "uint256[]",
          "name": "",
          "type": "uint256[]"
        }
      ],
      "stateMutability": "view",
      "type": "function",
      "constant": true
    },
    {
      "inputs": [
        {
          "internalType": "uint256",
          "name": "_heroId",
          "type": "uint256"
        },
        {
          "internalType": "uint256",
          "name": "_itemId",
          "type": "uint256"
        },
        {
          "internalType": "uint16",
          "name": "_strength",
          "type": "uint16"
        },
        {
          "internalType": "uint16",
          "name": "_agility",
          "type": "uint16"
        },
        {
          "internalType": "uint16",
          "name": "_intelligence",
          "type": "uint16"
        },
        {
          "internalType": "uint16",
          "name": "_damage",
          "type": "uint16"
        },
        {
          "internalType": "uint16",
          "name": "_armor",
          "type": "uint16"
        },
        {
          "internalType": "uint16",
          "name": "_mana",
          "type": "uint16"
        },
        {
          "internalType": "uint16",
          "name": "_movementSpeed",
          "type": "uint16"
        }
      ],
      "name": "equipItem",
      "outputs": [],
      "stateMutability": "payable",
      "type": "function",
      "payable": true
    },
    {
      "inputs": [
        {
          "internalType": "uint256",
          "name": "_id",
          "type": "uint256"
        }
      ],
      "name": "getEquippedItems",
      "outputs": [
        {
          "internalType": "uint256[]",
          "name": "",
          "type": "uint256[]"
        },
        {
          "internalType": "uint8[]",
          "name": "",
          "type": "uint8[]"
        }
      ],
      "stateMutability": "view",
      "type": "function",
      "constant": true
    },
    {
      "inputs": [],
      "name": "withdraw",
      "outputs": [],
      "stateMutability": "nonpayable",
      "type": "function"
    }
  ],
  "bytecode": "0x60c06040523480156200001157600080fd5b506040516200648338038062006483833981810160405260608110156200003757600080fd5b810190808051906020019092919080519060200190929190805190602001909291905050506040518060400160405280601481526020017f446566656e63654f66546865416e6369656e74730000000000000000000000008152506040518060400160405280600481526020017f444f54410000000000000000000000000000000000000000000000000000000081525084848173ffffffffffffffffffffffffffffffffffffffff1660a08173ffffffffffffffffffffffffffffffffffffffff1660601b815250508073ffffffffffffffffffffffffffffffffffffffff1660808173ffffffffffffffffffffffffffffffffffffffff1660601b815250505050620001526301ffc9a760e01b620002b060201b60201c565b81600790805190602001906200016a929190620003b9565b50806008908051906020019062000183929190620003b9565b506200019c6380ac58cd60e01b620002b060201b60201c565b620001b4635b5e139f60e01b620002b060201b60201c565b620001cc63780e9d6360e01b620002b060201b60201c565b505082600f60006101000a81548173ffffffffffffffffffffffffffffffffffffffff021916908373ffffffffffffffffffffffffffffffffffffffff16021790555081601060006101000a81548173ffffffffffffffffffffffffffffffffffffffff021916908373ffffffffffffffffffffffffffffffffffffffff16021790555080600e8190555067016345785d8a0000600d8190555033600c60006101000a81548173ffffffffffffffffffffffffffffffffffffffff021916908373ffffffffffffffffffffffffffffffffffffffff16021790555050505062000468565b63ffffffff60e01b817bffffffffffffffffffffffffffffffffffffffffffffffffffffffff191614156200034d576040517f08c379a000000000000000000000000000000000000000000000000000000000815260040180806020018281038252601c8152602001807f4552433136353a20696e76616c696420696e746572666163652069640000000081525060200191505060405180910390fd5b6001806000837bffffffffffffffffffffffffffffffffffffffffffffffffffffffff19167bffffffffffffffffffffffffffffffffffffffffffffffffffffffff1916815260200190815260200160002060006101000a81548160ff02191690831515021790555050565b828054600181600116156101000203166002900490600052602060002090601f016020900481019282601f10620003fc57805160ff19168380011785556200042d565b828001600101855582156200042d579182015b828111156200042c5782518255916020019190600101906200040f565b5b5090506200043c919062000440565b5090565b6200046591905b808211156200046157600081600090555060010162000447565b5090565b90565b60805160601c60a05160601c615fd8620004ab600039806127b452806140ee525080611dc6528061258752806125c4528061369952806140b25250615fd86000f3fe6080604052600436106102045760003560e01c80636c0360eb11610118578063be385027116100a0578063d8faebfb1161006f578063d8faebfb14610f77578063e1cb41481461101d578063e985e9c5146110f5578063f41d3f691461117e578063f85d2c94146111e357610204565b8063be38502714610ceb578063c810f90b14610d86578063c87b56dd14610e81578063d62a488714610f3557610204565b80638dc654a2116100e75780638dc654a214610a9057806394985ddd14610aa757806395d89b4114610aec578063a22cb46514610b7c578063b88d4fde14610bd957610204565b80636c0360eb1461094557806370a08231146109d55780637749cf2314610a3a5780637754838214610a6557610204565b806323b872dd1161019b5780633ccfd60b1161016a5780633ccfd60b1461076e57806342842e0e146107855780634f6ccce71461080057806356b4d7601461084f5780636352211e146108ca57610204565b806323b872dd1461054f5780632f255c15146105ca5780632f745c59146106a35780633129e7731461071257610204565b80630ce90ec2116101d75780630ce90ec2146103e157806318160ddd1461040f57806318366df01461043a5780631d1440fd146104d457610204565b806301ffc9a71461020957806306fdde031461027b578063081812fc1461030b578063095ea7b314610386575b600080fd5b34801561021557600080fd5b506102616004803603602081101561022c57600080fd5b8101908080357bffffffffffffffffffffffffffffffffffffffffffffffffffffffff19169060200190929190505050611289565b604051808215151515815260200191505060405180910390f35b34801561028757600080fd5b506102906112f1565b6040518080602001828103825283818151815260200191508051906020019080838360005b838110156102d05780820151818401526020810190506102b5565b50505050905090810190601f1680156102fd5780820380516001836020036101000a031916815260200191505b509250505060405180910390f35b34801561031757600080fd5b506103446004803603602081101561032e57600080fd5b8101908080359060200190929190505050611393565b604051808273ffffffffffffffffffffffffffffffffffffffff1673ffffffffffffffffffffffffffffffffffffffff16815260200191505060405180910390f35b34801561039257600080fd5b506103df600480360360408110156103a957600080fd5b81019080803573ffffffffffffffffffffffffffffffffffffffff1690602001909291908035906020019092919050505061142e565b005b61040d600480360360208110156103f757600080fd5b8101908080359060200190929190505050611572565b005b34801561041b57600080fd5b5061042461199e565b6040518082815260200191505060405180910390f35b34801561044657600080fd5b506104736004803603602081101561045d57600080fd5b81019080803590602001909291905050506119af565b604051808761ffff1661ffff1681526020018661ffff1661ffff1681526020018561ffff1661ffff1681526020018461ffff1661ffff1681526020018361ffff1661ffff168152602001828152602001965050505050505060405180910390f35b3480156104e057600080fd5b5061050d600480360360208110156104f757600080fd5b8101908080359060200190929190505050611c90565b604051808273ffffffffffffffffffffffffffffffffffffffff1673ffffffffffffffffffffffffffffffffffffffff16815260200191505060405180910390f35b34801561055b57600080fd5b506105c86004803603606081101561057257600080fd5b81019080803573ffffffffffffffffffffffffffffffffffffffff169060200190929190803573ffffffffffffffffffffffffffffffffffffffff16906020019092919080359060200190929190505050611d49565b005b61068d600480360360408110156105e057600080fd5b81019080803590602001909291908035906020019064010000000081111561060757600080fd5b82018360208201111561061957600080fd5b8035906020019184600183028401116401000000008311171561063b57600080fd5b91908080601f016020809104026020016040519081016040528093929190818152602001838380828437600081840152601f19601f820116905080830192505050505050509192919290505050611dbf565b6040518082815260200191505060405180910390f35b3480156106af57600080fd5b506106fc600480360360408110156106c657600080fd5b81019080803573ffffffffffffffffffffffffffffffffffffffff16906020019092919080359060200190929190505050611fb7565b6040518082815260200191505060405180910390f35b34801561071e57600080fd5b5061074b6004803603602081101561073557600080fd5b8101908080359060200190929190505050612012565b604051808360ff1660ff1681526020018281526020019250505060405180910390f35b34801561077a57600080fd5b506107836120f2565b005b34801561079157600080fd5b506107fe600480360360608110156107a857600080fd5b81019080803573ffffffffffffffffffffffffffffffffffffffff169060200190929190803573ffffffffffffffffffffffffffffffffffffffff169060200190929190803590602001909291905050506121fe565b005b34801561080c57600080fd5b506108396004803603602081101561082357600080fd5b810190808035906020019092919050505061221e565b6040518082815260200191505060405180910390f35b34801561085b57600080fd5b506108886004803603602081101561087257600080fd5b8101908080359060200190929190505050612241565b604051808273ffffffffffffffffffffffffffffffffffffffff1673ffffffffffffffffffffffffffffffffffffffff16815260200191505060405180910390f35b3480156108d657600080fd5b50610903600480360360208110156108ed57600080fd5b81019080803590602001909291905050506122fa565b604051808273ffffffffffffffffffffffffffffffffffffffff1673ffffffffffffffffffffffffffffffffffffffff16815260200191505060405180910390f35b34801561095157600080fd5b5061095a612331565b6040518080602001828103825283818151815260200191508051906020019080838360005b8381101561099a57808201518184015260208101905061097f565b50505050905090810190601f1680156109c75780820380516001836020036101000a031916815260200191505b509250505060405180910390f35b3480156109e157600080fd5b50610a24600480360360208110156109f857600080fd5b81019080803573ffffffffffffffffffffffffffffffffffffffff1690602001909291905050506123d3565b6040518082815260200191505060405180910390f35b348015610a4657600080fd5b50610a4f6124a8565b6040518082815260200191505060405180910390f35b348015610a7157600080fd5b50610a7a6124b5565b6040518082815260200191505060405180910390f35b348015610a9c57600080fd5b50610aa56124c2565b005b348015610ab357600080fd5b50610aea60048036036040811015610aca57600080fd5b8101908080359060200190929190803590602001909291905050506127b2565b005b348015610af857600080fd5b50610b01612881565b6040518080602001828103825283818151815260200191508051906020019080838360005b83811015610b41578082015181840152602081019050610b26565b50505050905090810190601f168015610b6e5780820380516001836020036101000a031916815260200191505b509250505060405180910390f35b348015610b8857600080fd5b50610bd760048036036040811015610b9f57600080fd5b81019080803573ffffffffffffffffffffffffffffffffffffffff169060200190929190803515159060200190929190505050612923565b005b348015610be557600080fd5b50610ce960048036036080811015610bfc57600080fd5b81019080803573ffffffffffffffffffffffffffffffffffffffff169060200190929190803573ffffffffffffffffffffffffffffffffffffffff1690602001909291908035906020019092919080359060200190640100000000811115610c6357600080fd5b820183602082011115610c7557600080fd5b80359060200191846001830284011164010000000083111715610c9757600080fd5b91908080601f016020809104026020016040519081016040528093929190818152602001838380828437600081840152601f19601f820116905080830192505050505050509192919290505050612adb565b005b610d846004803603610120811015610d0257600080fd5b810190808035906020019092919080359060200190929190803561ffff169060200190929190803561ffff169060200190929190803561ffff169060200190929190803561ffff169060200190929190803561ffff169060200190929190803561ffff169060200190929190803561ffff169060200190929190505050612b53565b005b348015610d9257600080fd5b50610dbf60048036036020811015610da957600080fd5b81019080803590602001909291905050506130e3565b604051808760ff1660ff168152602001806020018660ff1660ff1681526020018561ffff1661ffff1681526020018461ffff1661ffff1681526020018361ffff1661ffff168152602001828103825287818151815260200191508051906020019080838360005b83811015610e41578082015181840152602081019050610e26565b50505050905090810190601f168015610e6e5780820380516001836020036101000a031916815260200191505b5097505050505050505060405180910390f35b348015610e8d57600080fd5b50610eba60048036036020811015610ea457600080fd5b81019080803590602001909291905050506133c1565b6040518080602001828103825283818151815260200191508051906020019080838360005b83811015610efa578082015181840152602081019050610edf565b50505050905090810190601f168015610f275780820380516001836020036101000a031916815260200191505b509250505060405180910390f35b610f6160048036036020811015610f4b57600080fd5b8101908080359060200190929190505050613692565b6040518082815260200191505060405180910390f35b348015610f8357600080fd5b50610fc660048036036020811015610f9a57600080fd5b81019080803573ffffffffffffffffffffffffffffffffffffffff169060200190929190505050613861565b6040518080602001828103825283818151815260200191508051906020019060200280838360005b83811015611009578082015181840152602081019050610fee565b505050509050019250505060405180910390f35b34801561102957600080fd5b506110566004803603602081101561104057600080fd5b81019080803590602001909291905050506138f8565b604051808060200180602001838103835285818151815260200191508051906020019060200280838360005b8381101561109d578082015181840152602081019050611082565b50505050905001838103825284818151815260200191508051906020019060200280838360005b838110156110df5780820151818401526020810190506110c4565b5050505090500194505050505060405180910390f35b34801561110157600080fd5b506111646004803603604081101561111857600080fd5b81019080803573ffffffffffffffffffffffffffffffffffffffff169060200190929190803573ffffffffffffffffffffffffffffffffffffffff169060200190929190505050613b47565b604051808215151515815260200191505060405180910390f35b34801561118a57600080fd5b506111cd600480360360208110156111a157600080fd5b81019080803573ffffffffffffffffffffffffffffffffffffffff169060200190929190505050613bdb565b6040518082815260200191505060405180910390f35b3480156111ef57600080fd5b506112326004803603602081101561120657600080fd5b81019080803573ffffffffffffffffffffffffffffffffffffffff169060200190929190505050613bed565b6040518080602001828103825283818151815260200191508051906020019060200280838360005b8381101561127557808201518184015260208101905061125a565b505050509050019250505060405180910390f35b600060016000837bffffffffffffffffffffffffffffffffffffffffffffffffffffffff19167bffffffffffffffffffffffffffffffffffffffffffffffffffffffff1916815260200190815260200160002060009054906101000a900460ff169050919050565b606060078054600181600116156101000203166002900480601f0160208091040260200160405190810160405280929190818152602001828054600181600116156101000203166002900480156113895780601f1061135e57610100808354040283529160200191611389565b820191906000526020600020905b81548152906001019060200180831161136c57829003601f168201915b5050505050905090565b600061139e82613c84565b6113f3576040517f08c379a000000000000000000000000000000000000000000000000000000000815260040180806020018281038252602c815260200180615ea6602c913960400191505060405180910390fd5b6005600083815260200190815260200160002060009054906101000a900473ffffffffffffffffffffffffffffffffffffffff169050919050565b6000611439826122fa565b90508073ffffffffffffffffffffffffffffffffffffffff168373ffffffffffffffffffffffffffffffffffffffff1614156114c0576040517f08c379a0000000000000000000000000000000000000000000000000000000008152600401808060200182810382526021815260200180615f2a6021913960400191505060405180910390fd5b8073ffffffffffffffffffffffffffffffffffffffff166114df613ca1565b73ffffffffffffffffffffffffffffffffffffffff16148061150e575061150d81611508613ca1565b613b47565b5b611563576040517f08c379a0000000000000000000000000000000000000000000000000000000008152600401808060200182810382526038815260200180615df96038913960400191505060405180910390fd5b61156d8383613ca9565b505050565b8060008110158015611588575060118054905081105b6115fa576040517f08c379a00000000000000000000000000000000000000000000000000000000081526004018080602001828103825260158152602001807f4865726f20646f6573206e6f74206578697374732e000000000000000000000081525060200191505060405180910390fd5b601e6011838154811061160957fe5b906000526020600020906004020160030160009054906101000a900460ff1660ff16111561169f576040517f08c379a00000000000000000000000000000000000000000000000000000000081526004018080602001828103825260148152602001807f596f7520617265204174204d6178206c6576656c00000000000000000000000081525060200191505060405180910390fd5b6001601183815481106116ae57fe5b906000526020600020906004020160030160008282829054906101000a900460ff160192506101000a81548160ff021916908360ff1602179055506002601183815481106116f857fe5b906000526020600020906004020160030160058282829054906101000a900461ffff160192506101000a81548161ffff021916908361ffff16021790555060026011838154811061174557fe5b906000526020600020906004020160030160078282829054906101000a900461ffff160192506101000a81548161ffff021916908361ffff16021790555060026011838154811061179257fe5b906000526020600020906004020160030160098282829054906101000a900461ffff160192506101000a81548161ffff021916908361ffff1602179055506028601183815481106117df57fe5b9060005260206000209060040201600301600b8282829054906101000a900461ffff160192506101000a81548161ffff021916908361ffff16021790555060166011838154811061182c57fe5b9060005260206000209060040201600301600d8282829054906101000a900461ffff160192506101000a81548161ffff021916908361ffff16021790555060016011838154811061187957fe5b906000526020600020906004020160030160038282829054906101000a900461ffff160192506101000a81548161ffff021916908361ffff1602179055506002601183815481106118c657fe5b906000526020600020906004020160030160018282829054906101000a900461ffff160192506101000a81548161ffff021916908361ffff1602179055507fe5d9eba896a4db69854a0334b16c0644d9346250c68cb48ca2656bd2c0cd33336011838154811061193257fe5b906000526020600020906004020160000154836011858154811061195257fe5b906000526020600020906004020160030160009054906101000a900460ff16604051808481526020018381526020018260ff1660ff168152602001935050505060405180910390a15050565b60006119aa6003613d62565b905090565b60008060008060008086600081101580156119ce575060118054905081105b611a40576040517f08c379a00000000000000000000000000000000000000000000000000000000081526004018080602001828103825260158152602001807f4865726f20646f6573206e6f74206578697374732e000000000000000000000081525060200191505060405180910390fd5b611a48615bd7565b60118981548110611a5557fe5b906000526020600020906004020160405180610180016040529081600082015481526020016001820160009054906101000a900460ff1660ff1660ff168152602001600282018054600181600116156101000203166002900480601f016020809104026020016040519081016040528092919081815260200182805460018160011615610100020316600290048015611b2f5780601f10611b0457610100808354040283529160200191611b2f565b820191906000526020600020905b815481529060010190602001808311611b1257829003601f168201915b505050505081526020016003820160009054906101000a900460ff1660ff1660ff1681526020016003820160019054906101000a900461ffff1661ffff1661ffff1681526020016003820160039054906101000a900461ffff1661ffff1661ffff1681526020016003820160059054906101000a900461ffff1661ffff1661ffff1681526020016003820160079054906101000a900461ffff1661ffff1661ffff1681526020016003820160099054906101000a900461ffff1661ffff1661ffff16815260200160038201600b9054906101000a900461ffff1661ffff1661ffff16815260200160038201600d9054906101000a900461ffff1661ffff1661ffff16815260200160038201600f9054906101000a900461ffff1661ffff1661ffff168152505090508061010001518161012001518261014001518361016001518460a001518560000151975097509750975097509750505091939550919395565b60008160008110158015611ca8575060128054905081105b611d1a576040517f08c379a00000000000000000000000000000000000000000000000000000000081526004018080602001828103825260158152602001807f4974656d20646f6573206e6f74206578697374732e000000000000000000000081525060200191505060405180910390fd5b611d4160128481548110611d2a57fe5b9060005260206000209060020201600001546122fa565b915050919050565b611d5a611d54613ca1565b82613d77565b611daf576040517f08c379a0000000000000000000000000000000000000000000000000000000008152600401808060200182810382526031815260200180615f726031913960400191505060405180910390fd5b611dba838383613e6b565b505050565b6000600d547f000000000000000000000000000000000000000000000000000000000000000073ffffffffffffffffffffffffffffffffffffffff166370a08231306040518263ffffffff1660e01b8152600401808273ffffffffffffffffffffffffffffffffffffffff1673ffffffffffffffffffffffffffffffffffffffff16815260200191505060206040518083038186803b158015611e6157600080fd5b505afa158015611e75573d6000803e3d6000fd5b505050506040513d6020811015611e8b57600080fd5b81019080805190602001909291905050501015611ef3576040517f08c379a000000000000000000000000000000000000000000000000000000000815260040180806020018281038252602b815260200180615d7c602b913960400191505060405180910390fd5b6000611f04600e54600d54866140ae565b905082601360008381526020019081526020016000209080519060200190611f2d929190615c5e565b50336014600083815260200190815260200160002060006101000a81548173ffffffffffffffffffffffffffffffffffffffff021916908373ffffffffffffffffffffffffffffffffffffffff16021790555060006017600083815260200190815260200160002060006101000a81548160ff021916908360ff1602179055508091505092915050565b600061200a82600260008673ffffffffffffffffffffffffffffffffffffffff1673ffffffffffffffffffffffffffffffffffffffff1681526020019081526020016000206142b990919063ffffffff16565b905092915050565b600080826000811015801561202b575060128054905081105b61209d576040517f08c379a00000000000000000000000000000000000000000000000000000000081526004018080602001828103825260158152602001807f4974656d20646f6573206e6f74206578697374732e000000000000000000000081525060200191505060405180910390fd5b601284815481106120aa57fe5b906000526020600020906002020160010160009054906101000a900460ff16601285815481106120d657fe5b9060005260206000209060020201600001549250925050915091565b3373ffffffffffffffffffffffffffffffffffffffff16600c60009054906101000a900473ffffffffffffffffffffffffffffffffffffffff1673ffffffffffffffffffffffffffffffffffffffff16146121b5576040517f08c379a000000000000000000000000000000000000000000000000000000000815260040180806020018281038252600b8152602001807f4f6e6c79204f776e65722e00000000000000000000000000000000000000000081525060200191505060405180910390fd5b3373ffffffffffffffffffffffffffffffffffffffff166108fc479081150290604051600060405180830381858888f193505050501580156121fb573d6000803e3d6000fd5b50565b61221983838360405180602001604052806000815250612adb565b505050565b6000806122358360036142d390919063ffffffff16565b50905080915050919050565b60008160008110158015612259575060118054905081105b6122cb576040517f08c379a00000000000000000000000000000000000000000000000000000000081526004018080602001828103825260158152602001807f4865726f20646f6573206e6f74206578697374732e000000000000000000000081525060200191505060405180910390fd5b6122f2601184815481106122db57fe5b9060005260206000209060040201600001546122fa565b915050919050565b600061232a82604051806060016040528060298152602001615e5b6029913960036143029092919063ffffffff16565b9050919050565b6060600a8054600181600116156101000203166002900480601f0160208091040260200160405190810160405280929190818152602001828054600181600116156101000203166002900480156123c95780601f1061239e576101008083540402835291602001916123c9565b820191906000526020600020905b8154815290600101906020018083116123ac57829003601f168201915b5050505050905090565b60008073ffffffffffffffffffffffffffffffffffffffff168273ffffffffffffffffffffffffffffffffffffffff16141561245a576040517f08c379a000000000000000000000000000000000000000000000000000000000815260040180806020018281038252602a815260200180615e31602a913960400191505060405180910390fd5b6124a1600260008473ffffffffffffffffffffffffffffffffffffffff1673ffffffffffffffffffffffffffffffffffffffff168152602001908152602001600020614321565b9050919050565b6000601280549050905090565b6000601180549050905090565b600c60009054906101000a900473ffffffffffffffffffffffffffffffffffffffff1673ffffffffffffffffffffffffffffffffffffffff163373ffffffffffffffffffffffffffffffffffffffff1614612585576040517f08c379a000000000000000000000000000000000000000000000000000000000815260040180806020018281038252601e8152602001807f4f6e6c79204f776e65722063616e207769746864726177204c494e4b732e000081525060200191505060405180910390fd5b7f000000000000000000000000000000000000000000000000000000000000000073ffffffffffffffffffffffffffffffffffffffff1663a9059cbb337f000000000000000000000000000000000000000000000000000000000000000073ffffffffffffffffffffffffffffffffffffffff166370a08231306040518263ffffffff1660e01b8152600401808273ffffffffffffffffffffffffffffffffffffffff1673ffffffffffffffffffffffffffffffffffffffff16815260200191505060206040518083038186803b15801561265f57600080fd5b505afa158015612673573d6000803e3d6000fd5b505050506040513d602081101561268957600080fd5b81019080805190602001909291905050506040518363ffffffff1660e01b8152600401808373ffffffffffffffffffffffffffffffffffffffff1673ffffffffffffffffffffffffffffffffffffffff16815260200182815260200192505050602060405180830381600087803b15801561270357600080fd5b505af1158015612717573d6000803e3d6000fd5b505050506040513d602081101561272d57600080fd5b81019080805190602001909291905050506127b0576040517f08c379a00000000000000000000000000000000000000000000000000000000081526004018080602001828103825260128152602001807f556e61626c6520746f207472616e73666572000000000000000000000000000081525060200191505060405180910390fd5b565b7f000000000000000000000000000000000000000000000000000000000000000073ffffffffffffffffffffffffffffffffffffffff163373ffffffffffffffffffffffffffffffffffffffff1614612873576040517f08c379a000000000000000000000000000000000000000000000000000000000815260040180806020018281038252601f8152602001807f4f6e6c7920565246436f6f7264696e61746f722063616e2066756c66696c6c0081525060200191505060405180910390fd5b61287d8282614336565b5050565b606060088054600181600116156101000203166002900480601f0160208091040260200160405190810160405280929190818152602001828054600181600116156101000203166002900480156129195780601f106128ee57610100808354040283529160200191612919565b820191906000526020600020905b8154815290600101906020018083116128fc57829003601f168201915b5050505050905090565b61292b613ca1565b73ffffffffffffffffffffffffffffffffffffffff168273ffffffffffffffffffffffffffffffffffffffff1614156129cc576040517f08c379a00000000000000000000000000000000000000000000000000000000081526004018080602001828103825260198152602001807f4552433732313a20617070726f766520746f2063616c6c65720000000000000081525060200191505060405180910390fd5b80600660006129d9613ca1565b73ffffffffffffffffffffffffffffffffffffffff1673ffffffffffffffffffffffffffffffffffffffff16815260200190815260200160002060008473ffffffffffffffffffffffffffffffffffffffff1673ffffffffffffffffffffffffffffffffffffffff16815260200190815260200160002060006101000a81548160ff0219169083151502179055508173ffffffffffffffffffffffffffffffffffffffff16612a86613ca1565b73ffffffffffffffffffffffffffffffffffffffff167f17307eab39ab6107e8899845ad3d59bd9653f200f220920489ca2b5937696c3183604051808215151515815260200191505060405180910390a35050565b612aec612ae6613ca1565b83613d77565b612b41576040517f08c379a0000000000000000000000000000000000000000000000000000000008152600401808060200182810382526031815260200180615f726031913960400191505060405180910390fd5b612b4d84848484614b0e565b50505050565b8860008110158015612b69575060118054905081105b612bdb576040517f08c379a00000000000000000000000000000000000000000000000000000000081526004018080602001828103825260158152602001807f4865726f20646f6573206e6f74206578697374732e000000000000000000000081525060200191505060405180910390fd5b8860008110158015612bf1575060128054905081105b612c63576040517f08c379a00000000000000000000000000000000000000000000000000000000081526004018080602001828103825260158152602001807f4974656d20646f6573206e6f74206578697374732e000000000000000000000081525060200191505060405180910390fd5b8a612c8b60118281548110612c7457fe5b9060005260206000209060040201600001546122fa565b73ffffffffffffffffffffffffffffffffffffffff163373ffffffffffffffffffffffffffffffffffffffff1614612d0e576040517f08c379a0000000000000000000000000000000000000000000000000000000008152600401808060200182810382526027815260200180615f4b6027913960400191505060405180910390fd5b8a612d3660128281548110612d1f57fe5b9060005260206000209060020201600001546122fa565b73ffffffffffffffffffffffffffffffffffffffff163373ffffffffffffffffffffffffffffffffffffffff1614612db9576040517f08c379a0000000000000000000000000000000000000000000000000000000008152600401808060200182810382526027815260200180615f4b6027913960400191505060405180910390fd5b6007601860008f81526020019081526020016000208054905010612e45576040517f08c379a000000000000000000000000000000000000000000000000000000000815260040180806020018281038252601e8152602001807f4d6178696d756d2036206974656d732063616e20626520696e6675736564000081525060200191505060405180910390fd5b60001515601960008e815260200190815260200160002060009054906101000a900460ff16151514612edf576040517f08c379a00000000000000000000000000000000000000000000000000000000081526004018080602001828103825260198152602001807f4974656d20697320616c72656164792065717569707065642e0000000000000081525060200191505060405180910390fd5b8a60118e81548110612eed57fe5b906000526020600020906004020160030160058282829054906101000a900461ffff160192506101000a81548161ffff021916908361ffff1602179055508960118e81548110612f3957fe5b906000526020600020906004020160030160078282829054906101000a900461ffff160192506101000a81548161ffff021916908361ffff1602179055508860118e81548110612f8557fe5b906000526020600020906004020160030160098282829054906101000a900461ffff160192506101000a81548161ffff021916908361ffff16021790555060148b0260118e81548110612fd457fe5b9060005260206000209060040201600301600b8282829054906101000a900461ffff160192506101000a81548161ffff021916908361ffff160217905550600b890260118e8154811061302357fe5b9060005260206000209060040201600301600d8282829054906101000a900461ffff160192506101000a81548161ffff021916908361ffff16021790555061306e8d89898989614b80565b601860008e81526020019081526020016000208c90806001815401808255809150506001900390600052602060002001600090919091909150556001601960008e815260200190815260200160002060006101000a81548160ff02191690831515021790555050505050505050505050505050565b600060606000806000808660008110158015613103575060118054905081105b613175576040517f08c379a00000000000000000000000000000000000000000000000000000000081526004018080602001828103825260158152602001807f4865726f20646f6573206e6f74206578697374732e000000000000000000000081525060200191505060405180910390fd5b61317d615bd7565b6011898154811061318a57fe5b906000526020600020906004020160405180610180016040529081600082015481526020016001820160009054906101000a900460ff1660ff1660ff168152602001600282018054600181600116156101000203166002900480601f0160208091040260200160405190810160405280929190818152602001828054600181600116156101000203166002900480156132645780601f1061323957610100808354040283529160200191613264565b820191906000526020600020905b81548152906001019060200180831161324757829003601f168201915b505050505081526020016003820160009054906101000a900460ff1660ff1660ff1681526020016003820160019054906101000a900461ffff1661ffff1661ffff1681526020016003820160039054906101000a900461ffff1661ffff1661ffff1681526020016003820160059054906101000a900461ffff1661ffff1661ffff1681526020016003820160079054906101000a900461ffff1661ffff1661ffff1681526020016003820160099054906101000a900461ffff1661ffff1661ffff16815260200160038201600b9054906101000a900461ffff1661ffff1661ffff16815260200160038201600d9054906101000a900461ffff1661ffff1661ffff16815260200160038201600f9054906101000a900461ffff1661ffff1661ffff1681525050905080602001518160400151826060015183608001518460c001518560e00151975097509750975097509750505091939550919395565b60606133cc82613c84565b613421576040517f08c379a000000000000000000000000000000000000000000000000000000000815260040180806020018281038252602f815260200180615efb602f913960400191505060405180910390fd5b6060600960008481526020019081526020016000208054600181600116156101000203166002900480601f0160208091040260200160405190810160405280929190818152602001828054600181600116156101000203166002900480156134ca5780601f1061349f576101008083540402835291602001916134ca565b820191906000526020600020905b8154815290600101906020018083116134ad57829003601f168201915b5050505050905060606134db612331565b90506000815114156134f157819250505061368d565b6000825111156135c25780826040516020018083805190602001908083835b602083106135335780518252602082019150602081019050602083039250613510565b6001836020036101000a03801982511681845116808217855250505050505090500182805190602001908083835b602083106135845780518252602082019150602081019050602083039250613561565b6001836020036101000a038019825116818451168082178552505050505050905001925050506040516020818303038152906040529250505061368d565b806135cc85614cb7565b6040516020018083805190602001908083835b6020831061360257805182526020820191506020810190506020830392506135df565b6001836020036101000a03801982511681845116808217855250505050505090500182805190602001908083835b602083106136535780518252602082019150602081019050602083039250613630565b6001836020036101000a03801982511681845116808217855250505050505090500192505050604051602081830303815290604052925050505b919050565b6000600d547f000000000000000000000000000000000000000000000000000000000000000073ffffffffffffffffffffffffffffffffffffffff166370a08231306040518263ffffffff1660e01b8152600401808273ffffffffffffffffffffffffffffffffffffffff1673ffffffffffffffffffffffffffffffffffffffff16815260200191505060206040518083038186803b15801561373457600080fd5b505afa158015613748573d6000803e3d6000fd5b505050506040513d602081101561375e57600080fd5b810190808051906020019092919050505010156137c6576040517f08c379a000000000000000000000000000000000000000000000000000000000815260040180806020018281038252602b815260200180615d7c602b913960400191505060405180910390fd5b60006137d7600e54600d54856140ae565b9050336014600083815260200190815260200160002060006101000a81548173ffffffffffffffffffffffffffffffffffffffff021916908373ffffffffffffffffffffffffffffffffffffffff16021790555060016017600083815260200190815260200160002060006101000a81548160ff021916908360ff16021790555080915050919050565b6060601660008373ffffffffffffffffffffffffffffffffffffffff1673ffffffffffffffffffffffffffffffffffffffff1681526020019081526020016000208054806020026020016040519081016040528092919081815260200182805480156138ec57602002820191906000526020600020905b8154815260200190600101908083116138d8575b50505050509050919050565b6060808260008110158015613911575060118054905081105b613983576040517f08c379a00000000000000000000000000000000000000000000000000000000081526004018080602001828103825260158152602001807f4865726f20646f6573206e6f74206578697374732e000000000000000000000081525060200191505060405180910390fd5b6060601860008681526020019081526020016000208054806020026020016040519081016040528092919081815260200182805480156139e257602002820191906000526020600020905b8154815260200190600101908083116139ce575b505050505090506060815167ffffffffffffffff81118015613a0357600080fd5b50604051908082528060200260200182016040528015613a325781602001602082028036833780820191505090505b5090506060825167ffffffffffffffff81118015613a4f57600080fd5b50604051908082528060200260200182016040528015613a7e5781602001602082028036833780820191505090505b50905060008090505b83518160ff161015613b3757838160ff1681518110613aa257fe5b6020026020010151838260ff1681518110613ab957fe5b6020026020010181815250506012848260ff1681518110613ad657fe5b602002602001015181548110613ae857fe5b906000526020600020906002020160010160009054906101000a900460ff16828260ff1681518110613b1657fe5b602002602001019060ff16908160ff16815250508080600101915050613a87565b5081819550955050505050915091565b6000600660008473ffffffffffffffffffffffffffffffffffffffff1673ffffffffffffffffffffffffffffffffffffffff16815260200190815260200160002060008373ffffffffffffffffffffffffffffffffffffffff1673ffffffffffffffffffffffffffffffffffffffff16815260200190815260200160002060009054906101000a900460ff16905092915050565b6000613be6826123d3565b9050919050565b6060601560008373ffffffffffffffffffffffffffffffffffffffff1673ffffffffffffffffffffffffffffffffffffffff168152602001908152602001600020805480602002602001604051908101604052809291908181526020018280548015613c7857602002820191906000526020600020905b815481526020019060010190808311613c64575b50505050509050919050565b6000613c9a826003614dfe90919063ffffffff16565b9050919050565b600033905090565b816005600083815260200190815260200160002060006101000a81548173ffffffffffffffffffffffffffffffffffffffff021916908373ffffffffffffffffffffffffffffffffffffffff160217905550808273ffffffffffffffffffffffffffffffffffffffff16613d1c836122fa565b73ffffffffffffffffffffffffffffffffffffffff167f8c5be1e5ebec7d5bd14f71427d1e84f3dd0314c0f7b2291e5b200ac8c7c3b92560405160405180910390a45050565b6000613d7082600001614e18565b9050919050565b6000613d8282613c84565b613dd7576040517f08c379a000000000000000000000000000000000000000000000000000000000815260040180806020018281038252602c815260200180615dcd602c913960400191505060405180910390fd5b6000613de2836122fa565b90508073ffffffffffffffffffffffffffffffffffffffff168473ffffffffffffffffffffffffffffffffffffffff161480613e5157508373ffffffffffffffffffffffffffffffffffffffff16613e3984611393565b73ffffffffffffffffffffffffffffffffffffffff16145b80613e625750613e618185613b47565b5b91505092915050565b8273ffffffffffffffffffffffffffffffffffffffff16613e8b826122fa565b73ffffffffffffffffffffffffffffffffffffffff1614613ef7576040517f08c379a0000000000000000000000000000000000000000000000000000000008152600401808060200182810382526029815260200180615ed26029913960400191505060405180910390fd5b600073ffffffffffffffffffffffffffffffffffffffff168273ffffffffffffffffffffffffffffffffffffffff161415613f7d576040517f08c379a0000000000000000000000000000000000000000000000000000000008152600401808060200182810382526024815260200180615d586024913960400191505060405180910390fd5b613f88838383614e29565b613f93600082613ca9565b613fe481600260008673ffffffffffffffffffffffffffffffffffffffff1673ffffffffffffffffffffffffffffffffffffffff168152602001908152602001600020614e2e90919063ffffffff16565b5061403681600260008573ffffffffffffffffffffffffffffffffffffffff1673ffffffffffffffffffffffffffffffffffffffff168152602001908152602001600020614e4890919063ffffffff16565b5061404d81836003614e629092919063ffffffff16565b50808273ffffffffffffffffffffffffffffffffffffffff168473ffffffffffffffffffffffffffffffffffffffff167fddf252ad1be2c89b69c2b068fc378daa952ba7f163c4a11628f55a4df523b3ef60405160405180910390a4505050565b60007f000000000000000000000000000000000000000000000000000000000000000073ffffffffffffffffffffffffffffffffffffffff16634000aea07f000000000000000000000000000000000000000000000000000000000000000085878660405160200180838152602001828152602001925050506040516020818303038152906040526040518463ffffffff1660e01b8152600401808473ffffffffffffffffffffffffffffffffffffffff1673ffffffffffffffffffffffffffffffffffffffff16815260200183815260200180602001828103825283818151815260200191508051906020019080838360005b838110156141bd5780820151818401526020810190506141a2565b50505050905090810190601f1680156141ea5780820380516001836020036101000a031916815260200191505b50945050505050602060405180830381600087803b15801561420b57600080fd5b505af115801561421f573d6000803e3d6000fd5b505050506040513d602081101561423557600080fd5b81019080805190602001909291905050505060006142678584306000808a815260200190815260200160002054614e97565b905061428f600160008088815260200190815260200160002054614f1190919063ffffffff16565b600080878152602001908152602001600020819055506142af8582614f99565b9150509392505050565b60006142c88360000183614fd2565b60001c905092915050565b6000806000806142e68660000186615055565b915091508160001c8160001c8090509350935050509250929050565b6000614315846000018460001b846150ee565b60001c90509392505050565b600061432f826000016151e4565b9050919050565b600b6000815480929190600101919050555060006017600084815260200190815260200160002060009054906101000a900460ff1660ff1614156148fd5760006019612710838161438357fe5b048161438b57fe5b0690506000601962989680848161439e57fe5b04816143a657fe5b069050600060196103e885816143b857fe5b04816143c057fe5b06905060006014840260c80190506000600b8402604b0190506000601e87816143e557fe5b0690506000601180549050905060006001600c8a8161440057fe5b0601905060058160ff16101561441a578783019250614437565b60098160ff161015614430578583019250614436565b86830192505b5b6011604051806101800160405280600b5481526020018360ff168152602001601360008e81526020019081526020016000208054600181600116156101000203166002900480601f0160208091040260200160405190810160405280929190818152602001828054600181600116156101000203166002900480156144fd5780601f106144d2576101008083540402835291602001916144fd565b820191906000526020600020905b8154815290600101906020018083116144e057829003601f168201915b50505050508152602001600060ff1681526020018561ffff16815260200160058c8161452557fe5b0661ffff1681526020018a61ffff1681526020018861ffff1681526020018961ffff1681526020018761ffff1681526020018661ffff168152602001606464174876e8008d8161457157fe5b048161457957fe5b0660c80161ffff1681525090806001815401808255809150506001900390600052602060002090600402016000909190919091506000820151816000015560208201518160010160006101000a81548160ff021916908360ff16021790555060408201518160020190805190602001906145f4929190615c5e565b5060608201518160030160006101000a81548160ff021916908360ff16021790555060808201518160030160016101000a81548161ffff021916908361ffff16021790555060a08201518160030160036101000a81548161ffff021916908361ffff16021790555060c08201518160030160056101000a81548161ffff021916908361ffff16021790555060e08201518160030160076101000a81548161ffff021916908361ffff1602179055506101008201518160030160096101000a81548161ffff021916908361ffff16021790555061012082015181600301600b6101000a81548161ffff021916908361ffff16021790555061014082015181600301600d6101000a81548161ffff021916908361ffff16021790555061016082015181600301600f6101000a81548161ffff021916908361ffff1602179055505050614773601460008c815260200190815260200160002060009054906101000a900473ffffffffffffffffffffffffffffffffffffffff16600b546151f5565b60156000601460008d815260200190815260200160002060009054906101000a900473ffffffffffffffffffffffffffffffffffffffff1673ffffffffffffffffffffffffffffffffffffffff1673ffffffffffffffffffffffffffffffffffffffff1681526020019081526020016000208290806001815401808255809150506001900390600052602060002001600090919091909150557f0534e405a37a977a4a2e2e3070bdfc0141def07bd47e545872002cf035c742e3601460008c815260200190815260200160002060009054906101000a900473ffffffffffffffffffffffffffffffffffffffff16828a898b88604051808773ffffffffffffffffffffffffffffffffffffffff1673ffffffffffffffffffffffffffffffffffffffff1681526020018660ff1660ff1681526020018561ffff1661ffff1681526020018461ffff1661ffff1681526020018361ffff1661ffff1681526020018261ffff1661ffff168152602001965050505050505060405180910390a15050505050505050614b0a565b60006012805490509050600060016018848161491557fe5b0601905060126040518060400160405280600b5481526020018360ff1681525090806001815401808255809150506001900390600052602060002090600202016000909190919091506000820151816000015560208201518160010160006101000a81548160ff021916908360ff16021790555050506149ca6014600086815260200190815260200160002060009054906101000a900473ffffffffffffffffffffffffffffffffffffffff16600b546151f5565b601660006014600087815260200190815260200160002060009054906101000a900473ffffffffffffffffffffffffffffffffffffffff1673ffffffffffffffffffffffffffffffffffffffff1673ffffffffffffffffffffffffffffffffffffffff1681526020019081526020016000208290806001815401808255809150506001900390600052602060002001600090919091909150557f15ecb09b7453730c36eee8407b4a0ac30180c12a2b18586f44e00eb652df48186014600086815260200190815260200160002060009054906101000a900473ffffffffffffffffffffffffffffffffffffffff1682604051808373ffffffffffffffffffffffffffffffffffffffff1673ffffffffffffffffffffffffffffffffffffffff1681526020018260ff1660ff1681526020019250505060405180910390a150505b5050565b614b19848484613e6b565b614b2584848484615213565b614b7a576040517f08c379a0000000000000000000000000000000000000000000000000000000008152600401808060200182810382526032815260200180615d266032913960400191505060405180910390fd5b50505050565b8360118681548110614b8e57fe5b906000526020600020906004020160030160018282829054906101000a900461ffff160192506101000a81548161ffff021916908361ffff1602179055508260118681548110614bda57fe5b906000526020600020906004020160030160038282829054906101000a900461ffff160192506101000a81548161ffff021916908361ffff1602179055508160118681548110614c2657fe5b9060005260206000209060040201600301600d8282829054906101000a900461ffff160192506101000a81548161ffff021916908361ffff1602179055508060118681548110614c7257fe5b9060005260206000209060040201600301600f8282829054906101000a900461ffff160192506101000a81548161ffff021916908361ffff1602179055505050505050565b60606000821415614cff576040518060400160405280600181526020017f30000000000000000000000000000000000000000000000000000000000000008152509050614df9565b600082905060005b60008214614d29578080600101915050600a8281614d2157fe5b049150614d07565b60608167ffffffffffffffff81118015614d4257600080fd5b506040519080825280601f01601f191660200182016040528015614d755781602001600182028036833780820191505090505b50905060006001830390508593505b60008414614df157600a8481614d9657fe5b0660300160f81b82828060019003935081518110614db057fe5b60200101907effffffffffffffffffffffffffffffffffffffffffffffffffffffffffffff1916908160001a905350600a8481614de957fe5b049350614d84565b819450505050505b919050565b6000614e10836000018360001b615458565b905092915050565b600081600001805490509050919050565b505050565b6000614e40836000018360001b61547b565b905092915050565b6000614e5a836000018360001b615563565b905092915050565b6000614e8e846000018460001b8473ffffffffffffffffffffffffffffffffffffffff1660001b6155d3565b90509392505050565b600084848484604051602001808581526020018481526020018373ffffffffffffffffffffffffffffffffffffffff1673ffffffffffffffffffffffffffffffffffffffff1681526020018281526020019450505050506040516020818303038152906040528051906020012060001c9050949350505050565b600080828401905083811015614f8f576040517f08c379a000000000000000000000000000000000000000000000000000000000815260040180806020018281038252601b8152602001807f536166654d6174683a206164646974696f6e206f766572666c6f77000000000081525060200191505060405180910390fd5b8091505092915050565b60008282604051602001808381526020018281526020019250505060405160208183030381529060405280519060200120905092915050565b600081836000018054905011615033576040517f08c379a0000000000000000000000000000000000000000000000000000000008152600401808060200182810382526022815260200180615d046022913960400191505060405180910390fd5b82600001828154811061504257fe5b9060005260206000200154905092915050565b600080828460000180549050116150b7576040517f08c379a0000000000000000000000000000000000000000000000000000000008152600401808060200182810382526022815260200180615e846022913960400191505060405180910390fd5b60008460000184815481106150c857fe5b906000526020600020906002020190508060000154816001015492509250509250929050565b600080846001016000858152602001908152602001600020549050600081141583906151b5576040517f08c379a00000000000000000000000000000000000000000000000000000000081526004018080602001828103825283818151815260200191508051906020019080838360005b8381101561517a57808201518184015260208101905061515f565b50505050905090810190601f1680156151a75780820380516001836020036101000a031916815260200191505b509250505060405180910390fd5b508460000160018203815481106151c857fe5b9060005260206000209060020201600101549150509392505050565b600081600001805490509050919050565b61520f8282604051806020016040528060008152506156af565b5050565b60006152348473ffffffffffffffffffffffffffffffffffffffff16615720565b6152415760019050615450565b60606153d763150b7a0260e01b615256613ca1565b888787604051602401808573ffffffffffffffffffffffffffffffffffffffff1673ffffffffffffffffffffffffffffffffffffffff1681526020018473ffffffffffffffffffffffffffffffffffffffff1673ffffffffffffffffffffffffffffffffffffffff16815260200183815260200180602001828103825283818151815260200191508051906020019080838360005b838110156153065780820151818401526020810190506152eb565b50505050905090810190601f1680156153335780820380516001836020036101000a031916815260200191505b5095505050505050604051602081830303815290604052907bffffffffffffffffffffffffffffffffffffffffffffffffffffffff19166020820180517bffffffffffffffffffffffffffffffffffffffffffffffffffffffff8381831617835250505050604051806060016040528060328152602001615d26603291398773ffffffffffffffffffffffffffffffffffffffff166157339092919063ffffffff16565b905060008180602001905160208110156153f057600080fd5b8101908080519060200190929190505050905063150b7a0260e01b7bffffffffffffffffffffffffffffffffffffffffffffffffffffffff1916817bffffffffffffffffffffffffffffffffffffffffffffffffffffffff191614925050505b949350505050565b600080836001016000848152602001908152602001600020541415905092915050565b6000808360010160008481526020019081526020016000205490506000811461555757600060018203905060006001866000018054905003905060008660000182815481106154c657fe5b90600052602060002001549050808760000184815481106154e357fe5b906000526020600020018190555060018301876001016000838152602001908152602001600020819055508660000180548061551b57fe5b6001900381819060005260206000200160009055905586600101600087815260200190815260200160002060009055600194505050505061555d565b60009150505b92915050565b600061556f838361574b565b6155c85782600001829080600181540180825580915050600190039060005260206000200160009091909190915055826000018054905083600101600084815260200190815260200160002081905550600190506155cd565b600090505b92915050565b600080846001016000858152602001908152602001600020549050600081141561567a578460000160405180604001604052808681526020018581525090806001815401808255809150506001900390600052602060002090600202016000909190919091506000820151816000015560208201518160010155505084600001805490508560010160008681526020019081526020016000208190555060019150506156a8565b8285600001600183038154811061568d57fe5b90600052602060002090600202016001018190555060009150505b9392505050565b6156b9838361576e565b6156c66000848484615213565b61571b576040517f08c379a0000000000000000000000000000000000000000000000000000000008152600401808060200182810382526032815260200180615d266032913960400191505060405180910390fd5b505050565b600080823b905060008111915050919050565b60606157428484600085615962565b90509392505050565b600080836001016000848152602001908152602001600020541415905092915050565b600073ffffffffffffffffffffffffffffffffffffffff168273ffffffffffffffffffffffffffffffffffffffff161415615811576040517f08c379a00000000000000000000000000000000000000000000000000000000081526004018080602001828103825260208152602001807f4552433732313a206d696e7420746f20746865207a65726f206164647265737381525060200191505060405180910390fd5b61581a81613c84565b1561588d576040517f08c379a000000000000000000000000000000000000000000000000000000000815260040180806020018281038252601c8152602001807f4552433732313a20746f6b656e20616c7265616479206d696e7465640000000081525060200191505060405180910390fd5b61589960008383614e29565b6158ea81600260008573ffffffffffffffffffffffffffffffffffffffff1673ffffffffffffffffffffffffffffffffffffffff168152602001908152602001600020614e4890919063ffffffff16565b5061590181836003614e629092919063ffffffff16565b50808273ffffffffffffffffffffffffffffffffffffffff16600073ffffffffffffffffffffffffffffffffffffffff167fddf252ad1be2c89b69c2b068fc378daa952ba7f163c4a11628f55a4df523b3ef60405160405180910390a45050565b6060824710156159bd576040517f08c379a0000000000000000000000000000000000000000000000000000000008152600401808060200182810382526026815260200180615da76026913960400191505060405180910390fd5b6159c685615720565b615a38576040517f08c379a000000000000000000000000000000000000000000000000000000000815260040180806020018281038252601d8152602001807f416464726573733a2063616c6c20746f206e6f6e2d636f6e747261637400000081525060200191505060405180910390fd5b600060608673ffffffffffffffffffffffffffffffffffffffff1685876040518082805190602001908083835b60208310615a885780518252602082019150602081019050602083039250615a65565b6001836020036101000a03801982511681845116808217855250505050505090500191505060006040518083038185875af1925050503d8060008114615aea576040519150601f19603f3d011682016040523d82523d6000602084013e615aef565b606091505b5091509150615aff828286615b0b565b92505050949350505050565b60608315615b1b57829050615bd0565b600083511115615b2e5782518084602001fd5b816040517f08c379a00000000000000000000000000000000000000000000000000000000081526004018080602001828103825283818151815260200191508051906020019080838360005b83811015615b95578082015181840152602081019050615b7a565b50505050905090810190601f168015615bc25780820380516001836020036101000a031916815260200191505b509250505060405180910390fd5b9392505050565b60405180610180016040528060008152602001600060ff16815260200160608152602001600060ff168152602001600061ffff168152602001600061ffff168152602001600061ffff168152602001600061ffff168152602001600061ffff168152602001600061ffff168152602001600061ffff168152602001600061ffff1681525090565b828054600181600116156101000203166002900490600052602060002090601f016020900481019282601f10615c9f57805160ff1916838001178555615ccd565b82800160010185558215615ccd579182015b82811115615ccc578251825591602001919060010190615cb1565b5b509050615cda9190615cde565b5090565b615d0091905b80821115615cfc576000816000905550600101615ce4565b5090565b9056fe456e756d657261626c655365743a20696e646578206f7574206f6620626f756e64734552433732313a207472616e7366657220746f206e6f6e20455243373231526563656976657220696d706c656d656e7465724552433732313a207472616e7366657220746f20746865207a65726f20616464726573734e6f7420656e6f756768204c494e4b202d2066696c6c20636f6e7472616374207769746820666175636574416464726573733a20696e73756666696369656e742062616c616e636520666f722063616c6c4552433732313a206f70657261746f7220717565727920666f72206e6f6e6578697374656e7420746f6b656e4552433732313a20617070726f76652063616c6c6572206973206e6f74206f776e6572206e6f7220617070726f76656420666f7220616c6c4552433732313a2062616c616e636520717565727920666f7220746865207a65726f20616464726573734552433732313a206f776e657220717565727920666f72206e6f6e6578697374656e7420746f6b656e456e756d657261626c654d61703a20696e646578206f7574206f6620626f756e64734552433732313a20617070726f76656420717565727920666f72206e6f6e6578697374656e7420746f6b656e4552433732313a207472616e73666572206f6620746f6b656e2074686174206973206e6f74206f776e4552433732314d657461646174613a2055524920717565727920666f72206e6f6e6578697374656e7420746f6b656e4552433732313a20617070726f76616c20746f2063757272656e74206f776e65724f6e6c79206f776e6572206f66204e46542063616e20646f2074686973206f7065726174696f6e4552433732313a207472616e736665722063616c6c6572206973206e6f74206f776e6572206e6f7220617070726f766564a2646970667358221220cb39eb56c31b507e6fdac00b0c85439fd498ed7c54ac615cbabd901bbdbb369364736f6c63430006060033",
  "immutableReferences": {
    "1222": [
      {
        "length": 32,
        "start": 7622
      },
      {
        "length": 32,
        "start": 9607
      },
      {
        "length": 32,
        "start": 9668
      },
      {
        "length": 32,
        "start": 13977
      },
      {
        "length": 32,
        "start": 16562
      }
    ],
    "1224": [
      {
        "length": 32,
        "start": 10164
      },
      {
        "length": 32,
        "start": 16622
      }
    ]
  },
  "source": "pragma solidity '0.6.6';\r\n\r\nimport '@chainlink/contracts/src/v0.6/VRFConsumerBase.sol';// Random number\r\nimport '@openzeppelin/contracts/token/ERC721/ERC721.sol';// ERC721 \r\n\r\ncontract Dota is VRFConsumerBase, ERC721 {\r\n    \r\n    uint256 Id; // Token_Id for NFT\r\n    \r\n    address owner; // contract owner\r\n\r\n    uint256 internal fee; //fee in LINK for chainlink\r\n    bytes32 internal keyHash;   \r\n\r\n    address VRFCoordinator;\r\n    address LinkToken;\r\n\r\n    // Structure Hero for creating heros\r\n    struct Hero{\r\n        uint256 tokenId;\r\n        uint8 heroCode;\r\n        string name;\r\n        uint8 level;\r\n        uint16 damage;\r\n        uint16 armor;\r\n        uint16 strength;\r\n        uint16 agility;\r\n        uint16 intelligence;\r\n        uint16 hitPoints;\r\n        uint16 mana;\r\n        uint16 movementSpeed;\r\n    }   \r\n    Hero[] heros; // array of heros\r\n\r\n    // Structure Item for creating items\r\n    struct Item{\r\n        uint256 tokenId;\r\n        uint8 itemCode;\r\n    }\r\n    Item[] items;// array of items\r\n    \r\n    mapping(bytes32 => string) requestToName;\r\n    mapping(bytes32 => address) requestToSender;\r\n    mapping(address => uint256[]) ownerToHeros; // mapping for owners to their heros\r\n    mapping(address => uint256[]) ownerToItems; // mapping for owners to their items\r\n    mapping(bytes32 => uint8) requestFor; // mapping for which request is made for item or hero\r\n    mapping(uint256 => uint256[]) heroToItems; // mapping for hero to infused items\r\n    mapping(uint256 => bool) equippedItems; //check if items is equiped or not\r\n\r\n    // Modifiers Start\r\n    modifier existingItem(uint256 _id){\r\n        require(_id >= 0 && _id < items.length, \"Item does not exists.\");\r\n        _;\r\n    }\r\n\r\n    modifier existingHero(uint256 _id){\r\n        require(_id >= 0 && _id < heros.length, \"Hero does not exists.\");\r\n        _;\r\n    }\r\n\r\n    modifier heroOwnerOnly(uint256 _id){\r\n        require(msg.sender == ownerOf(heros[_id].tokenId), \"Only owner of NFT can do this operation\");\r\n        _;\r\n    }\r\n\r\n     modifier itemOwnerOnly(uint256 _id){\r\n        require(msg.sender == ownerOf(items[_id].tokenId), \"Only owner of NFT can do this operation\");\r\n        _;\r\n    }\r\n\r\n    // Modifiers End\r\n    \r\n    // Events Start\r\n    event HeroCreated(address _owner, uint8 _code, uint16 _strength, uint16 _agility, uint16 _intelligence, uint16 _damage); // emit event when hero is created.\r\n\r\n    event ItemCreated(address _owner, uint8 _code); // emit event when item is created.\r\n\r\n    event heroLeveledUp(uint256 _tokenId, uint256 _heroId,uint8 _level); // emit event when hero i leveled up\r\n    // Events End\r\n    \r\n    constructor(address _VRFCoordinator, address _LinkToken, bytes32 _keyHash) public\r\n    VRFConsumerBase(_VRFCoordinator, _LinkToken)\r\n    ERC721(\"DefenceOfTheAncients\", \"DOTA\")\r\n    {\r\n        VRFCoordinator = _VRFCoordinator;\r\n        LinkToken = _LinkToken;\r\n        keyHash = _keyHash;\r\n        fee = 0.1 * 10**18; // 0.1 LINK\r\n        owner = msg.sender;\r\n    }\r\n\r\n    function requestHero(uint256 _seed, string memory _name)\r\n    public\r\n    payable\r\n    returns(bytes32) { // function to create random hero\r\n        require(LINK.balanceOf(address(this)) >= fee, \"Not enough LINK - fill contract with faucet\" );\r\n        bytes32 requestId = requestRandomness(keyHash, fee, _seed);\r\n        requestToName[requestId] = _name;\r\n        requestToSender[requestId] = msg.sender;\r\n        requestFor[requestId] = 0;\r\n        return(requestId);\r\n    }\r\n\r\n    function requestItem(uint256 _seed)\r\n    public\r\n    payable\r\n    returns(bytes32) { //function to create random item\r\n        require(LINK.balanceOf(address(this)) >= fee, \"Not enough LINK - fill contract with faucet\" );\r\n        bytes32 requestId = requestRandomness(keyHash, fee, _seed);\r\n        requestToSender[requestId] = msg.sender;\r\n        requestFor[requestId] = 1;\r\n        return(requestId);\r\n    }\r\n\r\n    function fulfillRandomness(bytes32 requestId, uint256 randomNumber)\r\n    internal\r\n    override { // fulfilling the callback function\r\n        Id++; // increment token before minting so no NFT '0'   \r\n        if(requestFor[requestId] == 0){\r\n            uint16 strength = uint16((randomNumber / 10000) % 25);\r\n            uint16 intelligence = uint16((randomNumber / 10000000) % 25);\r\n            uint16 agility = uint16((randomNumber / 1000) % 25);   \r\n            uint16 hitPoints = uint16(200 + strength * 20);\r\n            uint16 mana = uint16(75 + intelligence * 11);\r\n            uint16 damage = uint16(randomNumber % 30);\r\n            uint256 newId = heros.length;\r\n            uint8 heroCode = uint8(randomNumber % 12 + 1); // there are total 12 heros\r\n            if(heroCode < 5){\r\n                damage += strength;\r\n            }else if(heroCode < 9){\r\n                damage += agility;\r\n            }else{\r\n                damage += intelligence;\r\n            }\r\n            \r\n            heros.push(\r\n                Hero(\r\n                    Id, // tokenId\r\n                    heroCode,\r\n                    requestToName[requestId],// name\r\n                    0, // level\r\n                    damage,\r\n                    uint16(randomNumber % 5), //armor\r\n                    strength, \r\n                    agility,\r\n                    intelligence,\r\n                    hitPoints,\r\n                    mana,\r\n                    uint16(200 + (randomNumber / 100000000000) % 100) // movementSpeed\r\n                )   \r\n            );\r\n            \r\n            _safeMint(requestToSender[requestId], Id);\r\n            ownerToHeros[requestToSender[requestId]].push(newId); //push array index in owned heros\r\n            emit HeroCreated(requestToSender[requestId], heroCode, strength, agility, intelligence, damage);\r\n        }else{\r\n            uint256 newId = items.length;\r\n            uint8 itemCode = uint8(randomNumber % 24 + 1); // there are total 24 items\r\n            items.push(\r\n            Item(\r\n                Id, // tokenId\r\n                itemCode\r\n            )   \r\n            );\r\n\r\n            _safeMint(requestToSender[requestId], Id);\r\n            ownerToItems[requestToSender[requestId]].push(newId); // push array index in owned items.\r\n            emit ItemCreated(requestToSender[requestId], itemCode);\r\n        }\r\n       \r\n    }\r\n\r\n    function getHeroFirstHalf(uint256 _id) // returns half datea of hero\r\n    public\r\n    view\r\n    existingHero(_id)\r\n    returns(uint8, string memory, uint8, uint16, uint16, uint16){\r\n        Hero memory hero = heros[_id];\r\n        return(hero.heroCode, hero.name, hero.level,hero.damage, hero.strength, hero.agility);\r\n    }\r\n\r\n    function getHeroSecondHalf(uint256 _id) // returns remailning data of hero\r\n    public\r\n    view\r\n    existingHero(_id)\r\n    returns(uint16, uint16, uint16, uint16, uint16, uint256){\r\n        Hero memory hero = heros[_id];\r\n        return(hero.intelligence, hero.hitPoints, hero.mana, hero.movementSpeed, hero.armor, hero.tokenId);\r\n    }\r\n\r\n    function getItem(uint256 _id) // get item of perticular index form items array\r\n    public\r\n    view\r\n    existingItem(_id)\r\n    returns(uint8, uint256){\r\n        return(items[_id].itemCode, items[_id].tokenId);\r\n    }\r\n\r\n    function levelUp(uint256 _id) //function to level up hero add 1 level and 2 to each attrinute\r\n    public\r\n    payable\r\n    existingHero(_id){\r\n        require(heros[_id].level <= 30, \"You are At Max level\");\r\n        heros[_id].level += 1;\r\n        heros[_id].strength += 2;\r\n        heros[_id].agility += 2;\r\n        heros[_id].intelligence += 2;\r\n        heros[_id].hitPoints += 40;\r\n        heros[_id].mana += 22;\r\n        heros[_id].armor += 1;\r\n        heros[_id].damage += 2;\r\n\r\n        emit heroLeveledUp(heros[_id].tokenId, _id, heros[_id].level);\r\n    }\r\n\r\n    function withdrawLink() // withdraw link from contract\r\n    external{\r\n        require(msg.sender == owner, \"Only Owner can withdraw LINKs.\");\r\n        require(LINK.transfer(msg.sender, LINK.balanceOf(address(this))), \"Unable to transfer\");\r\n    }\r\n\r\n    function getHeroOwner(uint256 _id)\r\n    public\r\n    view\r\n    existingHero(_id)\r\n    returns(address){\r\n        return(ownerOf(heros[_id].tokenId));\r\n    }\r\n\r\n    function getItemOwner(uint256 _id)\r\n    public\r\n    view\r\n    existingItem(_id)\r\n    returns(address){\r\n        return(ownerOf(items[_id].tokenId));\r\n    }\r\n\r\n    function getNFTCount(address _account)// return the total number of nfts owned by user\r\n    public\r\n    view\r\n    returns(uint256){\r\n        return balanceOf(_account);\r\n    }\r\n\r\n    function getHeroCount()// return total numbers of heros\r\n    public\r\n    view\r\n    returns (uint256){\r\n        return heros.length;\r\n    }\r\n\r\n    function getItemCount()// returns the total number of items\r\n    public\r\n    view\r\n    returns (uint256){\r\n        return items.length;\r\n    }\r\n\r\n    function getHeroNFTs(address _account) // returns the index of heros from array heros owned by user\r\n    public\r\n    view\r\n    returns(uint256[] memory){\r\n        return ownerToHeros[_account];\r\n    }\r\n\r\n    function getItemNFTs(address _account) // returns the index of items from array items owned by user\r\n    public\r\n    view\r\n    returns(uint256[] memory){\r\n        return ownerToItems[_account];\r\n    }\r\n\r\n    function equipItem(uint256 _heroId, uint256 _itemId,uint16 _strength, uint16 _agility, uint16 _intelligence, uint16 _damage, uint16 _armor, uint16 _mana, uint16 _movementSpeed)\r\n    public\r\n    payable\r\n    existingHero(_heroId)\r\n    existingItem(_itemId)\r\n    heroOwnerOnly(_heroId)\r\n    itemOwnerOnly(_itemId){\r\n        require(heroToItems[_heroId].length < 7, \"Maximum 6 items can be infused\");\r\n        require(equippedItems[_itemId] == false, \"Item is already equipped.\");\r\n        heros[_heroId].strength += _strength;\r\n        heros[_heroId].agility += _agility;\r\n        heros[_heroId].intelligence += _intelligence;\r\n        heros[_heroId].hitPoints += (_strength * 20);\r\n        heros[_heroId].mana += (_intelligence * 11);\r\n        updateRest(_heroId, _damage, _armor, _mana, _movementSpeed);\r\n        heroToItems[_heroId].push(_itemId); // add the item id in items of hero mapping.\r\n        equippedItems[_itemId] = true;\r\n    }\r\n\r\n    function updateRest(uint256 _heroId, uint16 _damage, uint16 _armor, uint16 _mana, uint16 _movementSpeed)\r\n    internal{\r\n                heros[_heroId].damage += _damage;\r\n        heros[_heroId].armor += _armor;\r\n        heros[_heroId].mana += _mana;\r\n        heros[_heroId].movementSpeed += _movementSpeed;\r\n    }\r\n\r\n    function getEquippedItems(uint256 _id)\r\n    public\r\n    view\r\n    existingHero(_id)\r\n    returns(uint256[] memory, uint8[] memory){\r\n        uint256[] memory item = heroToItems[_id];\r\n        uint256[] memory ids = new uint256[](item.length);\r\n        uint8[] memory codes = new uint8[](item.length);\r\n        for(uint8 i=0;i<item.length;i++){\r\n            ids[i] = item[i];\r\n            codes[i] = items[item[i]].itemCode;\r\n        }\r\n\r\n        return (ids, codes);\r\n    }\r\n\r\n    function withdraw()\r\n    public{\r\n        require(owner == msg.sender, \"Only Owner.\");\r\n        msg.sender.transfer(address(this).balance);\r\n    }\r\n}",
  "sourcePath": "D:/Blockchain/chainlink Hackethone/dota-nft/contracts/Dota.sol",
  "compiler": {
    "name": "solc",
    "version": "0.6.6+commit.6c089d02.Emscripten.clang"
  },
  "schemaVersion": "3.3.4",
  "updatedAt": "2021-04-10T19:29:57.089Z",
  "networkType": "ethereum",
  "devdoc": {
    "methods": {
      "approve(address,uint256)": {
        "details": "See {IERC721-approve}."
      },
      "balanceOf(address)": {
        "details": "See {IERC721-balanceOf}."
      },
      "baseURI()": {
        "details": "Returns the base URI set via {_setBaseURI}. This will be automatically added as a prefix in {tokenURI} to each token's URI, or to the token ID if no specific URI is set for that token ID."
      },
      "getApproved(uint256)": {
        "details": "See {IERC721-getApproved}."
      },
      "isApprovedForAll(address,address)": {
        "details": "See {IERC721-isApprovedForAll}."
      },
      "name()": {
        "details": "See {IERC721Metadata-name}."
      },
      "ownerOf(uint256)": {
        "details": "See {IERC721-ownerOf}."
      },
      "safeTransferFrom(address,address,uint256)": {
        "details": "See {IERC721-safeTransferFrom}."
      },
      "safeTransferFrom(address,address,uint256,bytes)": {
        "details": "See {IERC721-safeTransferFrom}."
      },
      "setApprovalForAll(address,bool)": {
        "details": "See {IERC721-setApprovalForAll}."
      },
      "supportsInterface(bytes4)": {
        "details": "See {IERC165-supportsInterface}.     * Time complexity O(1), guaranteed to always use less than 30 000 gas."
      },
      "symbol()": {
        "details": "See {IERC721Metadata-symbol}."
      },
      "tokenByIndex(uint256)": {
        "details": "See {IERC721Enumerable-tokenByIndex}."
      },
      "tokenOfOwnerByIndex(address,uint256)": {
        "details": "See {IERC721Enumerable-tokenOfOwnerByIndex}."
      },
      "tokenURI(uint256)": {
        "details": "See {IERC721Metadata-tokenURI}."
      },
      "totalSupply()": {
        "details": "See {IERC721Enumerable-totalSupply}."
      },
      "transferFrom(address,address,uint256)": {
        "details": "See {IERC721-transferFrom}."
      }
    }
  },
  "userdoc": {
    "methods": {}
  }
}