{
  "contractName": "Dota",
  "abi": [
    {
      "inputs": [
        {
          "internalType": "address",
          "name": "_VRFCoordinator",
          "type": "address"
        },
        {
          "internalType": "address",
          "name": "_LinkToken",
          "type": "address"
        },
        {
          "internalType": "bytes32",
          "name": "_keyHash",
          "type": "bytes32"
        }
      ],
      "stateMutability": "nonpayable",
      "type": "constructor"
    },
    {
      "anonymous": false,
      "inputs": [
        {
          "indexed": true,
          "internalType": "address",
          "name": "owner",
          "type": "address"
        },
        {
          "indexed": true,
          "internalType": "address",
          "name": "approved",
          "type": "address"
        },
        {
          "indexed": true,
          "internalType": "uint256",
          "name": "tokenId",
          "type": "uint256"
        }
      ],
      "name": "Approval",
      "type": "event"
    },
    {
      "anonymous": false,
      "inputs": [
        {
          "indexed": true,
          "internalType": "address",
          "name": "owner",
          "type": "address"
        },
        {
          "indexed": true,
          "internalType": "address",
          "name": "operator",
          "type": "address"
        },
        {
          "indexed": false,
          "internalType": "bool",
          "name": "approved",
          "type": "bool"
        }
      ],
      "name": "ApprovalForAll",
      "type": "event"
    },
    {
      "anonymous": false,
      "inputs": [
        {
          "indexed": true,
          "internalType": "address",
          "name": "from",
          "type": "address"
        },
        {
          "indexed": true,
          "internalType": "address",
          "name": "to",
          "type": "address"
        },
        {
          "indexed": true,
          "internalType": "uint256",
          "name": "tokenId",
          "type": "uint256"
        }
      ],
      "name": "Transfer",
      "type": "event"
    },
    {
      "inputs": [
        {
          "internalType": "address",
          "name": "to",
          "type": "address"
        },
        {
          "internalType": "uint256",
          "name": "tokenId",
          "type": "uint256"
        }
      ],
      "name": "approve",
      "outputs": [],
      "stateMutability": "nonpayable",
      "type": "function"
    },
    {
      "inputs": [
        {
          "internalType": "address",
          "name": "owner",
          "type": "address"
        }
      ],
      "name": "balanceOf",
      "outputs": [
        {
          "internalType": "uint256",
          "name": "",
          "type": "uint256"
        }
      ],
      "stateMutability": "view",
      "type": "function",
      "constant": true
    },
    {
      "inputs": [],
      "name": "baseURI",
      "outputs": [
        {
          "internalType": "string",
          "name": "",
          "type": "string"
        }
      ],
      "stateMutability": "view",
      "type": "function",
      "constant": true
    },
    {
      "inputs": [
        {
          "internalType": "uint256",
          "name": "tokenId",
          "type": "uint256"
        }
      ],
      "name": "getApproved",
      "outputs": [
        {
          "internalType": "address",
          "name": "",
          "type": "address"
        }
      ],
      "stateMutability": "view",
      "type": "function",
      "constant": true
    },
    {
      "inputs": [
        {
          "internalType": "address",
          "name": "owner",
          "type": "address"
        },
        {
          "internalType": "address",
          "name": "operator",
          "type": "address"
        }
      ],
      "name": "isApprovedForAll",
      "outputs": [
        {
          "internalType": "bool",
          "name": "",
          "type": "bool"
        }
      ],
      "stateMutability": "view",
      "type": "function",
      "constant": true
    },
    {
      "inputs": [],
      "name": "name",
      "outputs": [
        {
          "internalType": "string",
          "name": "",
          "type": "string"
        }
      ],
      "stateMutability": "view",
      "type": "function",
      "constant": true
    },
    {
      "inputs": [
        {
          "internalType": "uint256",
          "name": "tokenId",
          "type": "uint256"
        }
      ],
      "name": "ownerOf",
      "outputs": [
        {
          "internalType": "address",
          "name": "",
          "type": "address"
        }
      ],
      "stateMutability": "view",
      "type": "function",
      "constant": true
    },
    {
      "inputs": [
        {
          "internalType": "bytes32",
          "name": "requestId",
          "type": "bytes32"
        },
        {
          "internalType": "uint256",
          "name": "randomness",
          "type": "uint256"
        }
      ],
      "name": "rawFulfillRandomness",
      "outputs": [],
      "stateMutability": "nonpayable",
      "type": "function"
    },
    {
      "inputs": [
        {
          "internalType": "address",
          "name": "from",
          "type": "address"
        },
        {
          "internalType": "address",
          "name": "to",
          "type": "address"
        },
        {
          "internalType": "uint256",
          "name": "tokenId",
          "type": "uint256"
        }
      ],
      "name": "safeTransferFrom",
      "outputs": [],
      "stateMutability": "nonpayable",
      "type": "function"
    },
    {
      "inputs": [
        {
          "internalType": "address",
          "name": "from",
          "type": "address"
        },
        {
          "internalType": "address",
          "name": "to",
          "type": "address"
        },
        {
          "internalType": "uint256",
          "name": "tokenId",
          "type": "uint256"
        },
        {
          "internalType": "bytes",
          "name": "_data",
          "type": "bytes"
        }
      ],
      "name": "safeTransferFrom",
      "outputs": [],
      "stateMutability": "nonpayable",
      "type": "function"
    },
    {
      "inputs": [
        {
          "internalType": "address",
          "name": "operator",
          "type": "address"
        },
        {
          "internalType": "bool",
          "name": "approved",
          "type": "bool"
        }
      ],
      "name": "setApprovalForAll",
      "outputs": [],
      "stateMutability": "nonpayable",
      "type": "function"
    },
    {
      "inputs": [
        {
          "internalType": "bytes4",
          "name": "interfaceId",
          "type": "bytes4"
        }
      ],
      "name": "supportsInterface",
      "outputs": [
        {
          "internalType": "bool",
          "name": "",
          "type": "bool"
        }
      ],
      "stateMutability": "view",
      "type": "function",
      "constant": true
    },
    {
      "inputs": [],
      "name": "symbol",
      "outputs": [
        {
          "internalType": "string",
          "name": "",
          "type": "string"
        }
      ],
      "stateMutability": "view",
      "type": "function",
      "constant": true
    },
    {
      "inputs": [
        {
          "internalType": "uint256",
          "name": "index",
          "type": "uint256"
        }
      ],
      "name": "tokenByIndex",
      "outputs": [
        {
          "internalType": "uint256",
          "name": "",
          "type": "uint256"
        }
      ],
      "stateMutability": "view",
      "type": "function",
      "constant": true
    },
    {
      "inputs": [
        {
          "internalType": "address",
          "name": "owner",
          "type": "address"
        },
        {
          "internalType": "uint256",
          "name": "index",
          "type": "uint256"
        }
      ],
      "name": "tokenOfOwnerByIndex",
      "outputs": [
        {
          "internalType": "uint256",
          "name": "",
          "type": "uint256"
        }
      ],
      "stateMutability": "view",
      "type": "function",
      "constant": true
    },
    {
      "inputs": [
        {
          "internalType": "uint256",
          "name": "tokenId",
          "type": "uint256"
        }
      ],
      "name": "tokenURI",
      "outputs": [
        {
          "internalType": "string",
          "name": "",
          "type": "string"
        }
      ],
      "stateMutability": "view",
      "type": "function",
      "constant": true
    },
    {
      "inputs": [],
      "name": "totalSupply",
      "outputs": [
        {
          "internalType": "uint256",
          "name": "",
          "type": "uint256"
        }
      ],
      "stateMutability": "view",
      "type": "function",
      "constant": true
    },
    {
      "inputs": [
        {
          "internalType": "address",
          "name": "from",
          "type": "address"
        },
        {
          "internalType": "address",
          "name": "to",
          "type": "address"
        },
        {
          "internalType": "uint256",
          "name": "tokenId",
          "type": "uint256"
        }
      ],
      "name": "transferFrom",
      "outputs": [],
      "stateMutability": "nonpayable",
      "type": "function"
    },
    {
      "inputs": [
        {
          "internalType": "uint256",
          "name": "_seed",
          "type": "uint256"
        },
        {
          "internalType": "string",
          "name": "_name",
          "type": "string"
        }
      ],
      "name": "requestHero",
      "outputs": [
        {
          "internalType": "bytes32",
          "name": "",
          "type": "bytes32"
        }
      ],
      "stateMutability": "nonpayable",
      "type": "function"
    },
    {
      "inputs": [
        {
          "internalType": "uint256",
          "name": "_seed",
          "type": "uint256"
        }
      ],
      "name": "requestItem",
      "outputs": [
        {
          "internalType": "bytes32",
          "name": "",
          "type": "bytes32"
        }
      ],
      "stateMutability": "nonpayable",
      "type": "function"
    },
    {
      "inputs": [
        {
          "internalType": "uint256",
          "name": "_id",
          "type": "uint256"
        }
      ],
      "name": "getHeroFirstHalf",
      "outputs": [
        {
          "internalType": "uint8",
          "name": "",
          "type": "uint8"
        },
        {
          "internalType": "string",
          "name": "",
          "type": "string"
        },
        {
          "internalType": "uint8",
          "name": "",
          "type": "uint8"
        },
        {
          "internalType": "uint16",
          "name": "",
          "type": "uint16"
        },
        {
          "internalType": "uint16",
          "name": "",
          "type": "uint16"
        },
        {
          "internalType": "uint16",
          "name": "",
          "type": "uint16"
        }
      ],
      "stateMutability": "view",
      "type": "function",
      "constant": true
    },
    {
      "inputs": [
        {
          "internalType": "uint256",
          "name": "_id",
          "type": "uint256"
        }
      ],
      "name": "getHeroSecondHalf",
      "outputs": [
        {
          "internalType": "uint16",
          "name": "",
          "type": "uint16"
        },
        {
          "internalType": "uint16",
          "name": "",
          "type": "uint16"
        },
        {
          "internalType": "uint16",
          "name": "",
          "type": "uint16"
        },
        {
          "internalType": "uint16",
          "name": "",
          "type": "uint16"
        },
        {
          "internalType": "uint16",
          "name": "",
          "type": "uint16"
        },
        {
          "internalType": "uint256",
          "name": "",
          "type": "uint256"
        }
      ],
      "stateMutability": "view",
      "type": "function",
      "constant": true
    },
    {
      "inputs": [
        {
          "internalType": "uint256",
          "name": "_id",
          "type": "uint256"
        }
      ],
      "name": "getItem",
      "outputs": [
        {
          "internalType": "uint8",
          "name": "",
          "type": "uint8"
        },
        {
          "internalType": "uint256",
          "name": "",
          "type": "uint256"
        }
      ],
      "stateMutability": "view",
      "type": "function",
      "constant": true
    },
    {
      "inputs": [
        {
          "internalType": "uint256",
          "name": "_id",
          "type": "uint256"
        }
      ],
      "name": "levelUp",
      "outputs": [],
      "stateMutability": "nonpayable",
      "type": "function"
    },
    {
      "inputs": [],
      "name": "withdrawLink",
      "outputs": [],
      "stateMutability": "nonpayable",
      "type": "function"
    },
    {
      "inputs": [],
      "name": "linkBalance",
      "outputs": [
        {
          "internalType": "uint256",
          "name": "",
          "type": "uint256"
        }
      ],
      "stateMutability": "view",
      "type": "function",
      "constant": true
    },
    {
      "inputs": [
        {
          "internalType": "uint256",
          "name": "_id",
          "type": "uint256"
        }
      ],
      "name": "getHeroOwner",
      "outputs": [
        {
          "internalType": "address",
          "name": "",
          "type": "address"
        }
      ],
      "stateMutability": "view",
      "type": "function",
      "constant": true
    },
    {
      "inputs": [
        {
          "internalType": "uint256",
          "name": "_id",
          "type": "uint256"
        }
      ],
      "name": "getItemOwner",
      "outputs": [
        {
          "internalType": "address",
          "name": "",
          "type": "address"
        }
      ],
      "stateMutability": "view",
      "type": "function",
      "constant": true
    },
    {
      "inputs": [
        {
          "internalType": "address",
          "name": "_account",
          "type": "address"
        }
      ],
      "name": "getNFTCount",
      "outputs": [
        {
          "internalType": "uint256",
          "name": "",
          "type": "uint256"
        }
      ],
      "stateMutability": "view",
      "type": "function",
      "constant": true
    },
    {
      "inputs": [],
      "name": "getHeroCount",
      "outputs": [
        {
          "internalType": "uint256",
          "name": "",
          "type": "uint256"
        }
      ],
      "stateMutability": "view",
      "type": "function",
      "constant": true
    },
    {
      "inputs": [],
      "name": "getItemCount",
      "outputs": [
        {
          "internalType": "uint256",
          "name": "",
          "type": "uint256"
        }
      ],
      "stateMutability": "view",
      "type": "function",
      "constant": true
    },
    {
      "inputs": [
        {
          "internalType": "address",
          "name": "_account",
          "type": "address"
        }
      ],
      "name": "getHeroNFTs",
      "outputs": [
        {
          "internalType": "uint256[]",
          "name": "",
          "type": "uint256[]"
        }
      ],
      "stateMutability": "view",
      "type": "function",
      "constant": true
    },
    {
      "inputs": [
        {
          "internalType": "address",
          "name": "_account",
          "type": "address"
        }
      ],
      "name": "getItemNFTs",
      "outputs": [
        {
          "internalType": "uint256[]",
          "name": "",
          "type": "uint256[]"
        }
      ],
      "stateMutability": "view",
      "type": "function",
      "constant": true
    },
    {
      "inputs": [
        {
          "internalType": "uint256",
          "name": "_heroId",
          "type": "uint256"
        },
        {
          "internalType": "uint256",
          "name": "_itemId",
          "type": "uint256"
        },
        {
          "internalType": "uint16",
          "name": "_strength",
          "type": "uint16"
        },
        {
          "internalType": "uint16",
          "name": "_agility",
          "type": "uint16"
        },
        {
          "internalType": "uint16",
          "name": "_intelligence",
          "type": "uint16"
        },
        {
          "internalType": "uint16",
          "name": "_damage",
          "type": "uint16"
        },
        {
          "internalType": "uint16",
          "name": "_armor",
          "type": "uint16"
        },
        {
          "internalType": "uint16",
          "name": "_mana",
          "type": "uint16"
        },
        {
          "internalType": "uint16",
          "name": "_movementSpeed",
          "type": "uint16"
        }
      ],
      "name": "equipItem",
      "outputs": [],
      "stateMutability": "nonpayable",
      "type": "function"
    },
    {
      "inputs": [
        {
          "internalType": "uint256",
          "name": "_id",
          "type": "uint256"
        }
      ],
      "name": "getEquippedItems",
      "outputs": [
        {
          "internalType": "uint256[]",
          "name": "",
          "type": "uint256[]"
        },
        {
          "internalType": "uint8[]",
          "name": "",
          "type": "uint8[]"
        }
      ],
      "stateMutability": "view",
      "type": "function",
      "constant": true
    }
  ],
  "bytecode": "0x60c06040523480156200001157600080fd5b50604051620060cb380380620060cb833981810160405260608110156200003757600080fd5b810190808051906020019092919080519060200190929190805190602001909291905050506040518060400160405280601481526020017f446566656e63654f66546865416e6369656e74730000000000000000000000008152506040518060400160405280600481526020017f444f54410000000000000000000000000000000000000000000000000000000081525084848173ffffffffffffffffffffffffffffffffffffffff1660a08173ffffffffffffffffffffffffffffffffffffffff1660601b815250508073ffffffffffffffffffffffffffffffffffffffff1660808173ffffffffffffffffffffffffffffffffffffffff1660601b815250505050620001526301ffc9a760e01b620002b060201b60201c565b81600790805190602001906200016a929190620003b9565b50806008908051906020019062000183929190620003b9565b506200019c6380ac58cd60e01b620002b060201b60201c565b620001b4635b5e139f60e01b620002b060201b60201c565b620001cc63780e9d6360e01b620002b060201b60201c565b505082600f60006101000a81548173ffffffffffffffffffffffffffffffffffffffff021916908373ffffffffffffffffffffffffffffffffffffffff16021790555081601060006101000a81548173ffffffffffffffffffffffffffffffffffffffff021916908373ffffffffffffffffffffffffffffffffffffffff16021790555080600e8190555067016345785d8a0000600d8190555033600c60006101000a81548173ffffffffffffffffffffffffffffffffffffffff021916908373ffffffffffffffffffffffffffffffffffffffff16021790555050505062000468565b63ffffffff60e01b817bffffffffffffffffffffffffffffffffffffffffffffffffffffffff191614156200034d576040517f08c379a000000000000000000000000000000000000000000000000000000000815260040180806020018281038252601c8152602001807f4552433136353a20696e76616c696420696e746572666163652069640000000081525060200191505060405180910390fd5b6001806000837bffffffffffffffffffffffffffffffffffffffffffffffffffffffff19167bffffffffffffffffffffffffffffffffffffffffffffffffffffffff1916815260200190815260200160002060006101000a81548160ff02191690831515021790555050565b828054600181600116156101000203166002900490600052602060002090601f016020900481019282601f10620003fc57805160ff19168380011785556200042d565b828001600101855582156200042d579182015b828111156200042c5782518255916020019190600101906200040f565b5b5090506200043c919062000440565b5090565b6200046591905b808211156200046157600081600090555060010162000447565b5090565b90565b60805160601c60a05160601c615c1b620004b0600039806124a05280613eb9525080611bbe528061227352806122b05280612dd352806134645280613e7d5250615c1b6000f3fe608060405234801561001057600080fd5b50600436106102115760003560e01c806370a0823111610125578063c26ecefa116100ad578063d8faebfb1161007c578063d8faebfb14610e46578063e1cb414814610edf578063e985e9c514610faa578063f41d3f6914611026578063f85d2c941461107e57610211565b8063c26ecefa14610c51578063c810f90b14610c6f578063c87b56dd14610d5d578063d62a488714610e0457610211565b806394985ddd116100f457806394985ddd146109a657806395d89b41146109de578063a22cb46514610a61578063b88d4fde14610ab1578063be38502714610bb657610211565b806370a08231146109085780637749cf2314610960578063775483821461097e5780638dc654a21461099c57610211565b806323b872dd116101a857806342842e0e1161017757806342842e0e146106f95780634f6ccce71461076757806356b4d760146107a95780636352211e146108175780636c0360eb1461088557610211565b806323b872dd146105015780632f255c151461056f5780632f745c59146106485780633129e773146106aa57610211565b80630ce90ec2116101e45780630ce90ec2146103ba57806318160ddd146103e857806318366df0146104065780631d1440fd1461049357610211565b806301ffc9a71461021657806306fdde031461027b578063081812fc146102fe578063095ea7b31461036c575b600080fd5b6102616004803603602081101561022c57600080fd5b8101908080357bffffffffffffffffffffffffffffffffffffffffffffffffffffffff19169060200190929190505050611117565b604051808215151515815260200191505060405180910390f35b61028361117f565b6040518080602001828103825283818151815260200191508051906020019080838360005b838110156102c35780820151818401526020810190506102a8565b50505050905090810190601f1680156102f05780820380516001836020036101000a031916815260200191505b509250505060405180910390f35b61032a6004803603602081101561031457600080fd5b8101908080359060200190929190505050611221565b604051808273ffffffffffffffffffffffffffffffffffffffff1673ffffffffffffffffffffffffffffffffffffffff16815260200191505060405180910390f35b6103b86004803603604081101561038257600080fd5b81019080803573ffffffffffffffffffffffffffffffffffffffff169060200190929190803590602001909291905050506112bc565b005b6103e6600480360360208110156103d057600080fd5b8101908080359060200190929190505050611400565b005b6103f0611796565b6040518082815260200191505060405180910390f35b6104326004803603602081101561041c57600080fd5b81019080803590602001909291905050506117a7565b604051808761ffff1661ffff1681526020018661ffff1661ffff1681526020018561ffff1661ffff1681526020018461ffff1661ffff1681526020018361ffff1661ffff168152602001828152602001965050505050505060405180910390f35b6104bf600480360360208110156104a957600080fd5b8101908080359060200190929190505050611a88565b604051808273ffffffffffffffffffffffffffffffffffffffff1673ffffffffffffffffffffffffffffffffffffffff16815260200191505060405180910390f35b61056d6004803603606081101561051757600080fd5b81019080803573ffffffffffffffffffffffffffffffffffffffff169060200190929190803573ffffffffffffffffffffffffffffffffffffffff16906020019092919080359060200190929190505050611b41565b005b6106326004803603604081101561058557600080fd5b8101908080359060200190929190803590602001906401000000008111156105ac57600080fd5b8201836020820111156105be57600080fd5b803590602001918460018302840111640100000000831117156105e057600080fd5b91908080601f016020809104026020016040519081016040528093929190818152602001838380828437600081840152601f19601f820116905080830192505050505050509192919290505050611bb7565b6040518082815260200191505060405180910390f35b6106946004803603604081101561065e57600080fd5b81019080803573ffffffffffffffffffffffffffffffffffffffff16906020019092919080359060200190929190505050611daf565b6040518082815260200191505060405180910390f35b6106d6600480360360208110156106c057600080fd5b8101908080359060200190929190505050611e0a565b604051808360ff1660ff1681526020018281526020019250505060405180910390f35b6107656004803603606081101561070f57600080fd5b81019080803573ffffffffffffffffffffffffffffffffffffffff169060200190929190803573ffffffffffffffffffffffffffffffffffffffff16906020019092919080359060200190929190505050611eea565b005b6107936004803603602081101561077d57600080fd5b8101908080359060200190929190505050611f0a565b6040518082815260200191505060405180910390f35b6107d5600480360360208110156107bf57600080fd5b8101908080359060200190929190505050611f2d565b604051808273ffffffffffffffffffffffffffffffffffffffff1673ffffffffffffffffffffffffffffffffffffffff16815260200191505060405180910390f35b6108436004803603602081101561082d57600080fd5b8101908080359060200190929190505050611fe6565b604051808273ffffffffffffffffffffffffffffffffffffffff1673ffffffffffffffffffffffffffffffffffffffff16815260200191505060405180910390f35b61088d61201d565b6040518080602001828103825283818151815260200191508051906020019080838360005b838110156108cd5780820151818401526020810190506108b2565b50505050905090810190601f1680156108fa5780820380516001836020036101000a031916815260200191505b509250505060405180910390f35b61094a6004803603602081101561091e57600080fd5b81019080803573ffffffffffffffffffffffffffffffffffffffff1690602001909291905050506120bf565b6040518082815260200191505060405180910390f35b610968612194565b6040518082815260200191505060405180910390f35b6109866121a1565b6040518082815260200191505060405180910390f35b6109a46121ae565b005b6109dc600480360360408110156109bc57600080fd5b81019080803590602001909291908035906020019092919050505061249e565b005b6109e661256d565b6040518080602001828103825283818151815260200191508051906020019080838360005b83811015610a26578082015181840152602081019050610a0b565b50505050905090810190601f168015610a535780820380516001836020036101000a031916815260200191505b509250505060405180910390f35b610aaf60048036036040811015610a7757600080fd5b81019080803573ffffffffffffffffffffffffffffffffffffffff16906020019092919080351515906020019092919050505061260f565b005b610bb460048036036080811015610ac757600080fd5b81019080803573ffffffffffffffffffffffffffffffffffffffff169060200190929190803573ffffffffffffffffffffffffffffffffffffffff1690602001909291908035906020019092919080359060200190640100000000811115610b2e57600080fd5b820183602082011115610b4057600080fd5b80359060200191846001830284011164010000000083111715610b6257600080fd5b91908080601f016020809104026020016040519081016040528093929190818152602001838380828437600081840152601f19601f8201169050808301925050505050505091929192905050506127c7565b005b610c4f6004803603610120811015610bcd57600080fd5b810190808035906020019092919080359060200190929190803561ffff169060200190929190803561ffff169060200190929190803561ffff169060200190929190803561ffff169060200190929190803561ffff169060200190929190803561ffff169060200190929190803561ffff16906020019092919050505061283f565b005b610c59612dcf565b6040518082815260200191505060405180910390f35b610c9b60048036036020811015610c8557600080fd5b8101908080359060200190929190505050612eae565b604051808760ff1660ff168152602001806020018660ff1660ff1681526020018561ffff1661ffff1681526020018461ffff1661ffff1681526020018361ffff1661ffff168152602001828103825287818151815260200191508051906020019080838360005b83811015610d1d578082015181840152602081019050610d02565b50505050905090810190601f168015610d4a5780820380516001836020036101000a031916815260200191505b5097505050505050505060405180910390f35b610d8960048036036020811015610d7357600080fd5b810190808035906020019092919050505061318c565b6040518080602001828103825283818151815260200191508051906020019080838360005b83811015610dc9578082015181840152602081019050610dae565b50505050905090810190601f168015610df65780820380516001836020036101000a031916815260200191505b509250505060405180910390f35b610e3060048036036020811015610e1a57600080fd5b810190808035906020019092919050505061345d565b6040518082815260200191505060405180910390f35b610e8860048036036020811015610e5c57600080fd5b81019080803573ffffffffffffffffffffffffffffffffffffffff16906020019092919050505061362c565b6040518080602001828103825283818151815260200191508051906020019060200280838360005b83811015610ecb578082015181840152602081019050610eb0565b505050509050019250505060405180910390f35b610f0b60048036036020811015610ef557600080fd5b81019080803590602001909291905050506136c3565b604051808060200180602001838103835285818151815260200191508051906020019060200280838360005b83811015610f52578082015181840152602081019050610f37565b50505050905001838103825284818151815260200191508051906020019060200280838360005b83811015610f94578082015181840152602081019050610f79565b5050505090500194505050505060405180910390f35b61100c60048036036040811015610fc057600080fd5b81019080803573ffffffffffffffffffffffffffffffffffffffff169060200190929190803573ffffffffffffffffffffffffffffffffffffffff169060200190929190505050613912565b604051808215151515815260200191505060405180910390f35b6110686004803603602081101561103c57600080fd5b81019080803573ffffffffffffffffffffffffffffffffffffffff1690602001909291905050506139a6565b6040518082815260200191505060405180910390f35b6110c06004803603602081101561109457600080fd5b81019080803573ffffffffffffffffffffffffffffffffffffffff1690602001909291905050506139b8565b6040518080602001828103825283818151815260200191508051906020019060200280838360005b838110156111035780820151818401526020810190506110e8565b505050509050019250505060405180910390f35b600060016000837bffffffffffffffffffffffffffffffffffffffffffffffffffffffff19167bffffffffffffffffffffffffffffffffffffffffffffffffffffffff1916815260200190815260200160002060009054906101000a900460ff169050919050565b606060078054600181600116156101000203166002900480601f0160208091040260200160405190810160405280929190818152602001828054600181600116156101000203166002900480156112175780601f106111ec57610100808354040283529160200191611217565b820191906000526020600020905b8154815290600101906020018083116111fa57829003601f168201915b5050505050905090565b600061122c82613a4f565b611281576040517f08c379a000000000000000000000000000000000000000000000000000000000815260040180806020018281038252602c815260200180615ae9602c913960400191505060405180910390fd5b6005600083815260200190815260200160002060009054906101000a900473ffffffffffffffffffffffffffffffffffffffff169050919050565b60006112c782611fe6565b90508073ffffffffffffffffffffffffffffffffffffffff168373ffffffffffffffffffffffffffffffffffffffff16141561134e576040517f08c379a0000000000000000000000000000000000000000000000000000000008152600401808060200182810382526021815260200180615b6d6021913960400191505060405180910390fd5b8073ffffffffffffffffffffffffffffffffffffffff1661136d613a6c565b73ffffffffffffffffffffffffffffffffffffffff16148061139c575061139b81611396613a6c565b613912565b5b6113f1576040517f08c379a0000000000000000000000000000000000000000000000000000000008152600401808060200182810382526038815260200180615a3c6038913960400191505060405180910390fd5b6113fb8383613a74565b505050565b8060008110158015611416575060118054905081105b611488576040517f08c379a00000000000000000000000000000000000000000000000000000000081526004018080602001828103825260158152602001807f4865726f20646f6573206e6f74206578697374732e000000000000000000000081525060200191505060405180910390fd5b601e6011838154811061149757fe5b906000526020600020906004020160030160009054906101000a900460ff1660ff16111561152d576040517f08c379a00000000000000000000000000000000000000000000000000000000081526004018080602001828103825260148152602001807f596f7520617265204174204d6178206c6576656c00000000000000000000000081525060200191505060405180910390fd5b60016011838154811061153c57fe5b906000526020600020906004020160030160008282829054906101000a900460ff160192506101000a81548160ff021916908360ff16021790555060026011838154811061158657fe5b906000526020600020906004020160030160058282829054906101000a900461ffff160192506101000a81548161ffff021916908361ffff1602179055506002601183815481106115d357fe5b906000526020600020906004020160030160078282829054906101000a900461ffff160192506101000a81548161ffff021916908361ffff16021790555060026011838154811061162057fe5b906000526020600020906004020160030160098282829054906101000a900461ffff160192506101000a81548161ffff021916908361ffff16021790555060286011838154811061166d57fe5b9060005260206000209060040201600301600b8282829054906101000a900461ffff160192506101000a81548161ffff021916908361ffff1602179055506016601183815481106116ba57fe5b9060005260206000209060040201600301600d8282829054906101000a900461ffff160192506101000a81548161ffff021916908361ffff16021790555060016011838154811061170757fe5b906000526020600020906004020160030160038282829054906101000a900461ffff160192506101000a81548161ffff021916908361ffff16021790555060026011838154811061175457fe5b906000526020600020906004020160030160018282829054906101000a900461ffff160192506101000a81548161ffff021916908361ffff1602179055505050565b60006117a26003613b2d565b905090565b60008060008060008086600081101580156117c6575060118054905081105b611838576040517f08c379a00000000000000000000000000000000000000000000000000000000081526004018080602001828103825260158152602001807f4865726f20646f6573206e6f74206578697374732e000000000000000000000081525060200191505060405180910390fd5b61184061581a565b6011898154811061184d57fe5b906000526020600020906004020160405180610180016040529081600082015481526020016001820160009054906101000a900460ff1660ff1660ff168152602001600282018054600181600116156101000203166002900480601f0160208091040260200160405190810160405280929190818152602001828054600181600116156101000203166002900480156119275780601f106118fc57610100808354040283529160200191611927565b820191906000526020600020905b81548152906001019060200180831161190a57829003601f168201915b505050505081526020016003820160009054906101000a900460ff1660ff1660ff1681526020016003820160019054906101000a900461ffff1661ffff1661ffff1681526020016003820160039054906101000a900461ffff1661ffff1661ffff1681526020016003820160059054906101000a900461ffff1661ffff1661ffff1681526020016003820160079054906101000a900461ffff1661ffff1661ffff1681526020016003820160099054906101000a900461ffff1661ffff1661ffff16815260200160038201600b9054906101000a900461ffff1661ffff1661ffff16815260200160038201600d9054906101000a900461ffff1661ffff1661ffff16815260200160038201600f9054906101000a900461ffff1661ffff1661ffff168152505090508061010001518161012001518261014001518361016001518460a001518560000151975097509750975097509750505091939550919395565b60008160008110158015611aa0575060128054905081105b611b12576040517f08c379a00000000000000000000000000000000000000000000000000000000081526004018080602001828103825260158152602001807f4974656d20646f6573206e6f74206578697374732e000000000000000000000081525060200191505060405180910390fd5b611b3960128481548110611b2257fe5b906000526020600020906002020160000154611fe6565b915050919050565b611b52611b4c613a6c565b82613b42565b611ba7576040517f08c379a0000000000000000000000000000000000000000000000000000000008152600401808060200182810382526031815260200180615bb56031913960400191505060405180910390fd5b611bb2838383613c36565b505050565b6000600d547f000000000000000000000000000000000000000000000000000000000000000073ffffffffffffffffffffffffffffffffffffffff166370a08231306040518263ffffffff1660e01b8152600401808273ffffffffffffffffffffffffffffffffffffffff1673ffffffffffffffffffffffffffffffffffffffff16815260200191505060206040518083038186803b158015611c5957600080fd5b505afa158015611c6d573d6000803e3d6000fd5b505050506040513d6020811015611c8357600080fd5b81019080805190602001909291905050501015611ceb576040517f08c379a000000000000000000000000000000000000000000000000000000000815260040180806020018281038252602b8152602001806159bf602b913960400191505060405180910390fd5b6000611cfc600e54600d5486613e79565b905082601360008381526020019081526020016000209080519060200190611d259291906158a1565b50336014600083815260200190815260200160002060006101000a81548173ffffffffffffffffffffffffffffffffffffffff021916908373ffffffffffffffffffffffffffffffffffffffff16021790555060006017600083815260200190815260200160002060006101000a81548160ff021916908360ff1602179055508091505092915050565b6000611e0282600260008673ffffffffffffffffffffffffffffffffffffffff1673ffffffffffffffffffffffffffffffffffffffff16815260200190815260200160002061408490919063ffffffff16565b905092915050565b6000808260008110158015611e23575060128054905081105b611e95576040517f08c379a00000000000000000000000000000000000000000000000000000000081526004018080602001828103825260158152602001807f4974656d20646f6573206e6f74206578697374732e000000000000000000000081525060200191505060405180910390fd5b60128481548110611ea257fe5b906000526020600020906002020160010160009054906101000a900460ff1660128581548110611ece57fe5b9060005260206000209060020201600001549250925050915091565b611f05838383604051806020016040528060008152506127c7565b505050565b600080611f2183600361409e90919063ffffffff16565b50905080915050919050565b60008160008110158015611f45575060118054905081105b611fb7576040517f08c379a00000000000000000000000000000000000000000000000000000000081526004018080602001828103825260158152602001807f4865726f20646f6573206e6f74206578697374732e000000000000000000000081525060200191505060405180910390fd5b611fde60118481548110611fc757fe5b906000526020600020906004020160000154611fe6565b915050919050565b600061201682604051806060016040528060298152602001615a9e6029913960036140cd9092919063ffffffff16565b9050919050565b6060600a8054600181600116156101000203166002900480601f0160208091040260200160405190810160405280929190818152602001828054600181600116156101000203166002900480156120b55780601f1061208a576101008083540402835291602001916120b5565b820191906000526020600020905b81548152906001019060200180831161209857829003601f168201915b5050505050905090565b60008073ffffffffffffffffffffffffffffffffffffffff168273ffffffffffffffffffffffffffffffffffffffff161415612146576040517f08c379a000000000000000000000000000000000000000000000000000000000815260040180806020018281038252602a815260200180615a74602a913960400191505060405180910390fd5b61218d600260008473ffffffffffffffffffffffffffffffffffffffff1673ffffffffffffffffffffffffffffffffffffffff1681526020019081526020016000206140ec565b9050919050565b6000601280549050905090565b6000601180549050905090565b600c60009054906101000a900473ffffffffffffffffffffffffffffffffffffffff1673ffffffffffffffffffffffffffffffffffffffff163373ffffffffffffffffffffffffffffffffffffffff1614612271576040517f08c379a000000000000000000000000000000000000000000000000000000000815260040180806020018281038252601e8152602001807f4f6e6c79204f776e65722063616e207769746864726177204c494e4b732e000081525060200191505060405180910390fd5b7f000000000000000000000000000000000000000000000000000000000000000073ffffffffffffffffffffffffffffffffffffffff1663a9059cbb337f000000000000000000000000000000000000000000000000000000000000000073ffffffffffffffffffffffffffffffffffffffff166370a08231306040518263ffffffff1660e01b8152600401808273ffffffffffffffffffffffffffffffffffffffff1673ffffffffffffffffffffffffffffffffffffffff16815260200191505060206040518083038186803b15801561234b57600080fd5b505afa15801561235f573d6000803e3d6000fd5b505050506040513d602081101561237557600080fd5b81019080805190602001909291905050506040518363ffffffff1660e01b8152600401808373ffffffffffffffffffffffffffffffffffffffff1673ffffffffffffffffffffffffffffffffffffffff16815260200182815260200192505050602060405180830381600087803b1580156123ef57600080fd5b505af1158015612403573d6000803e3d6000fd5b505050506040513d602081101561241957600080fd5b810190808051906020019092919050505061249c576040517f08c379a00000000000000000000000000000000000000000000000000000000081526004018080602001828103825260128152602001807f556e61626c6520746f207472616e73666572000000000000000000000000000081525060200191505060405180910390fd5b565b7f000000000000000000000000000000000000000000000000000000000000000073ffffffffffffffffffffffffffffffffffffffff163373ffffffffffffffffffffffffffffffffffffffff161461255f576040517f08c379a000000000000000000000000000000000000000000000000000000000815260040180806020018281038252601f8152602001807f4f6e6c7920565246436f6f7264696e61746f722063616e2066756c66696c6c0081525060200191505060405180910390fd5b6125698282614101565b5050565b606060088054600181600116156101000203166002900480601f0160208091040260200160405190810160405280929190818152602001828054600181600116156101000203166002900480156126055780601f106125da57610100808354040283529160200191612605565b820191906000526020600020905b8154815290600101906020018083116125e857829003601f168201915b5050505050905090565b612617613a6c565b73ffffffffffffffffffffffffffffffffffffffff168273ffffffffffffffffffffffffffffffffffffffff1614156126b8576040517f08c379a00000000000000000000000000000000000000000000000000000000081526004018080602001828103825260198152602001807f4552433732313a20617070726f766520746f2063616c6c65720000000000000081525060200191505060405180910390fd5b80600660006126c5613a6c565b73ffffffffffffffffffffffffffffffffffffffff1673ffffffffffffffffffffffffffffffffffffffff16815260200190815260200160002060008473ffffffffffffffffffffffffffffffffffffffff1673ffffffffffffffffffffffffffffffffffffffff16815260200190815260200160002060006101000a81548160ff0219169083151502179055508173ffffffffffffffffffffffffffffffffffffffff16612772613a6c565b73ffffffffffffffffffffffffffffffffffffffff167f17307eab39ab6107e8899845ad3d59bd9653f200f220920489ca2b5937696c3183604051808215151515815260200191505060405180910390a35050565b6127d86127d2613a6c565b83613b42565b61282d576040517f08c379a0000000000000000000000000000000000000000000000000000000008152600401808060200182810382526031815260200180615bb56031913960400191505060405180910390fd5b61283984848484614751565b50505050565b8860008110158015612855575060118054905081105b6128c7576040517f08c379a00000000000000000000000000000000000000000000000000000000081526004018080602001828103825260158152602001807f4865726f20646f6573206e6f74206578697374732e000000000000000000000081525060200191505060405180910390fd5b88600081101580156128dd575060128054905081105b61294f576040517f08c379a00000000000000000000000000000000000000000000000000000000081526004018080602001828103825260158152602001807f4974656d20646f6573206e6f74206578697374732e000000000000000000000081525060200191505060405180910390fd5b8a6129776011828154811061296057fe5b906000526020600020906004020160000154611fe6565b73ffffffffffffffffffffffffffffffffffffffff163373ffffffffffffffffffffffffffffffffffffffff16146129fa576040517f08c379a0000000000000000000000000000000000000000000000000000000008152600401808060200182810382526027815260200180615b8e6027913960400191505060405180910390fd5b8a612a2260128281548110612a0b57fe5b906000526020600020906002020160000154611fe6565b73ffffffffffffffffffffffffffffffffffffffff163373ffffffffffffffffffffffffffffffffffffffff1614612aa5576040517f08c379a0000000000000000000000000000000000000000000000000000000008152600401808060200182810382526027815260200180615b8e6027913960400191505060405180910390fd5b6007601860008f81526020019081526020016000208054905010612b31576040517f08c379a000000000000000000000000000000000000000000000000000000000815260040180806020018281038252601e8152602001807f4d6178696d756d2036206974656d732063616e20626520696e6675736564000081525060200191505060405180910390fd5b60001515601960008e815260200190815260200160002060009054906101000a900460ff16151514612bcb576040517f08c379a00000000000000000000000000000000000000000000000000000000081526004018080602001828103825260198152602001807f4974656d20697320616c72656164792065717569707065642e0000000000000081525060200191505060405180910390fd5b8a60118e81548110612bd957fe5b906000526020600020906004020160030160058282829054906101000a900461ffff160192506101000a81548161ffff021916908361ffff1602179055508960118e81548110612c2557fe5b906000526020600020906004020160030160078282829054906101000a900461ffff160192506101000a81548161ffff021916908361ffff1602179055508860118e81548110612c7157fe5b906000526020600020906004020160030160098282829054906101000a900461ffff160192506101000a81548161ffff021916908361ffff16021790555060148b0260118e81548110612cc057fe5b9060005260206000209060040201600301600b8282829054906101000a900461ffff160192506101000a81548161ffff021916908361ffff160217905550600b890260118e81548110612d0f57fe5b9060005260206000209060040201600301600d8282829054906101000a900461ffff160192506101000a81548161ffff021916908361ffff160217905550612d5a8d898989896147c3565b601860008e81526020019081526020016000208c90806001815401808255809150506001900390600052602060002001600090919091909150556001601960008e815260200190815260200160002060006101000a81548160ff02191690831515021790555050505050505050505050505050565b60007f000000000000000000000000000000000000000000000000000000000000000073ffffffffffffffffffffffffffffffffffffffff166370a08231306040518263ffffffff1660e01b8152600401808273ffffffffffffffffffffffffffffffffffffffff1673ffffffffffffffffffffffffffffffffffffffff16815260200191505060206040518083038186803b158015612e6e57600080fd5b505afa158015612e82573d6000803e3d6000fd5b505050506040513d6020811015612e9857600080fd5b8101908080519060200190929190505050905090565b600060606000806000808660008110158015612ece575060118054905081105b612f40576040517f08c379a00000000000000000000000000000000000000000000000000000000081526004018080602001828103825260158152602001807f4865726f20646f6573206e6f74206578697374732e000000000000000000000081525060200191505060405180910390fd5b612f4861581a565b60118981548110612f5557fe5b906000526020600020906004020160405180610180016040529081600082015481526020016001820160009054906101000a900460ff1660ff1660ff168152602001600282018054600181600116156101000203166002900480601f01602080910402602001604051908101604052809291908181526020018280546001816001161561010002031660029004801561302f5780601f106130045761010080835404028352916020019161302f565b820191906000526020600020905b81548152906001019060200180831161301257829003601f168201915b505050505081526020016003820160009054906101000a900460ff1660ff1660ff1681526020016003820160019054906101000a900461ffff1661ffff1661ffff1681526020016003820160039054906101000a900461ffff1661ffff1661ffff1681526020016003820160059054906101000a900461ffff1661ffff1661ffff1681526020016003820160079054906101000a900461ffff1661ffff1661ffff1681526020016003820160099054906101000a900461ffff1661ffff1661ffff16815260200160038201600b9054906101000a900461ffff1661ffff1661ffff16815260200160038201600d9054906101000a900461ffff1661ffff1661ffff16815260200160038201600f9054906101000a900461ffff1661ffff1661ffff1681525050905080602001518160400151826060015183608001518460c001518560e00151975097509750975097509750505091939550919395565b606061319782613a4f565b6131ec576040517f08c379a000000000000000000000000000000000000000000000000000000000815260040180806020018281038252602f815260200180615b3e602f913960400191505060405180910390fd5b6060600960008481526020019081526020016000208054600181600116156101000203166002900480601f0160208091040260200160405190810160405280929190818152602001828054600181600116156101000203166002900480156132955780601f1061326a57610100808354040283529160200191613295565b820191906000526020600020905b81548152906001019060200180831161327857829003601f168201915b5050505050905060606132a661201d565b90506000815114156132bc578192505050613458565b60008251111561338d5780826040516020018083805190602001908083835b602083106132fe57805182526020820191506020810190506020830392506132db565b6001836020036101000a03801982511681845116808217855250505050505090500182805190602001908083835b6020831061334f578051825260208201915060208101905060208303925061332c565b6001836020036101000a0380198251168184511680821785525050505050509050019250505060405160208183030381529060405292505050613458565b80613397856148fa565b6040516020018083805190602001908083835b602083106133cd57805182526020820191506020810190506020830392506133aa565b6001836020036101000a03801982511681845116808217855250505050505090500182805190602001908083835b6020831061341e57805182526020820191506020810190506020830392506133fb565b6001836020036101000a03801982511681845116808217855250505050505090500192505050604051602081830303815290604052925050505b919050565b6000600d547f000000000000000000000000000000000000000000000000000000000000000073ffffffffffffffffffffffffffffffffffffffff166370a08231306040518263ffffffff1660e01b8152600401808273ffffffffffffffffffffffffffffffffffffffff1673ffffffffffffffffffffffffffffffffffffffff16815260200191505060206040518083038186803b1580156134ff57600080fd5b505afa158015613513573d6000803e3d6000fd5b505050506040513d602081101561352957600080fd5b81019080805190602001909291905050501015613591576040517f08c379a000000000000000000000000000000000000000000000000000000000815260040180806020018281038252602b8152602001806159bf602b913960400191505060405180910390fd5b60006135a2600e54600d5485613e79565b9050336014600083815260200190815260200160002060006101000a81548173ffffffffffffffffffffffffffffffffffffffff021916908373ffffffffffffffffffffffffffffffffffffffff16021790555060016017600083815260200190815260200160002060006101000a81548160ff021916908360ff16021790555080915050919050565b6060601660008373ffffffffffffffffffffffffffffffffffffffff1673ffffffffffffffffffffffffffffffffffffffff1681526020019081526020016000208054806020026020016040519081016040528092919081815260200182805480156136b757602002820191906000526020600020905b8154815260200190600101908083116136a3575b50505050509050919050565b60608082600081101580156136dc575060118054905081105b61374e576040517f08c379a00000000000000000000000000000000000000000000000000000000081526004018080602001828103825260158152602001807f4865726f20646f6573206e6f74206578697374732e000000000000000000000081525060200191505060405180910390fd5b6060601860008681526020019081526020016000208054806020026020016040519081016040528092919081815260200182805480156137ad57602002820191906000526020600020905b815481526020019060010190808311613799575b505050505090506060815167ffffffffffffffff811180156137ce57600080fd5b506040519080825280602002602001820160405280156137fd5781602001602082028036833780820191505090505b5090506060825167ffffffffffffffff8111801561381a57600080fd5b506040519080825280602002602001820160405280156138495781602001602082028036833780820191505090505b50905060008090505b83518160ff16101561390257838160ff168151811061386d57fe5b6020026020010151838260ff168151811061388457fe5b6020026020010181815250506012848260ff16815181106138a157fe5b6020026020010151815481106138b357fe5b906000526020600020906002020160010160009054906101000a900460ff16828260ff16815181106138e157fe5b602002602001019060ff16908160ff16815250508080600101915050613852565b5081819550955050505050915091565b6000600660008473ffffffffffffffffffffffffffffffffffffffff1673ffffffffffffffffffffffffffffffffffffffff16815260200190815260200160002060008373ffffffffffffffffffffffffffffffffffffffff1673ffffffffffffffffffffffffffffffffffffffff16815260200190815260200160002060009054906101000a900460ff16905092915050565b60006139b1826120bf565b9050919050565b6060601560008373ffffffffffffffffffffffffffffffffffffffff1673ffffffffffffffffffffffffffffffffffffffff168152602001908152602001600020805480602002602001604051908101604052809291908181526020018280548015613a4357602002820191906000526020600020905b815481526020019060010190808311613a2f575b50505050509050919050565b6000613a65826003614a4190919063ffffffff16565b9050919050565b600033905090565b816005600083815260200190815260200160002060006101000a81548173ffffffffffffffffffffffffffffffffffffffff021916908373ffffffffffffffffffffffffffffffffffffffff160217905550808273ffffffffffffffffffffffffffffffffffffffff16613ae783611fe6565b73ffffffffffffffffffffffffffffffffffffffff167f8c5be1e5ebec7d5bd14f71427d1e84f3dd0314c0f7b2291e5b200ac8c7c3b92560405160405180910390a45050565b6000613b3b82600001614a5b565b9050919050565b6000613b4d82613a4f565b613ba2576040517f08c379a000000000000000000000000000000000000000000000000000000000815260040180806020018281038252602c815260200180615a10602c913960400191505060405180910390fd5b6000613bad83611fe6565b90508073ffffffffffffffffffffffffffffffffffffffff168473ffffffffffffffffffffffffffffffffffffffff161480613c1c57508373ffffffffffffffffffffffffffffffffffffffff16613c0484611221565b73ffffffffffffffffffffffffffffffffffffffff16145b80613c2d5750613c2c8185613912565b5b91505092915050565b8273ffffffffffffffffffffffffffffffffffffffff16613c5682611fe6565b73ffffffffffffffffffffffffffffffffffffffff1614613cc2576040517f08c379a0000000000000000000000000000000000000000000000000000000008152600401808060200182810382526029815260200180615b156029913960400191505060405180910390fd5b600073ffffffffffffffffffffffffffffffffffffffff168273ffffffffffffffffffffffffffffffffffffffff161415613d48576040517f08c379a000000000000000000000000000000000000000000000000000000000815260040180806020018281038252602481526020018061599b6024913960400191505060405180910390fd5b613d53838383614a6c565b613d5e600082613a74565b613daf81600260008673ffffffffffffffffffffffffffffffffffffffff1673ffffffffffffffffffffffffffffffffffffffff168152602001908152602001600020614a7190919063ffffffff16565b50613e0181600260008573ffffffffffffffffffffffffffffffffffffffff1673ffffffffffffffffffffffffffffffffffffffff168152602001908152602001600020614a8b90919063ffffffff16565b50613e1881836003614aa59092919063ffffffff16565b50808273ffffffffffffffffffffffffffffffffffffffff168473ffffffffffffffffffffffffffffffffffffffff167fddf252ad1be2c89b69c2b068fc378daa952ba7f163c4a11628f55a4df523b3ef60405160405180910390a4505050565b60007f000000000000000000000000000000000000000000000000000000000000000073ffffffffffffffffffffffffffffffffffffffff16634000aea07f000000000000000000000000000000000000000000000000000000000000000085878660405160200180838152602001828152602001925050506040516020818303038152906040526040518463ffffffff1660e01b8152600401808473ffffffffffffffffffffffffffffffffffffffff1673ffffffffffffffffffffffffffffffffffffffff16815260200183815260200180602001828103825283818151815260200191508051906020019080838360005b83811015613f88578082015181840152602081019050613f6d565b50505050905090810190601f168015613fb55780820380516001836020036101000a031916815260200191505b50945050505050602060405180830381600087803b158015613fd657600080fd5b505af1158015613fea573d6000803e3d6000fd5b505050506040513d602081101561400057600080fd5b81019080805190602001909291905050505060006140328584306000808a815260200190815260200160002054614ada565b905061405a600160008088815260200190815260200160002054614b5490919063ffffffff16565b6000808781526020019081526020016000208190555061407a8582614bdc565b9150509392505050565b60006140938360000183614c15565b60001c905092915050565b6000806000806140b18660000186614c98565b915091508160001c8160001c8090509350935050509250929050565b60006140e0846000018460001b84614d31565b60001c90509392505050565b60006140fa82600001614e27565b9050919050565b600b6000815480929190600101919050555060006017600084815260200190815260200160002060009054906101000a900460ff1660ff1614156145e45760006019612710838161414e57fe5b048161415657fe5b0690506000601962989680848161416957fe5b048161417157fe5b069050600060196103e8858161418357fe5b048161418b57fe5b06905060006014840260c80190506000600b8402604b0190506000601e87816141b057fe5b0690506000601180549050905060006001600c8a816141cb57fe5b0601905060058160ff1610156141e5578783019250614202565b60098160ff1610156141fb578583019250614201565b86830192505b5b6011604051806101800160405280600b5481526020018360ff168152602001601360008e81526020019081526020016000208054600181600116156101000203166002900480601f0160208091040260200160405190810160405280929190818152602001828054600181600116156101000203166002900480156142c85780601f1061429d576101008083540402835291602001916142c8565b820191906000526020600020905b8154815290600101906020018083116142ab57829003601f168201915b50505050508152602001600060ff1681526020018561ffff16815260200160058c816142f057fe5b0661ffff1681526020018a61ffff1681526020018861ffff1681526020018961ffff1681526020018761ffff1681526020018661ffff168152602001606464174876e8008d8161433c57fe5b048161434457fe5b0660c80161ffff1681525090806001815401808255809150506001900390600052602060002090600402016000909190919091506000820151816000015560208201518160010160006101000a81548160ff021916908360ff16021790555060408201518160020190805190602001906143bf9291906158a1565b5060608201518160030160006101000a81548160ff021916908360ff16021790555060808201518160030160016101000a81548161ffff021916908361ffff16021790555060a08201518160030160036101000a81548161ffff021916908361ffff16021790555060c08201518160030160056101000a81548161ffff021916908361ffff16021790555060e08201518160030160076101000a81548161ffff021916908361ffff1602179055506101008201518160030160096101000a81548161ffff021916908361ffff16021790555061012082015181600301600b6101000a81548161ffff021916908361ffff16021790555061014082015181600301600d6101000a81548161ffff021916908361ffff16021790555061016082015181600301600f6101000a81548161ffff021916908361ffff160217905550505061453e601460008c815260200190815260200160002060009054906101000a900473ffffffffffffffffffffffffffffffffffffffff16600b54614e38565b60156000601460008d815260200190815260200160002060009054906101000a900473ffffffffffffffffffffffffffffffffffffffff1673ffffffffffffffffffffffffffffffffffffffff1673ffffffffffffffffffffffffffffffffffffffff168152602001908152602001600020829080600181540180825580915050600190039060005260206000200160009091909190915055505050505050505061474d565b6000601280549050905060006001601884816145fc57fe5b0601905060126040518060400160405280600b5481526020018360ff1681525090806001815401808255809150506001900390600052602060002090600202016000909190919091506000820151816000015560208201518160010160006101000a81548160ff021916908360ff16021790555050506146b16014600086815260200190815260200160002060009054906101000a900473ffffffffffffffffffffffffffffffffffffffff16600b54614e38565b601660006014600087815260200190815260200160002060009054906101000a900473ffffffffffffffffffffffffffffffffffffffff1673ffffffffffffffffffffffffffffffffffffffff1673ffffffffffffffffffffffffffffffffffffffff16815260200190815260200160002082908060018154018082558091505060019003906000526020600020016000909190919091505550505b5050565b61475c848484613c36565b61476884848484614e56565b6147bd576040517f08c379a00000000000000000000000000000000000000000000000000000000081526004018080602001828103825260328152602001806159696032913960400191505060405180910390fd5b50505050565b83601186815481106147d157fe5b906000526020600020906004020160030160018282829054906101000a900461ffff160192506101000a81548161ffff021916908361ffff160217905550826011868154811061481d57fe5b906000526020600020906004020160030160038282829054906101000a900461ffff160192506101000a81548161ffff021916908361ffff160217905550816011868154811061486957fe5b9060005260206000209060040201600301600d8282829054906101000a900461ffff160192506101000a81548161ffff021916908361ffff16021790555080601186815481106148b557fe5b9060005260206000209060040201600301600f8282829054906101000a900461ffff160192506101000a81548161ffff021916908361ffff1602179055505050505050565b60606000821415614942576040518060400160405280600181526020017f30000000000000000000000000000000000000000000000000000000000000008152509050614a3c565b600082905060005b6000821461496c578080600101915050600a828161496457fe5b04915061494a565b60608167ffffffffffffffff8111801561498557600080fd5b506040519080825280601f01601f1916602001820160405280156149b85781602001600182028036833780820191505090505b50905060006001830390508593505b60008414614a3457600a84816149d957fe5b0660300160f81b828280600190039350815181106149f357fe5b60200101907effffffffffffffffffffffffffffffffffffffffffffffffffffffffffffff1916908160001a905350600a8481614a2c57fe5b0493506149c7565b819450505050505b919050565b6000614a53836000018360001b61509b565b905092915050565b600081600001805490509050919050565b505050565b6000614a83836000018360001b6150be565b905092915050565b6000614a9d836000018360001b6151a6565b905092915050565b6000614ad1846000018460001b8473ffffffffffffffffffffffffffffffffffffffff1660001b615216565b90509392505050565b600084848484604051602001808581526020018481526020018373ffffffffffffffffffffffffffffffffffffffff1673ffffffffffffffffffffffffffffffffffffffff1681526020018281526020019450505050506040516020818303038152906040528051906020012060001c9050949350505050565b600080828401905083811015614bd2576040517f08c379a000000000000000000000000000000000000000000000000000000000815260040180806020018281038252601b8152602001807f536166654d6174683a206164646974696f6e206f766572666c6f77000000000081525060200191505060405180910390fd5b8091505092915050565b60008282604051602001808381526020018281526020019250505060405160208183030381529060405280519060200120905092915050565b600081836000018054905011614c76576040517f08c379a00000000000000000000000000000000000000000000000000000000081526004018080602001828103825260228152602001806159476022913960400191505060405180910390fd5b826000018281548110614c8557fe5b9060005260206000200154905092915050565b60008082846000018054905011614cfa576040517f08c379a0000000000000000000000000000000000000000000000000000000008152600401808060200182810382526022815260200180615ac76022913960400191505060405180910390fd5b6000846000018481548110614d0b57fe5b906000526020600020906002020190508060000154816001015492509250509250929050565b60008084600101600085815260200190815260200160002054905060008114158390614df8576040517f08c379a00000000000000000000000000000000000000000000000000000000081526004018080602001828103825283818151815260200191508051906020019080838360005b83811015614dbd578082015181840152602081019050614da2565b50505050905090810190601f168015614dea5780820380516001836020036101000a031916815260200191505b509250505060405180910390fd5b50846000016001820381548110614e0b57fe5b9060005260206000209060020201600101549150509392505050565b600081600001805490509050919050565b614e528282604051806020016040528060008152506152f2565b5050565b6000614e778473ffffffffffffffffffffffffffffffffffffffff16615363565b614e845760019050615093565b606061501a63150b7a0260e01b614e99613a6c565b888787604051602401808573ffffffffffffffffffffffffffffffffffffffff1673ffffffffffffffffffffffffffffffffffffffff1681526020018473ffffffffffffffffffffffffffffffffffffffff1673ffffffffffffffffffffffffffffffffffffffff16815260200183815260200180602001828103825283818151815260200191508051906020019080838360005b83811015614f49578082015181840152602081019050614f2e565b50505050905090810190601f168015614f765780820380516001836020036101000a031916815260200191505b5095505050505050604051602081830303815290604052907bffffffffffffffffffffffffffffffffffffffffffffffffffffffff19166020820180517bffffffffffffffffffffffffffffffffffffffffffffffffffffffff8381831617835250505050604051806060016040528060328152602001615969603291398773ffffffffffffffffffffffffffffffffffffffff166153769092919063ffffffff16565b9050600081806020019051602081101561503357600080fd5b8101908080519060200190929190505050905063150b7a0260e01b7bffffffffffffffffffffffffffffffffffffffffffffffffffffffff1916817bffffffffffffffffffffffffffffffffffffffffffffffffffffffff191614925050505b949350505050565b600080836001016000848152602001908152602001600020541415905092915050565b6000808360010160008481526020019081526020016000205490506000811461519a576000600182039050600060018660000180549050039050600086600001828154811061510957fe5b906000526020600020015490508087600001848154811061512657fe5b906000526020600020018190555060018301876001016000838152602001908152602001600020819055508660000180548061515e57fe5b600190038181906000526020600020016000905590558660010160008781526020019081526020016000206000905560019450505050506151a0565b60009150505b92915050565b60006151b2838361538e565b61520b578260000182908060018154018082558091505060019003906000526020600020016000909190919091505582600001805490508360010160008481526020019081526020016000208190555060019050615210565b600090505b92915050565b60008084600101600085815260200190815260200160002054905060008114156152bd578460000160405180604001604052808681526020018581525090806001815401808255809150506001900390600052602060002090600202016000909190919091506000820151816000015560208201518160010155505084600001805490508560010160008681526020019081526020016000208190555060019150506152eb565b828560000160018303815481106152d057fe5b90600052602060002090600202016001018190555060009150505b9392505050565b6152fc83836153b1565b6153096000848484614e56565b61535e576040517f08c379a00000000000000000000000000000000000000000000000000000000081526004018080602001828103825260328152602001806159696032913960400191505060405180910390fd5b505050565b600080823b905060008111915050919050565b606061538584846000856155a5565b90509392505050565b600080836001016000848152602001908152602001600020541415905092915050565b600073ffffffffffffffffffffffffffffffffffffffff168273ffffffffffffffffffffffffffffffffffffffff161415615454576040517f08c379a00000000000000000000000000000000000000000000000000000000081526004018080602001828103825260208152602001807f4552433732313a206d696e7420746f20746865207a65726f206164647265737381525060200191505060405180910390fd5b61545d81613a4f565b156154d0576040517f08c379a000000000000000000000000000000000000000000000000000000000815260040180806020018281038252601c8152602001807f4552433732313a20746f6b656e20616c7265616479206d696e7465640000000081525060200191505060405180910390fd5b6154dc60008383614a6c565b61552d81600260008573ffffffffffffffffffffffffffffffffffffffff1673ffffffffffffffffffffffffffffffffffffffff168152602001908152602001600020614a8b90919063ffffffff16565b5061554481836003614aa59092919063ffffffff16565b50808273ffffffffffffffffffffffffffffffffffffffff16600073ffffffffffffffffffffffffffffffffffffffff167fddf252ad1be2c89b69c2b068fc378daa952ba7f163c4a11628f55a4df523b3ef60405160405180910390a45050565b606082471015615600576040517f08c379a00000000000000000000000000000000000000000000000000000000081526004018080602001828103825260268152602001806159ea6026913960400191505060405180910390fd5b61560985615363565b61567b576040517f08c379a000000000000000000000000000000000000000000000000000000000815260040180806020018281038252601d8152602001807f416464726573733a2063616c6c20746f206e6f6e2d636f6e747261637400000081525060200191505060405180910390fd5b600060608673ffffffffffffffffffffffffffffffffffffffff1685876040518082805190602001908083835b602083106156cb57805182526020820191506020810190506020830392506156a8565b6001836020036101000a03801982511681845116808217855250505050505090500191505060006040518083038185875af1925050503d806000811461572d576040519150601f19603f3d011682016040523d82523d6000602084013e615732565b606091505b509150915061574282828661574e565b92505050949350505050565b6060831561575e57829050615813565b6000835111156157715782518084602001fd5b816040517f08c379a00000000000000000000000000000000000000000000000000000000081526004018080602001828103825283818151815260200191508051906020019080838360005b838110156157d85780820151818401526020810190506157bd565b50505050905090810190601f1680156158055780820380516001836020036101000a031916815260200191505b509250505060405180910390fd5b9392505050565b60405180610180016040528060008152602001600060ff16815260200160608152602001600060ff168152602001600061ffff168152602001600061ffff168152602001600061ffff168152602001600061ffff168152602001600061ffff168152602001600061ffff168152602001600061ffff168152602001600061ffff1681525090565b828054600181600116156101000203166002900490600052602060002090601f016020900481019282601f106158e257805160ff1916838001178555615910565b82800160010185558215615910579182015b8281111561590f5782518255916020019190600101906158f4565b5b50905061591d9190615921565b5090565b61594391905b8082111561593f576000816000905550600101615927565b5090565b9056fe456e756d657261626c655365743a20696e646578206f7574206f6620626f756e64734552433732313a207472616e7366657220746f206e6f6e20455243373231526563656976657220696d706c656d656e7465724552433732313a207472616e7366657220746f20746865207a65726f20616464726573734e6f7420656e6f756768204c494e4b202d2066696c6c20636f6e7472616374207769746820666175636574416464726573733a20696e73756666696369656e742062616c616e636520666f722063616c6c4552433732313a206f70657261746f7220717565727920666f72206e6f6e6578697374656e7420746f6b656e4552433732313a20617070726f76652063616c6c6572206973206e6f74206f776e6572206e6f7220617070726f76656420666f7220616c6c4552433732313a2062616c616e636520717565727920666f7220746865207a65726f20616464726573734552433732313a206f776e657220717565727920666f72206e6f6e6578697374656e7420746f6b656e456e756d657261626c654d61703a20696e646578206f7574206f6620626f756e64734552433732313a20617070726f76656420717565727920666f72206e6f6e6578697374656e7420746f6b656e4552433732313a207472616e73666572206f6620746f6b656e2074686174206973206e6f74206f776e4552433732314d657461646174613a2055524920717565727920666f72206e6f6e6578697374656e7420746f6b656e4552433732313a20617070726f76616c20746f2063757272656e74206f776e65724f6e6c79206f776e6572206f66204e46542063616e20646f2074686973206f7065726174696f6e4552433732313a207472616e736665722063616c6c6572206973206e6f74206f776e6572206e6f7220617070726f766564a264697066735822122028d44077359df2bd22aa3b30cc7c8be1b872bbfd7ab463755b9bae8e046f75e964736f6c63430006060033",
  "immutableReferences": {
    "1155": [
      {
        "length": 32,
        "start": 7102
      },
      {
        "length": 32,
        "start": 8819
      },
      {
        "length": 32,
        "start": 8880
      },
      {
        "length": 32,
        "start": 11731
      },
      {
        "length": 32,
        "start": 13412
      },
      {
        "length": 32,
        "start": 15997
      }
    ],
    "1157": [
      {
        "length": 32,
        "start": 9376
      },
      {
        "length": 32,
        "start": 16057
      }
    ]
  },
  "source": "pragma solidity '0.6.6';\r\n\r\nimport '@chainlink/contracts/src/v0.6/VRFConsumerBase.sol';// Random number\r\nimport '@openzeppelin/contracts/token/ERC721/ERC721.sol';// ERC721 \r\n\r\ncontract Dota is VRFConsumerBase, ERC721 {\r\n    \r\n    uint256 Id; // Token_Id for NFT\r\n    \r\n    address owner; // contract owner\r\n\r\n    uint256 internal fee; //fee in LINK for chainlink\r\n    bytes32 internal keyHash;   \r\n\r\n    address VRFCoordinator;\r\n    address LinkToken;\r\n\r\n    // Structure Hero for creating heros\r\n    struct Hero{\r\n        uint256 tokenId;\r\n        uint8 heroCode;\r\n        string name;\r\n        uint8 level;\r\n        uint16 damage;\r\n        uint16 armor;\r\n        uint16 strength;\r\n        uint16 agility;\r\n        uint16 intelligence;\r\n        uint16 hitPoints;\r\n        uint16 mana;\r\n        uint16 movementSpeed;\r\n    }   \r\n    Hero[] heros; // array of heros\r\n\r\n    // Structure Item for creating items\r\n    struct Item{\r\n        uint256 tokenId;\r\n        uint8 itemCode;\r\n    }\r\n    Item[] items;// array of items\r\n    \r\n    mapping(bytes32 => string) requestToName;\r\n    mapping(bytes32 => address) requestToSender;\r\n    mapping(address => uint256[]) ownerToHeros; // mapping for owners to their heros\r\n    mapping(address => uint256[]) ownerToItems; // mapping for owners to their items\r\n    mapping(bytes32 => uint8) requestFor; // mapping for which request is made for item or hero\r\n    mapping(uint256 => uint256[]) heroToItems; // mapping for hero to infused items\r\n    mapping(uint256 => bool) equippedItems; //check if items is equiped or not\r\n\r\n    // modifiers start\r\n    modifier existingItem(uint256 _id){\r\n        require(_id >= 0 && _id < items.length, \"Item does not exists.\");\r\n        _;\r\n    }\r\n\r\n    modifier existingHero(uint256 _id){\r\n        require(_id >= 0 && _id < heros.length, \"Hero does not exists.\");\r\n        _;\r\n    }\r\n\r\n    modifier heroOwnerOnly(uint256 _id){\r\n        require(msg.sender == ownerOf(heros[_id].tokenId), \"Only owner of NFT can do this operation\");\r\n        _;\r\n    }\r\n\r\n     modifier itemOwnerOnly(uint256 _id){\r\n        require(msg.sender == ownerOf(items[_id].tokenId), \"Only owner of NFT can do this operation\");\r\n        _;\r\n    }\r\n\r\n    // modifiers ends\r\n    \r\n    constructor(address _VRFCoordinator, address _LinkToken, bytes32 _keyHash) public\r\n    VRFConsumerBase(_VRFCoordinator, _LinkToken)\r\n    ERC721(\"DefenceOfTheAncients\", \"DOTA\")\r\n    {\r\n        VRFCoordinator = _VRFCoordinator;\r\n        LinkToken = _LinkToken;\r\n        keyHash = _keyHash;\r\n        fee = 0.1 * 10**18; // 0.1 LINK\r\n        owner = msg.sender;\r\n    }\r\n\r\n    function requestHero(uint256 _seed, string memory _name) public\r\n    returns(bytes32) { // function to create random hero\r\n        require(LINK.balanceOf(address(this)) >= fee, \"Not enough LINK - fill contract with faucet\" );\r\n        bytes32 requestId = requestRandomness(keyHash, fee, _seed);\r\n        requestToName[requestId] = _name;\r\n        requestToSender[requestId] = msg.sender;\r\n        requestFor[requestId] = 0;\r\n        return(requestId);\r\n    }\r\n\r\n    function requestItem(uint256 _seed) public\r\n    returns(bytes32) { //function to create random item\r\n        require(LINK.balanceOf(address(this)) >= fee, \"Not enough LINK - fill contract with faucet\" );\r\n        bytes32 requestId = requestRandomness(keyHash, fee, _seed);\r\n        requestToSender[requestId] = msg.sender;\r\n        requestFor[requestId] = 1;\r\n        return(requestId);\r\n    }\r\n\r\n    function fulfillRandomness(bytes32 requestId, uint256 randomNumber)\r\n    internal\r\n    override { // fulfilling the callback function\r\n        Id++; // increment token before minting so no NFT '0'   \r\n        if(requestFor[requestId] == 0){\r\n            uint16 strength = uint16((randomNumber / 10000) % 25);\r\n            uint16 intelligence = uint16((randomNumber / 10000000) % 25);\r\n            uint16 agility = uint16((randomNumber / 1000) % 25);   \r\n            uint16 hitPoints = uint16(200 + strength * 20);\r\n            uint16 mana = uint16(75 + intelligence * 11);\r\n            uint16 damage = uint16(randomNumber % 30);\r\n            uint256 newId = heros.length;\r\n            uint8 heroCode = uint8(randomNumber % 12 + 1); // there are total 12 heros\r\n            if(heroCode < 5){\r\n                damage += strength;\r\n            }else if(heroCode < 9){\r\n                damage += agility;\r\n            }else{\r\n                damage += intelligence;\r\n            }\r\n            \r\n            heros.push(\r\n                Hero(\r\n                    Id, // tokenId\r\n                    heroCode,\r\n                    requestToName[requestId],// name\r\n                    0, // level\r\n                    damage,\r\n                    uint16(randomNumber % 5), //armor\r\n                    strength, \r\n                    agility,\r\n                    intelligence,\r\n                    hitPoints,\r\n                    mana,\r\n                    uint16(200 + (randomNumber / 100000000000) % 100) // movementSpeed\r\n                )   \r\n            );\r\n            \r\n            _safeMint(requestToSender[requestId], Id);\r\n            ownerToHeros[requestToSender[requestId]].push(newId); //push array index in owned heros\r\n        }else{\r\n            uint256 newId = items.length;\r\n            uint8 itemCode = uint8(randomNumber % 24 + 1); // there are total 24 items\r\n            items.push(\r\n            Item(\r\n                Id, // tokenId\r\n                itemCode\r\n            )   \r\n            );\r\n\r\n            _safeMint(requestToSender[requestId], Id);\r\n            ownerToItems[requestToSender[requestId]].push(newId); // push array index in owned items\r\n        }\r\n       \r\n    }\r\n\r\n    function getHeroFirstHalf(uint256 _id) // returns half datea of hero\r\n    public\r\n    view\r\n    existingHero(_id)\r\n    returns(uint8, string memory, uint8, uint16, uint16, uint16){\r\n        Hero memory hero = heros[_id];\r\n        return(hero.heroCode, hero.name, hero.level,hero.damage, hero.strength, hero.agility);\r\n    }\r\n\r\n    function getHeroSecondHalf(uint256 _id) // returns remailning data of hero\r\n    public\r\n    view\r\n    existingHero(_id)\r\n    returns(uint16, uint16, uint16, uint16, uint16, uint256){\r\n        Hero memory hero = heros[_id];\r\n        return(hero.intelligence, hero.hitPoints, hero.mana, hero.movementSpeed, hero.armor, hero.tokenId);\r\n    }\r\n\r\n    function getItem(uint256 _id) // get item of perticular index form items array\r\n    public\r\n    view\r\n    existingItem(_id)\r\n    returns(uint8, uint256){\r\n        return(items[_id].itemCode, items[_id].tokenId);\r\n    }\r\n\r\n    function levelUp(uint256 _id) //function to level up hero add 1 level and 2 to each attrinute\r\n    public\r\n    existingHero(_id){\r\n        require(heros[_id].level <= 30, \"You are At Max level\");\r\n        heros[_id].level += 1;\r\n        heros[_id].strength += 2;\r\n        heros[_id].agility += 2;\r\n        heros[_id].intelligence += 2;\r\n        heros[_id].hitPoints += 40;\r\n        heros[_id].mana += 22;\r\n        heros[_id].armor += 1;\r\n        heros[_id].damage += 2;\r\n    }\r\n\r\n    function withdrawLink() // withdraw link from contract\r\n    external{\r\n        require(msg.sender == owner, \"Only Owner can withdraw LINKs.\");\r\n        require(LINK.transfer(msg.sender, LINK.balanceOf(address(this))), \"Unable to transfer\");\r\n    }\r\n\r\n    function linkBalance() // check the LINK balance of contract\r\n    external \r\n    view \r\n    returns(uint256){\r\n        return(LINK.balanceOf(address(this)));\r\n    }\r\n\r\n    function getHeroOwner(uint256 _id)\r\n    public\r\n    view\r\n    existingHero(_id)\r\n    returns(address){\r\n        return(ownerOf(heros[_id].tokenId));\r\n    }\r\n\r\n    function getItemOwner(uint256 _id)\r\n    public\r\n    view\r\n    existingItem(_id)\r\n    returns(address){\r\n        return(ownerOf(items[_id].tokenId));\r\n    }\r\n\r\n    function getNFTCount(address _account)// return the total number of nfts owned by user\r\n    public\r\n    view\r\n    returns(uint256){\r\n        return balanceOf(_account);\r\n    }\r\n\r\n    function getHeroCount()// return total numbers of heros\r\n    public\r\n    view\r\n    returns (uint256){\r\n        return heros.length;\r\n    }\r\n\r\n    function getItemCount()// returns the total number of items\r\n    public\r\n    view\r\n    returns (uint256){\r\n        return items.length;\r\n    }\r\n\r\n    function getHeroNFTs(address _account) // returns the index of heros from array heros owned by user\r\n    public\r\n    view\r\n    returns(uint256[] memory){\r\n        return ownerToHeros[_account];\r\n    }\r\n\r\n    function getItemNFTs(address _account) // returns the index of items from array items owned by user\r\n    public\r\n    view\r\n    returns(uint256[] memory){\r\n        return ownerToItems[_account];\r\n    }\r\n\r\n    function equipItem(uint256 _heroId, uint256 _itemId,uint16 _strength, uint16 _agility, uint16 _intelligence, uint16 _damage, uint16 _armor, uint16 _mana, uint16 _movementSpeed)\r\n    public\r\n    existingHero(_heroId)\r\n    existingItem(_itemId)\r\n    heroOwnerOnly(_heroId)\r\n    itemOwnerOnly(_itemId){\r\n        require(heroToItems[_heroId].length < 7, \"Maximum 6 items can be infused\");\r\n        require(equippedItems[_itemId] == false, \"Item is already equipped.\");\r\n        heros[_heroId].strength += _strength;\r\n        heros[_heroId].agility += _agility;\r\n        heros[_heroId].intelligence += _intelligence;\r\n        heros[_heroId].hitPoints += (_strength * 20);\r\n        heros[_heroId].mana += (_intelligence * 11);\r\n        updateRest(_heroId, _damage, _armor, _mana, _movementSpeed);\r\n        heroToItems[_heroId].push(_itemId); // add the item id in items of hero mapping.\r\n        equippedItems[_itemId] = true;\r\n    }\r\n\r\n    function updateRest(uint256 _heroId, uint16 _damage, uint16 _armor, uint16 _mana, uint16 _movementSpeed)\r\n    internal{\r\n                heros[_heroId].damage += _damage;\r\n        heros[_heroId].armor += _armor;\r\n        heros[_heroId].mana += _mana;\r\n        heros[_heroId].movementSpeed += _movementSpeed;\r\n    }\r\n\r\n    function getEquippedItems(uint256 _id)\r\n    public\r\n    view\r\n    existingHero(_id)\r\n    returns(uint256[] memory, uint8[] memory){\r\n        uint256[] memory item = heroToItems[_id];\r\n        uint256[] memory ids = new uint256[](item.length);\r\n        uint8[] memory codes = new uint8[](item.length);\r\n        for(uint8 i=0;i<item.length;i++){\r\n            ids[i] = item[i];\r\n            codes[i] = items[item[i]].itemCode;\r\n        }\r\n\r\n        return (ids, codes);\r\n    }\r\n}",
  "sourcePath": "D:/Blockchain/chainlink Hackethone/dota-nft/contracts/Dota.sol",
  "compiler": {
    "name": "solc",
    "version": "0.6.6+commit.6c089d02.Emscripten.clang"
  },
  "schemaVersion": "3.3.4",
  "updatedAt": "2021-04-08T18:57:17.514Z",
  "networkType": "ethereum",
  "devdoc": {
    "methods": {
      "approve(address,uint256)": {
        "details": "See {IERC721-approve}."
      },
      "balanceOf(address)": {
        "details": "See {IERC721-balanceOf}."
      },
      "baseURI()": {
        "details": "Returns the base URI set via {_setBaseURI}. This will be automatically added as a prefix in {tokenURI} to each token's URI, or to the token ID if no specific URI is set for that token ID."
      },
      "getApproved(uint256)": {
        "details": "See {IERC721-getApproved}."
      },
      "isApprovedForAll(address,address)": {
        "details": "See {IERC721-isApprovedForAll}."
      },
      "name()": {
        "details": "See {IERC721Metadata-name}."
      },
      "ownerOf(uint256)": {
        "details": "See {IERC721-ownerOf}."
      },
      "safeTransferFrom(address,address,uint256)": {
        "details": "See {IERC721-safeTransferFrom}."
      },
      "safeTransferFrom(address,address,uint256,bytes)": {
        "details": "See {IERC721-safeTransferFrom}."
      },
      "setApprovalForAll(address,bool)": {
        "details": "See {IERC721-setApprovalForAll}."
      },
      "supportsInterface(bytes4)": {
        "details": "See {IERC165-supportsInterface}.     * Time complexity O(1), guaranteed to always use less than 30 000 gas."
      },
      "symbol()": {
        "details": "See {IERC721Metadata-symbol}."
      },
      "tokenByIndex(uint256)": {
        "details": "See {IERC721Enumerable-tokenByIndex}."
      },
      "tokenOfOwnerByIndex(address,uint256)": {
        "details": "See {IERC721Enumerable-tokenOfOwnerByIndex}."
      },
      "tokenURI(uint256)": {
        "details": "See {IERC721Metadata-tokenURI}."
      },
      "totalSupply()": {
        "details": "See {IERC721Enumerable-totalSupply}."
      },
      "transferFrom(address,address,uint256)": {
        "details": "See {IERC721-transferFrom}."
      }
    }
  },
  "userdoc": {
    "methods": {}
  }
}