{
  "contractName": "Dota",
  "abi": [
    {
      "inputs": [
        {
          "internalType": "address",
          "name": "_VRFCoordinator",
          "type": "address"
        },
        {
          "internalType": "address",
          "name": "_LinkToken",
          "type": "address"
        },
        {
          "internalType": "bytes32",
          "name": "_keyHash",
          "type": "bytes32"
        }
      ],
      "stateMutability": "nonpayable",
      "type": "constructor"
    },
    {
      "anonymous": false,
      "inputs": [
        {
          "indexed": true,
          "internalType": "address",
          "name": "owner",
          "type": "address"
        },
        {
          "indexed": true,
          "internalType": "address",
          "name": "approved",
          "type": "address"
        },
        {
          "indexed": true,
          "internalType": "uint256",
          "name": "tokenId",
          "type": "uint256"
        }
      ],
      "name": "Approval",
      "type": "event"
    },
    {
      "anonymous": false,
      "inputs": [
        {
          "indexed": true,
          "internalType": "address",
          "name": "owner",
          "type": "address"
        },
        {
          "indexed": true,
          "internalType": "address",
          "name": "operator",
          "type": "address"
        },
        {
          "indexed": false,
          "internalType": "bool",
          "name": "approved",
          "type": "bool"
        }
      ],
      "name": "ApprovalForAll",
      "type": "event"
    },
    {
      "anonymous": false,
      "inputs": [
        {
          "indexed": true,
          "internalType": "address",
          "name": "from",
          "type": "address"
        },
        {
          "indexed": true,
          "internalType": "address",
          "name": "to",
          "type": "address"
        },
        {
          "indexed": true,
          "internalType": "uint256",
          "name": "tokenId",
          "type": "uint256"
        }
      ],
      "name": "Transfer",
      "type": "event"
    },
    {
      "inputs": [],
      "name": "LinkToken",
      "outputs": [
        {
          "internalType": "address",
          "name": "",
          "type": "address"
        }
      ],
      "stateMutability": "view",
      "type": "function",
      "constant": true
    },
    {
      "inputs": [],
      "name": "VRFCoordinator",
      "outputs": [
        {
          "internalType": "address",
          "name": "",
          "type": "address"
        }
      ],
      "stateMutability": "view",
      "type": "function",
      "constant": true
    },
    {
      "inputs": [
        {
          "internalType": "address",
          "name": "to",
          "type": "address"
        },
        {
          "internalType": "uint256",
          "name": "tokenId",
          "type": "uint256"
        }
      ],
      "name": "approve",
      "outputs": [],
      "stateMutability": "nonpayable",
      "type": "function"
    },
    {
      "inputs": [
        {
          "internalType": "address",
          "name": "owner",
          "type": "address"
        }
      ],
      "name": "balanceOf",
      "outputs": [
        {
          "internalType": "uint256",
          "name": "",
          "type": "uint256"
        }
      ],
      "stateMutability": "view",
      "type": "function",
      "constant": true
    },
    {
      "inputs": [],
      "name": "baseURI",
      "outputs": [
        {
          "internalType": "string",
          "name": "",
          "type": "string"
        }
      ],
      "stateMutability": "view",
      "type": "function",
      "constant": true
    },
    {
      "inputs": [
        {
          "internalType": "uint256",
          "name": "tokenId",
          "type": "uint256"
        }
      ],
      "name": "getApproved",
      "outputs": [
        {
          "internalType": "address",
          "name": "",
          "type": "address"
        }
      ],
      "stateMutability": "view",
      "type": "function",
      "constant": true
    },
    {
      "inputs": [
        {
          "internalType": "uint256",
          "name": "",
          "type": "uint256"
        }
      ],
      "name": "heros",
      "outputs": [
        {
          "internalType": "uint8",
          "name": "heroCode",
          "type": "uint8"
        },
        {
          "internalType": "string",
          "name": "name",
          "type": "string"
        },
        {
          "internalType": "uint8",
          "name": "level",
          "type": "uint8"
        },
        {
          "internalType": "uint16",
          "name": "damage",
          "type": "uint16"
        },
        {
          "internalType": "uint16",
          "name": "strength",
          "type": "uint16"
        },
        {
          "internalType": "uint16",
          "name": "agility",
          "type": "uint16"
        },
        {
          "internalType": "uint16",
          "name": "intelligence",
          "type": "uint16"
        },
        {
          "internalType": "uint16",
          "name": "hitPoints",
          "type": "uint16"
        },
        {
          "internalType": "uint16",
          "name": "mana",
          "type": "uint16"
        },
        {
          "internalType": "uint16",
          "name": "movementSpeed",
          "type": "uint16"
        }
      ],
      "stateMutability": "view",
      "type": "function",
      "constant": true
    },
    {
      "inputs": [
        {
          "internalType": "address",
          "name": "owner",
          "type": "address"
        },
        {
          "internalType": "address",
          "name": "operator",
          "type": "address"
        }
      ],
      "name": "isApprovedForAll",
      "outputs": [
        {
          "internalType": "bool",
          "name": "",
          "type": "bool"
        }
      ],
      "stateMutability": "view",
      "type": "function",
      "constant": true
    },
    {
      "inputs": [
        {
          "internalType": "uint256",
          "name": "",
          "type": "uint256"
        }
      ],
      "name": "items",
      "outputs": [
        {
          "internalType": "uint8",
          "name": "itemCode",
          "type": "uint8"
        },
        {
          "internalType": "uint16",
          "name": "damage",
          "type": "uint16"
        },
        {
          "internalType": "uint16",
          "name": "strength",
          "type": "uint16"
        },
        {
          "internalType": "uint16",
          "name": "agility",
          "type": "uint16"
        },
        {
          "internalType": "uint16",
          "name": "intelligence",
          "type": "uint16"
        },
        {
          "internalType": "uint16",
          "name": "hitPoints",
          "type": "uint16"
        },
        {
          "internalType": "uint16",
          "name": "mana",
          "type": "uint16"
        },
        {
          "internalType": "uint16",
          "name": "movementSpeed",
          "type": "uint16"
        },
        {
          "internalType": "uint8",
          "name": "enhancement",
          "type": "uint8"
        }
      ],
      "stateMutability": "view",
      "type": "function",
      "constant": true
    },
    {
      "inputs": [],
      "name": "name",
      "outputs": [
        {
          "internalType": "string",
          "name": "",
          "type": "string"
        }
      ],
      "stateMutability": "view",
      "type": "function",
      "constant": true
    },
    {
      "inputs": [],
      "name": "number",
      "outputs": [
        {
          "internalType": "uint256",
          "name": "",
          "type": "uint256"
        }
      ],
      "stateMutability": "view",
      "type": "function",
      "constant": true
    },
    {
      "inputs": [
        {
          "internalType": "uint256",
          "name": "tokenId",
          "type": "uint256"
        }
      ],
      "name": "ownerOf",
      "outputs": [
        {
          "internalType": "address",
          "name": "",
          "type": "address"
        }
      ],
      "stateMutability": "view",
      "type": "function",
      "constant": true
    },
    {
      "inputs": [
        {
          "internalType": "bytes32",
          "name": "requestId",
          "type": "bytes32"
        },
        {
          "internalType": "uint256",
          "name": "randomness",
          "type": "uint256"
        }
      ],
      "name": "rawFulfillRandomness",
      "outputs": [],
      "stateMutability": "nonpayable",
      "type": "function"
    },
    {
      "inputs": [
        {
          "internalType": "address",
          "name": "from",
          "type": "address"
        },
        {
          "internalType": "address",
          "name": "to",
          "type": "address"
        },
        {
          "internalType": "uint256",
          "name": "tokenId",
          "type": "uint256"
        }
      ],
      "name": "safeTransferFrom",
      "outputs": [],
      "stateMutability": "nonpayable",
      "type": "function"
    },
    {
      "inputs": [
        {
          "internalType": "address",
          "name": "from",
          "type": "address"
        },
        {
          "internalType": "address",
          "name": "to",
          "type": "address"
        },
        {
          "internalType": "uint256",
          "name": "tokenId",
          "type": "uint256"
        },
        {
          "internalType": "bytes",
          "name": "_data",
          "type": "bytes"
        }
      ],
      "name": "safeTransferFrom",
      "outputs": [],
      "stateMutability": "nonpayable",
      "type": "function"
    },
    {
      "inputs": [
        {
          "internalType": "address",
          "name": "operator",
          "type": "address"
        },
        {
          "internalType": "bool",
          "name": "approved",
          "type": "bool"
        }
      ],
      "name": "setApprovalForAll",
      "outputs": [],
      "stateMutability": "nonpayable",
      "type": "function"
    },
    {
      "inputs": [
        {
          "internalType": "bytes4",
          "name": "interfaceId",
          "type": "bytes4"
        }
      ],
      "name": "supportsInterface",
      "outputs": [
        {
          "internalType": "bool",
          "name": "",
          "type": "bool"
        }
      ],
      "stateMutability": "view",
      "type": "function",
      "constant": true
    },
    {
      "inputs": [],
      "name": "symbol",
      "outputs": [
        {
          "internalType": "string",
          "name": "",
          "type": "string"
        }
      ],
      "stateMutability": "view",
      "type": "function",
      "constant": true
    },
    {
      "inputs": [
        {
          "internalType": "uint256",
          "name": "index",
          "type": "uint256"
        }
      ],
      "name": "tokenByIndex",
      "outputs": [
        {
          "internalType": "uint256",
          "name": "",
          "type": "uint256"
        }
      ],
      "stateMutability": "view",
      "type": "function",
      "constant": true
    },
    {
      "inputs": [
        {
          "internalType": "address",
          "name": "owner",
          "type": "address"
        },
        {
          "internalType": "uint256",
          "name": "index",
          "type": "uint256"
        }
      ],
      "name": "tokenOfOwnerByIndex",
      "outputs": [
        {
          "internalType": "uint256",
          "name": "",
          "type": "uint256"
        }
      ],
      "stateMutability": "view",
      "type": "function",
      "constant": true
    },
    {
      "inputs": [
        {
          "internalType": "uint256",
          "name": "tokenId",
          "type": "uint256"
        }
      ],
      "name": "tokenURI",
      "outputs": [
        {
          "internalType": "string",
          "name": "",
          "type": "string"
        }
      ],
      "stateMutability": "view",
      "type": "function",
      "constant": true
    },
    {
      "inputs": [],
      "name": "totalSupply",
      "outputs": [
        {
          "internalType": "uint256",
          "name": "",
          "type": "uint256"
        }
      ],
      "stateMutability": "view",
      "type": "function",
      "constant": true
    },
    {
      "inputs": [
        {
          "internalType": "address",
          "name": "from",
          "type": "address"
        },
        {
          "internalType": "address",
          "name": "to",
          "type": "address"
        },
        {
          "internalType": "uint256",
          "name": "tokenId",
          "type": "uint256"
        }
      ],
      "name": "transferFrom",
      "outputs": [],
      "stateMutability": "nonpayable",
      "type": "function"
    },
    {
      "inputs": [
        {
          "internalType": "uint256",
          "name": "_seed",
          "type": "uint256"
        },
        {
          "internalType": "string",
          "name": "_name",
          "type": "string"
        }
      ],
      "name": "requestHero",
      "outputs": [
        {
          "internalType": "bytes32",
          "name": "",
          "type": "bytes32"
        }
      ],
      "stateMutability": "nonpayable",
      "type": "function"
    },
    {
      "inputs": [
        {
          "internalType": "uint256",
          "name": "_seed",
          "type": "uint256"
        }
      ],
      "name": "requestItem",
      "outputs": [
        {
          "internalType": "bytes32",
          "name": "",
          "type": "bytes32"
        }
      ],
      "stateMutability": "nonpayable",
      "type": "function"
    },
    {
      "inputs": [
        {
          "internalType": "uint256",
          "name": "id",
          "type": "uint256"
        }
      ],
      "name": "getHero",
      "outputs": [
        {
          "internalType": "uint8",
          "name": "",
          "type": "uint8"
        },
        {
          "internalType": "string",
          "name": "",
          "type": "string"
        },
        {
          "internalType": "uint8",
          "name": "",
          "type": "uint8"
        },
        {
          "internalType": "uint16",
          "name": "",
          "type": "uint16"
        },
        {
          "internalType": "uint16",
          "name": "",
          "type": "uint16"
        },
        {
          "internalType": "uint16",
          "name": "",
          "type": "uint16"
        },
        {
          "internalType": "uint16",
          "name": "",
          "type": "uint16"
        },
        {
          "internalType": "uint16",
          "name": "",
          "type": "uint16"
        },
        {
          "internalType": "uint16",
          "name": "",
          "type": "uint16"
        },
        {
          "internalType": "uint16",
          "name": "",
          "type": "uint16"
        }
      ],
      "stateMutability": "view",
      "type": "function",
      "constant": true
    },
    {
      "inputs": [
        {
          "internalType": "uint256",
          "name": "id",
          "type": "uint256"
        }
      ],
      "name": "getItem",
      "outputs": [
        {
          "internalType": "uint8",
          "name": "",
          "type": "uint8"
        },
        {
          "internalType": "uint16",
          "name": "",
          "type": "uint16"
        },
        {
          "internalType": "uint16",
          "name": "",
          "type": "uint16"
        },
        {
          "internalType": "uint16",
          "name": "",
          "type": "uint16"
        },
        {
          "internalType": "uint16",
          "name": "",
          "type": "uint16"
        },
        {
          "internalType": "uint16",
          "name": "",
          "type": "uint16"
        },
        {
          "internalType": "uint16",
          "name": "",
          "type": "uint16"
        },
        {
          "internalType": "uint16",
          "name": "",
          "type": "uint16"
        },
        {
          "internalType": "uint8",
          "name": "",
          "type": "uint8"
        }
      ],
      "stateMutability": "view",
      "type": "function",
      "constant": true
    },
    {
      "inputs": [],
      "name": "withdrawLink",
      "outputs": [],
      "stateMutability": "nonpayable",
      "type": "function"
    },
    {
      "inputs": [],
      "name": "linkBalance",
      "outputs": [
        {
          "internalType": "uint256",
          "name": "",
          "type": "uint256"
        }
      ],
      "stateMutability": "view",
      "type": "function",
      "constant": true
    },
    {
      "inputs": [
        {
          "internalType": "address",
          "name": "_account",
          "type": "address"
        }
      ],
      "name": "getNFTCount",
      "outputs": [
        {
          "internalType": "uint256",
          "name": "",
          "type": "uint256"
        }
      ],
      "stateMutability": "view",
      "type": "function",
      "constant": true
    },
    {
      "inputs": [],
      "name": "getHeroCount",
      "outputs": [
        {
          "internalType": "uint256",
          "name": "",
          "type": "uint256"
        }
      ],
      "stateMutability": "view",
      "type": "function",
      "constant": true
    },
    {
      "inputs": [],
      "name": "getItemCount",
      "outputs": [
        {
          "internalType": "uint256",
          "name": "",
          "type": "uint256"
        }
      ],
      "stateMutability": "view",
      "type": "function",
      "constant": true
    },
    {
      "inputs": [
        {
          "internalType": "address",
          "name": "_account",
          "type": "address"
        }
      ],
      "name": "getHeroNFTs",
      "outputs": [
        {
          "internalType": "uint256[]",
          "name": "",
          "type": "uint256[]"
        }
      ],
      "stateMutability": "view",
      "type": "function",
      "constant": true
    },
    {
      "inputs": [
        {
          "internalType": "address",
          "name": "_account",
          "type": "address"
        }
      ],
      "name": "getItemNFTs",
      "outputs": [
        {
          "internalType": "uint256[]",
          "name": "",
          "type": "uint256[]"
        }
      ],
      "stateMutability": "view",
      "type": "function",
      "constant": true
    }
  ],
  "bytecode": "0x60c06040523480156200001157600080fd5b506040516200556338038062005563833981810160405260608110156200003757600080fd5b810190808051906020019092919080519060200190929190805190602001909291905050506040518060400160405280601481526020017f446566656e63654f66546865416e6369656e74730000000000000000000000008152506040518060400160405280600481526020017f444f54410000000000000000000000000000000000000000000000000000000081525084848173ffffffffffffffffffffffffffffffffffffffff1660a08173ffffffffffffffffffffffffffffffffffffffff1660601b815250508073ffffffffffffffffffffffffffffffffffffffff1660808173ffffffffffffffffffffffffffffffffffffffff1660601b815250505050620001526301ffc9a760e01b620002b060201b60201c565b81600790805190602001906200016a929190620003b9565b50806008908051906020019062000183929190620003b9565b506200019c6380ac58cd60e01b620002b060201b60201c565b620001b4635b5e139f60e01b620002b060201b60201c565b620001cc63780e9d6360e01b620002b060201b60201c565b505082600f60006101000a81548173ffffffffffffffffffffffffffffffffffffffff021916908373ffffffffffffffffffffffffffffffffffffffff16021790555081601060006101000a81548173ffffffffffffffffffffffffffffffffffffffff021916908373ffffffffffffffffffffffffffffffffffffffff16021790555080600e8190555067016345785d8a0000600d8190555033600c60006101000a81548173ffffffffffffffffffffffffffffffffffffffff021916908373ffffffffffffffffffffffffffffffffffffffff16021790555050505062000468565b63ffffffff60e01b817bffffffffffffffffffffffffffffffffffffffffffffffffffffffff191614156200034d576040517f08c379a000000000000000000000000000000000000000000000000000000000815260040180806020018281038252601c8152602001807f4552433136353a20696e76616c696420696e746572666163652069640000000081525060200191505060405180910390fd5b6001806000837bffffffffffffffffffffffffffffffffffffffffffffffffffffffff19167bffffffffffffffffffffffffffffffffffffffffffffffffffffffff1916815260200190815260200160002060006101000a81548160ff02191690831515021790555050565b828054600181600116156101000203166002900490600052602060002090601f016020900481019282601f10620003fc57805160ff19168380011785556200042d565b828001600101855582156200042d579182015b828111156200042c5782518255916020019190600101906200040f565b5b5090506200043c919062000440565b5090565b6200046591905b808211156200046157600081600090555060010162000447565b5090565b90565b60805160601c60a05160601c6150b3620004b0600039806122de528061330d5250806117a552806120b152806120ee52806127545280612b0752806132d152506150b36000f3fe608060405234801561001057600080fd5b50600436106102065760003560e01c80637749cf231161011a578063b88d4fde116100ad578063d62a48871161007c578063d62a488714610f0c578063d8faebfb14610f4e578063e985e9c514610fe7578063f41d3f6914611063578063f85d2c94146110bb57610206565b8063b88d4fde14610c84578063bfb231d214610d89578063c26ecefa14610e47578063c87b56dd14610e6557610206565b80638dc654a2116100e95780638dc654a214610b6f57806394985ddd14610b7957806395d89b4114610bb1578063a22cb46514610c3457610206565b80637749cf23146109eb5780637754838214610a09578063814aab7814610a275780638381f58a14610b5157610206565b80632f745c591161019d5780634f6ccce71161016c5780634f6ccce7146108165780634f8e2fdf146108585780636352211e146108a25780636c0360eb1461091057806370a082311461099357610206565b80632f745c591461063e5780633129e773146106a057806333b608631461075e57806342842e0e146107a857610206565b806318160ddd116101d957806318160ddd146103af57806321d80111146103cd57806323b872dd146104f75780632f255c151461056557610206565b806301ffc9a71461020b57806306fdde0314610270578063081812fc146102f3578063095ea7b314610361575b600080fd5b6102566004803603602081101561022157600080fd5b8101908080357bffffffffffffffffffffffffffffffffffffffffffffffffffffffff19169060200190929190505050611154565b604051808215151515815260200191505060405180910390f35b6102786111bc565b6040518080602001828103825283818151815260200191508051906020019080838360005b838110156102b857808201518184015260208101905061029d565b50505050905090810190601f1680156102e55780820380516001836020036101000a031916815260200191505b509250505060405180910390f35b61031f6004803603602081101561030957600080fd5b810190808035906020019092919050505061125e565b604051808273ffffffffffffffffffffffffffffffffffffffff1673ffffffffffffffffffffffffffffffffffffffff16815260200191505060405180910390f35b6103ad6004803603604081101561037757600080fd5b81019080803573ffffffffffffffffffffffffffffffffffffffff169060200190929190803590602001909291905050506112f9565b005b6103b761143d565b6040518082815260200191505060405180910390f35b6103f9600480360360208110156103e357600080fd5b810190808035906020019092919050505061144e565b604051808b60ff1660ff168152602001806020018a60ff1660ff1681526020018961ffff1661ffff1681526020018861ffff1661ffff1681526020018761ffff1661ffff1681526020018661ffff1661ffff1681526020018561ffff1661ffff1681526020018461ffff1661ffff1681526020018361ffff1661ffff16815260200182810382528b818151815260200191508051906020019080838360005b838110156104b3578082015181840152602081019050610498565b50505050905090810190601f1680156104e05780820380516001836020036101000a031916815260200191505b509b50505050505050505050505060405180910390f35b6105636004803603606081101561050d57600080fd5b81019080803573ffffffffffffffffffffffffffffffffffffffff169060200190929190803573ffffffffffffffffffffffffffffffffffffffff16906020019092919080359060200190929190505050611728565b005b6106286004803603604081101561057b57600080fd5b8101908080359060200190929190803590602001906401000000008111156105a257600080fd5b8201836020820111156105b457600080fd5b803590602001918460018302840111640100000000831117156105d657600080fd5b91908080601f016020809104026020016040519081016040528093929190818152602001838380828437600081840152601f19601f82011690508083019250505050505050919291929050505061179e565b6040518082815260200191505060405180910390f35b61068a6004803603604081101561065457600080fd5b81019080803573ffffffffffffffffffffffffffffffffffffffff16906020019092919080359060200190929190505050611996565b6040518082815260200191505060405180910390f35b6106cc600480360360208110156106b657600080fd5b81019080803590602001909291905050506119f1565b604051808a60ff1660ff1681526020018961ffff1661ffff1681526020018861ffff1661ffff1681526020018761ffff1661ffff1681526020018661ffff1661ffff1681526020018561ffff1661ffff1681526020018461ffff1661ffff1681526020018361ffff1661ffff1681526020018260ff1660ff168152602001995050505050505050505060405180910390f35b610766611c1a565b604051808273ffffffffffffffffffffffffffffffffffffffff1673ffffffffffffffffffffffffffffffffffffffff16815260200191505060405180910390f35b610814600480360360608110156107be57600080fd5b81019080803573ffffffffffffffffffffffffffffffffffffffff169060200190929190803573ffffffffffffffffffffffffffffffffffffffff16906020019092919080359060200190929190505050611c40565b005b6108426004803603602081101561082c57600080fd5b8101908080359060200190929190505050611c60565b6040518082815260200191505060405180910390f35b610860611c83565b604051808273ffffffffffffffffffffffffffffffffffffffff1673ffffffffffffffffffffffffffffffffffffffff16815260200191505060405180910390f35b6108ce600480360360208110156108b857600080fd5b8101908080359060200190929190505050611ca9565b604051808273ffffffffffffffffffffffffffffffffffffffff1673ffffffffffffffffffffffffffffffffffffffff16815260200191505060405180910390f35b610918611ce0565b6040518080602001828103825283818151815260200191508051906020019080838360005b8381101561095857808201518184015260208101905061093d565b50505050905090810190601f1680156109855780820380516001836020036101000a031916815260200191505b509250505060405180910390f35b6109d5600480360360208110156109a957600080fd5b81019080803573ffffffffffffffffffffffffffffffffffffffff169060200190929190505050611d82565b6040518082815260200191505060405180910390f35b6109f3611e57565b6040518082815260200191505060405180910390f35b610a11611e64565b6040518082815260200191505060405180910390f35b610a5360048036036020811015610a3d57600080fd5b8101908080359060200190929190505050611e71565b604051808b60ff1660ff168152602001806020018a60ff1660ff1681526020018961ffff1661ffff1681526020018861ffff1661ffff1681526020018761ffff1661ffff1681526020018661ffff1661ffff1681526020018561ffff1661ffff1681526020018461ffff1661ffff1681526020018361ffff1661ffff16815260200182810382528b818151815260200191508051906020019080838360005b83811015610b0d578082015181840152602081019050610af2565b50505050905090810190601f168015610b3a5780820380516001836020036101000a031916815260200191505b509b50505050505050505050505060405180910390f35b610b59611fe6565b6040518082815260200191505060405180910390f35b610b77611fec565b005b610baf60048036036040811015610b8f57600080fd5b8101908080359060200190929190803590602001909291905050506122dc565b005b610bb96123ab565b6040518080602001828103825283818151815260200191508051906020019080838360005b83811015610bf9578082015181840152602081019050610bde565b50505050905090810190601f168015610c265780820380516001836020036101000a031916815260200191505b509250505060405180910390f35b610c8260048036036040811015610c4a57600080fd5b81019080803573ffffffffffffffffffffffffffffffffffffffff16906020019092919080351515906020019092919050505061244d565b005b610d8760048036036080811015610c9a57600080fd5b81019080803573ffffffffffffffffffffffffffffffffffffffff169060200190929190803573ffffffffffffffffffffffffffffffffffffffff1690602001909291908035906020019092919080359060200190640100000000811115610d0157600080fd5b820183602082011115610d1357600080fd5b80359060200191846001830284011164010000000083111715610d3557600080fd5b91908080601f016020809104026020016040519081016040528093929190818152602001838380828437600081840152601f19601f820116905080830192505050505050509192919290505050612605565b005b610db560048036036020811015610d9f57600080fd5b810190808035906020019092919050505061267d565b604051808a60ff1660ff1681526020018961ffff1661ffff1681526020018861ffff1661ffff1681526020018761ffff1661ffff1681526020018661ffff1661ffff1681526020018561ffff1661ffff1681526020018461ffff1661ffff1681526020018361ffff1661ffff1681526020018260ff1660ff168152602001995050505050505050505060405180910390f35b610e4f612750565b6040518082815260200191505060405180910390f35b610e9160048036036020811015610e7b57600080fd5b810190808035906020019092919050505061282f565b6040518080602001828103825283818151815260200191508051906020019080838360005b83811015610ed1578082015181840152602081019050610eb6565b50505050905090810190601f168015610efe5780820380516001836020036101000a031916815260200191505b509250505060405180910390f35b610f3860048036036020811015610f2257600080fd5b8101908080359060200190929190505050612b00565b6040518082815260200191505060405180910390f35b610f9060048036036020811015610f6457600080fd5b81019080803573ffffffffffffffffffffffffffffffffffffffff169060200190929190505050612ccf565b6040518080602001828103825283818151815260200191508051906020019060200280838360005b83811015610fd3578082015181840152602081019050610fb8565b505050509050019250505060405180910390f35b61104960048036036040811015610ffd57600080fd5b81019080803573ffffffffffffffffffffffffffffffffffffffff169060200190929190803573ffffffffffffffffffffffffffffffffffffffff169060200190929190505050612d66565b604051808215151515815260200191505060405180910390f35b6110a56004803603602081101561107957600080fd5b81019080803573ffffffffffffffffffffffffffffffffffffffff169060200190929190505050612dfa565b6040518082815260200191505060405180910390f35b6110fd600480360360208110156110d157600080fd5b81019080803573ffffffffffffffffffffffffffffffffffffffff169060200190929190505050612e0c565b6040518080602001828103825283818151815260200191508051906020019060200280838360005b83811015611140578082015181840152602081019050611125565b505050509050019250505060405180910390f35b600060016000837bffffffffffffffffffffffffffffffffffffffffffffffffffffffff19167bffffffffffffffffffffffffffffffffffffffffffffffffffffffff1916815260200190815260200160002060009054906101000a900460ff169050919050565b606060078054600181600116156101000203166002900480601f0160208091040260200160405190810160405280929190818152602001828054600181600116156101000203166002900480156112545780601f1061122957610100808354040283529160200191611254565b820191906000526020600020905b81548152906001019060200180831161123757829003601f168201915b5050505050905090565b600061126982612ea3565b6112be576040517f08c379a000000000000000000000000000000000000000000000000000000000815260040180806020018281038252602c815260200180614fa8602c913960400191505060405180910390fd5b6005600083815260200190815260200160002060009054906101000a900473ffffffffffffffffffffffffffffffffffffffff169050919050565b600061130482611ca9565b90508073ffffffffffffffffffffffffffffffffffffffff168373ffffffffffffffffffffffffffffffffffffffff16141561138b576040517f08c379a000000000000000000000000000000000000000000000000000000000815260040180806020018281038252602181526020018061502c6021913960400191505060405180910390fd5b8073ffffffffffffffffffffffffffffffffffffffff166113aa612ec0565b73ffffffffffffffffffffffffffffffffffffffff1614806113d957506113d8816113d3612ec0565b612d66565b5b61142e576040517f08c379a0000000000000000000000000000000000000000000000000000000008152600401808060200182810382526038815260200180614efb6038913960400191505060405180910390fd5b6114388383612ec8565b505050565b60006114496003612f81565b905090565b6000606060008060008060008060008060008b1015801561147357506011805490508b105b6114e5576040517f08c379a00000000000000000000000000000000000000000000000000000000081526004018080602001828103825260158152602001807f4865726f20646f6573206e6f74206578697374732e000000000000000000000081525060200191505060405180910390fd5b6114ed614c7d565b60118c815481106114fa57fe5b9060005260206000209060030201604051806101400160405290816000820160009054906101000a900460ff1660ff1660ff168152602001600182018054600181600116156101000203166002900480601f0160208091040260200160405190810160405280929190818152602001828054600181600116156101000203166002900480156115ca5780601f1061159f576101008083540402835291602001916115ca565b820191906000526020600020905b8154815290600101906020018083116115ad57829003601f168201915b505050505081526020016002820160009054906101000a900460ff1660ff1660ff1681526020016002820160019054906101000a900461ffff1661ffff1661ffff1681526020016002820160039054906101000a900461ffff1661ffff1661ffff1681526020016002820160059054906101000a900461ffff1661ffff1661ffff1681526020016002820160079054906101000a900461ffff1661ffff1661ffff1681526020016002820160099054906101000a900461ffff1661ffff1661ffff16815260200160028201600b9054906101000a900461ffff1661ffff1661ffff16815260200160028201600d9054906101000a900461ffff1661ffff1661ffff16815250509050806000015181602001518260400151836060015184608001518560a001518660c001518760e001518861010001518961012001519a509a509a509a509a509a509a509a509a509a50509193959799509193959799565b611739611733612ec0565b82612f96565b61178e576040517f08c379a000000000000000000000000000000000000000000000000000000000815260040180806020018281038252603181526020018061504d6031913960400191505060405180910390fd5b61179983838361308a565b505050565b6000600d547f000000000000000000000000000000000000000000000000000000000000000073ffffffffffffffffffffffffffffffffffffffff166370a08231306040518263ffffffff1660e01b8152600401808273ffffffffffffffffffffffffffffffffffffffff1673ffffffffffffffffffffffffffffffffffffffff16815260200191505060206040518083038186803b15801561184057600080fd5b505afa158015611854573d6000803e3d6000fd5b505050506040513d602081101561186a57600080fd5b810190808051906020019092919050505010156118d2576040517f08c379a000000000000000000000000000000000000000000000000000000000815260040180806020018281038252602b815260200180614e7e602b913960400191505060405180910390fd5b60006118e3600e54600d54866132cd565b90508260146000838152602001908152602001600020908051906020019061190c929190614cf2565b50336015600083815260200190815260200160002060006101000a81548173ffffffffffffffffffffffffffffffffffffffff021916908373ffffffffffffffffffffffffffffffffffffffff16021790555060006018600083815260200190815260200160002060006101000a81548160ff021916908360ff1602179055508091505092915050565b60006119e982600260008673ffffffffffffffffffffffffffffffffffffffff1673ffffffffffffffffffffffffffffffffffffffff1681526020019081526020016000206134d890919063ffffffff16565b905092915050565b6000806000806000806000806000808a10158015611a1357506012805490508a105b611a85576040517f08c379a00000000000000000000000000000000000000000000000000000000081526004018080602001828103825260158152602001807f4974656d20646f6573206e6f74206578697374732e000000000000000000000081525060200191505060405180910390fd5b611a8d614d72565b60128b81548110611a9a57fe5b90600052602060002001604051806101200160405290816000820160009054906101000a900460ff1660ff1660ff1681526020016000820160019054906101000a900461ffff1661ffff1661ffff1681526020016000820160039054906101000a900461ffff1661ffff1661ffff1681526020016000820160059054906101000a900461ffff1661ffff1661ffff1681526020016000820160079054906101000a900461ffff1661ffff1661ffff1681526020016000820160099054906101000a900461ffff1661ffff1661ffff16815260200160008201600b9054906101000a900461ffff1661ffff1661ffff16815260200160008201600d9054906101000a900461ffff1661ffff1661ffff16815260200160008201600f9054906101000a900460ff1660ff1660ff16815250509050806000015181602001518260400151836060015184608001518560a001518660c001518760e00151886101000151995099509950995099509950995099509950509193959799909294969850565b600f60009054906101000a900473ffffffffffffffffffffffffffffffffffffffff1681565b611c5b83838360405180602001604052806000815250612605565b505050565b600080611c778360036134f290919063ffffffff16565b50905080915050919050565b601060009054906101000a900473ffffffffffffffffffffffffffffffffffffffff1681565b6000611cd982604051806060016040528060298152602001614f5d6029913960036135219092919063ffffffff16565b9050919050565b6060600a8054600181600116156101000203166002900480601f016020809104026020016040519081016040528092919081815260200182805460018160011615610100020316600290048015611d785780601f10611d4d57610100808354040283529160200191611d78565b820191906000526020600020905b815481529060010190602001808311611d5b57829003601f168201915b5050505050905090565b60008073ffffffffffffffffffffffffffffffffffffffff168273ffffffffffffffffffffffffffffffffffffffff161415611e09576040517f08c379a000000000000000000000000000000000000000000000000000000000815260040180806020018281038252602a815260200180614f33602a913960400191505060405180910390fd5b611e50600260008473ffffffffffffffffffffffffffffffffffffffff1673ffffffffffffffffffffffffffffffffffffffff168152602001908152602001600020613540565b9050919050565b6000601280549050905090565b6000601180549050905090565b60118181548110611e7e57fe5b90600052602060002090600302016000915090508060000160009054906101000a900460ff1690806001018054600181600116156101000203166002900480601f016020809104026020016040519081016040528092919081815260200182805460018160011615610100020316600290048015611f3d5780601f10611f1257610100808354040283529160200191611f3d565b820191906000526020600020905b815481529060010190602001808311611f2057829003601f168201915b5050505050908060020160009054906101000a900460ff16908060020160019054906101000a900461ffff16908060020160039054906101000a900461ffff16908060020160059054906101000a900461ffff16908060020160079054906101000a900461ffff16908060020160099054906101000a900461ffff169080600201600b9054906101000a900461ffff169080600201600d9054906101000a900461ffff1690508a565b60135481565b600c60009054906101000a900473ffffffffffffffffffffffffffffffffffffffff1673ffffffffffffffffffffffffffffffffffffffff163373ffffffffffffffffffffffffffffffffffffffff16146120af576040517f08c379a000000000000000000000000000000000000000000000000000000000815260040180806020018281038252601e8152602001807f4f6e6c79204f776e65722063616e207769746864726177204c494e4b732e000081525060200191505060405180910390fd5b7f000000000000000000000000000000000000000000000000000000000000000073ffffffffffffffffffffffffffffffffffffffff1663a9059cbb337f000000000000000000000000000000000000000000000000000000000000000073ffffffffffffffffffffffffffffffffffffffff166370a08231306040518263ffffffff1660e01b8152600401808273ffffffffffffffffffffffffffffffffffffffff1673ffffffffffffffffffffffffffffffffffffffff16815260200191505060206040518083038186803b15801561218957600080fd5b505afa15801561219d573d6000803e3d6000fd5b505050506040513d60208110156121b357600080fd5b81019080805190602001909291905050506040518363ffffffff1660e01b8152600401808373ffffffffffffffffffffffffffffffffffffffff1673ffffffffffffffffffffffffffffffffffffffff16815260200182815260200192505050602060405180830381600087803b15801561222d57600080fd5b505af1158015612241573d6000803e3d6000fd5b505050506040513d602081101561225757600080fd5b81019080805190602001909291905050506122da576040517f08c379a00000000000000000000000000000000000000000000000000000000081526004018080602001828103825260128152602001807f556e61626c6520746f207472616e73666572000000000000000000000000000081525060200191505060405180910390fd5b565b7f000000000000000000000000000000000000000000000000000000000000000073ffffffffffffffffffffffffffffffffffffffff163373ffffffffffffffffffffffffffffffffffffffff161461239d576040517f08c379a000000000000000000000000000000000000000000000000000000000815260040180806020018281038252601f8152602001807f4f6e6c7920565246436f6f7264696e61746f722063616e2066756c66696c6c0081525060200191505060405180910390fd5b6123a78282613555565b5050565b606060088054600181600116156101000203166002900480601f0160208091040260200160405190810160405280929190818152602001828054600181600116156101000203166002900480156124435780601f1061241857610100808354040283529160200191612443565b820191906000526020600020905b81548152906001019060200180831161242657829003601f168201915b5050505050905090565b612455612ec0565b73ffffffffffffffffffffffffffffffffffffffff168273ffffffffffffffffffffffffffffffffffffffff1614156124f6576040517f08c379a00000000000000000000000000000000000000000000000000000000081526004018080602001828103825260198152602001807f4552433732313a20617070726f766520746f2063616c6c65720000000000000081525060200191505060405180910390fd5b8060066000612503612ec0565b73ffffffffffffffffffffffffffffffffffffffff1673ffffffffffffffffffffffffffffffffffffffff16815260200190815260200160002060008473ffffffffffffffffffffffffffffffffffffffff1673ffffffffffffffffffffffffffffffffffffffff16815260200190815260200160002060006101000a81548160ff0219169083151502179055508173ffffffffffffffffffffffffffffffffffffffff166125b0612ec0565b73ffffffffffffffffffffffffffffffffffffffff167f17307eab39ab6107e8899845ad3d59bd9653f200f220920489ca2b5937696c3183604051808215151515815260200191505060405180910390a35050565b612616612610612ec0565b83612f96565b61266b576040517f08c379a000000000000000000000000000000000000000000000000000000000815260040180806020018281038252603181526020018061504d6031913960400191505060405180910390fd5b61267784848484613ceb565b50505050565b6012818154811061268a57fe5b906000526020600020016000915090508060000160009054906101000a900460ff16908060000160019054906101000a900461ffff16908060000160039054906101000a900461ffff16908060000160059054906101000a900461ffff16908060000160079054906101000a900461ffff16908060000160099054906101000a900461ffff169080600001600b9054906101000a900461ffff169080600001600d9054906101000a900461ffff169080600001600f9054906101000a900460ff16905089565b60007f000000000000000000000000000000000000000000000000000000000000000073ffffffffffffffffffffffffffffffffffffffff166370a08231306040518263ffffffff1660e01b8152600401808273ffffffffffffffffffffffffffffffffffffffff1673ffffffffffffffffffffffffffffffffffffffff16815260200191505060206040518083038186803b1580156127ef57600080fd5b505afa158015612803573d6000803e3d6000fd5b505050506040513d602081101561281957600080fd5b8101908080519060200190929190505050905090565b606061283a82612ea3565b61288f576040517f08c379a000000000000000000000000000000000000000000000000000000000815260040180806020018281038252602f815260200180614ffd602f913960400191505060405180910390fd5b6060600960008481526020019081526020016000208054600181600116156101000203166002900480601f0160208091040260200160405190810160405280929190818152602001828054600181600116156101000203166002900480156129385780601f1061290d57610100808354040283529160200191612938565b820191906000526020600020905b81548152906001019060200180831161291b57829003601f168201915b505050505090506060612949611ce0565b905060008151141561295f578192505050612afb565b600082511115612a305780826040516020018083805190602001908083835b602083106129a1578051825260208201915060208101905060208303925061297e565b6001836020036101000a03801982511681845116808217855250505050505090500182805190602001908083835b602083106129f257805182526020820191506020810190506020830392506129cf565b6001836020036101000a0380198251168184511680821785525050505050509050019250505060405160208183030381529060405292505050612afb565b80612a3a85613d5d565b6040516020018083805190602001908083835b60208310612a705780518252602082019150602081019050602083039250612a4d565b6001836020036101000a03801982511681845116808217855250505050505090500182805190602001908083835b60208310612ac15780518252602082019150602081019050602083039250612a9e565b6001836020036101000a03801982511681845116808217855250505050505090500192505050604051602081830303815290604052925050505b919050565b6000600d547f000000000000000000000000000000000000000000000000000000000000000073ffffffffffffffffffffffffffffffffffffffff166370a08231306040518263ffffffff1660e01b8152600401808273ffffffffffffffffffffffffffffffffffffffff1673ffffffffffffffffffffffffffffffffffffffff16815260200191505060206040518083038186803b158015612ba257600080fd5b505afa158015612bb6573d6000803e3d6000fd5b505050506040513d6020811015612bcc57600080fd5b81019080805190602001909291905050501015612c34576040517f08c379a000000000000000000000000000000000000000000000000000000000815260040180806020018281038252602b815260200180614e7e602b913960400191505060405180910390fd5b6000612c45600e54600d54856132cd565b9050336015600083815260200190815260200160002060006101000a81548173ffffffffffffffffffffffffffffffffffffffff021916908373ffffffffffffffffffffffffffffffffffffffff16021790555060016018600083815260200190815260200160002060006101000a81548160ff021916908360ff16021790555080915050919050565b6060601760008373ffffffffffffffffffffffffffffffffffffffff1673ffffffffffffffffffffffffffffffffffffffff168152602001908152602001600020805480602002602001604051908101604052809291908181526020018280548015612d5a57602002820191906000526020600020905b815481526020019060010190808311612d46575b50505050509050919050565b6000600660008473ffffffffffffffffffffffffffffffffffffffff1673ffffffffffffffffffffffffffffffffffffffff16815260200190815260200160002060008373ffffffffffffffffffffffffffffffffffffffff1673ffffffffffffffffffffffffffffffffffffffff16815260200190815260200160002060009054906101000a900460ff16905092915050565b6000612e0582611d82565b9050919050565b6060601660008373ffffffffffffffffffffffffffffffffffffffff1673ffffffffffffffffffffffffffffffffffffffff168152602001908152602001600020805480602002602001604051908101604052809291908181526020018280548015612e9757602002820191906000526020600020905b815481526020019060010190808311612e83575b50505050509050919050565b6000612eb9826003613ea490919063ffffffff16565b9050919050565b600033905090565b816005600083815260200190815260200160002060006101000a81548173ffffffffffffffffffffffffffffffffffffffff021916908373ffffffffffffffffffffffffffffffffffffffff160217905550808273ffffffffffffffffffffffffffffffffffffffff16612f3b83611ca9565b73ffffffffffffffffffffffffffffffffffffffff167f8c5be1e5ebec7d5bd14f71427d1e84f3dd0314c0f7b2291e5b200ac8c7c3b92560405160405180910390a45050565b6000612f8f82600001613ebe565b9050919050565b6000612fa182612ea3565b612ff6576040517f08c379a000000000000000000000000000000000000000000000000000000000815260040180806020018281038252602c815260200180614ecf602c913960400191505060405180910390fd5b600061300183611ca9565b90508073ffffffffffffffffffffffffffffffffffffffff168473ffffffffffffffffffffffffffffffffffffffff16148061307057508373ffffffffffffffffffffffffffffffffffffffff166130588461125e565b73ffffffffffffffffffffffffffffffffffffffff16145b8061308157506130808185612d66565b5b91505092915050565b8273ffffffffffffffffffffffffffffffffffffffff166130aa82611ca9565b73ffffffffffffffffffffffffffffffffffffffff1614613116576040517f08c379a0000000000000000000000000000000000000000000000000000000008152600401808060200182810382526029815260200180614fd46029913960400191505060405180910390fd5b600073ffffffffffffffffffffffffffffffffffffffff168273ffffffffffffffffffffffffffffffffffffffff16141561319c576040517f08c379a0000000000000000000000000000000000000000000000000000000008152600401808060200182810382526024815260200180614e5a6024913960400191505060405180910390fd5b6131a7838383613ecf565b6131b2600082612ec8565b61320381600260008673ffffffffffffffffffffffffffffffffffffffff1673ffffffffffffffffffffffffffffffffffffffff168152602001908152602001600020613ed490919063ffffffff16565b5061325581600260008573ffffffffffffffffffffffffffffffffffffffff1673ffffffffffffffffffffffffffffffffffffffff168152602001908152602001600020613eee90919063ffffffff16565b5061326c81836003613f089092919063ffffffff16565b50808273ffffffffffffffffffffffffffffffffffffffff168473ffffffffffffffffffffffffffffffffffffffff167fddf252ad1be2c89b69c2b068fc378daa952ba7f163c4a11628f55a4df523b3ef60405160405180910390a4505050565b60007f000000000000000000000000000000000000000000000000000000000000000073ffffffffffffffffffffffffffffffffffffffff16634000aea07f000000000000000000000000000000000000000000000000000000000000000085878660405160200180838152602001828152602001925050506040516020818303038152906040526040518463ffffffff1660e01b8152600401808473ffffffffffffffffffffffffffffffffffffffff1673ffffffffffffffffffffffffffffffffffffffff16815260200183815260200180602001828103825283818151815260200191508051906020019080838360005b838110156133dc5780820151818401526020810190506133c1565b50505050905090810190601f1680156134095780820380516001836020036101000a031916815260200191505b50945050505050602060405180830381600087803b15801561342a57600080fd5b505af115801561343e573d6000803e3d6000fd5b505050506040513d602081101561345457600080fd5b81019080805190602001909291905050505060006134868584306000808a815260200190815260200160002054613f3d565b90506134ae600160008088815260200190815260200160002054613fb790919063ffffffff16565b600080878152602001908152602001600020819055506134ce858261403f565b9150509392505050565b60006134e78360000183614078565b60001c905092915050565b60008060008061350586600001866140fb565b915091508160001c8160001c8090509350935050509250929050565b6000613534846000018460001b84614194565b60001c90509392505050565b600061354e8260000161428a565b9050919050565b8060138190555060006019612710838161356b57fe5b048161357357fe5b0690506000601962989680848161358657fe5b048161358e57fe5b069050600060196103e885816135a057fe5b04816135a857fe5b0690506000606464174876e80086816135bd57fe5b04816135c557fe5b0660c801905060006014850260c80190506000600b8502604b0190506000601e88816135ed57fe5b0690506000601860008b815260200190815260200160002060009054906101000a900460ff1660ff1614156139f3576000601180549050905060006001600c8b8161363457fe5b0601905060116040518061014001604052808360ff168152602001601460008f81526020019081526020016000208054600181600116156101000203166002900480601f0160208091040260200160405190810160405280929190818152602001828054600181600116156101000203166002900480156136f65780601f106136cb576101008083540402835291602001916136f6565b820191906000526020600020905b8154815290600101906020018083116136d957829003601f168201915b50505050508152602001600060ff1681526020018561ffff1681526020018b61ffff1681526020018961ffff1681526020018a61ffff1681526020018761ffff1681526020018661ffff1681526020018861ffff16815250908060018154018082558091505060019003906000526020600020906003020160009091909190915060008201518160000160006101000a81548160ff021916908360ff16021790555060208201518160010190805190602001906137b4929190614cf2565b5060408201518160020160006101000a81548160ff021916908360ff16021790555060608201518160020160016101000a81548161ffff021916908361ffff16021790555060808201518160020160036101000a81548161ffff021916908361ffff16021790555060a08201518160020160056101000a81548161ffff021916908361ffff16021790555060c08201518160020160076101000a81548161ffff021916908361ffff16021790555060e08201518160020160096101000a81548161ffff021916908361ffff16021790555061010082015181600201600b6101000a81548161ffff021916908361ffff16021790555061012082015181600201600d6101000a81548161ffff021916908361ffff160217905550505060058160ff1610156138e5578883019250613902565b60098160ff1610156138fb578683019250613901565b87830192505b5b600b60008154809291906001019190505550613953601560008d815260200190815260200160002060009054906101000a900473ffffffffffffffffffffffffffffffffffffffff16600b5461429b565b60166000601560008e815260200190815260200160002060009054906101000a900473ffffffffffffffffffffffffffffffffffffffff1673ffffffffffffffffffffffffffffffffffffffff1673ffffffffffffffffffffffffffffffffffffffff1681526020019081526020016000208290806001815401808255809150506001900390600052602060002001600090919091909150555050613ce0565b6000601280549050905060006001600c8b81613a0b57fe5b0601905060006001600c6402540be4008d81613a2357fe5b0681613a2b57fe5b0601905060126040518061012001604052808460ff1681526020018661ffff1681526020018c61ffff1681526020018a61ffff1681526020018b61ffff1681526020018861ffff1681526020018761ffff1681526020018961ffff1681526020018360ff168152509080600181540180825580915050600190039060005260206000200160009091909190915060008201518160000160006101000a81548160ff021916908360ff16021790555060208201518160000160016101000a81548161ffff021916908361ffff16021790555060408201518160000160036101000a81548161ffff021916908361ffff16021790555060608201518160000160056101000a81548161ffff021916908361ffff16021790555060808201518160000160076101000a81548161ffff021916908361ffff16021790555060a08201518160000160096101000a81548161ffff021916908361ffff16021790555060c082015181600001600b6101000a81548161ffff021916908361ffff16021790555060e082015181600001600d6101000a81548161ffff021916908361ffff16021790555061010082015181600001600f6101000a81548160ff021916908360ff1602179055505050600b60008154809291906001019190505550613c43601560008e815260200190815260200160002060009054906101000a900473ffffffffffffffffffffffffffffffffffffffff16600b5461429b565b60176000601560008f815260200190815260200160002060009054906101000a900473ffffffffffffffffffffffffffffffffffffffff1673ffffffffffffffffffffffffffffffffffffffff1673ffffffffffffffffffffffffffffffffffffffff1681526020019081526020016000208390806001815401808255809150506001900390600052602060002001600090919091909150555050505b505050505050505050565b613cf684848461308a565b613d02848484846142b9565b613d57576040517f08c379a0000000000000000000000000000000000000000000000000000000008152600401808060200182810382526032815260200180614e286032913960400191505060405180910390fd5b50505050565b60606000821415613da5576040518060400160405280600181526020017f30000000000000000000000000000000000000000000000000000000000000008152509050613e9f565b600082905060005b60008214613dcf578080600101915050600a8281613dc757fe5b049150613dad565b60608167ffffffffffffffff81118015613de857600080fd5b506040519080825280601f01601f191660200182016040528015613e1b5781602001600182028036833780820191505090505b50905060006001830390508593505b60008414613e9757600a8481613e3c57fe5b0660300160f81b82828060019003935081518110613e5657fe5b60200101907effffffffffffffffffffffffffffffffffffffffffffffffffffffffffffff1916908160001a905350600a8481613e8f57fe5b049350613e2a565b819450505050505b919050565b6000613eb6836000018360001b6144fe565b905092915050565b600081600001805490509050919050565b505050565b6000613ee6836000018360001b614521565b905092915050565b6000613f00836000018360001b614609565b905092915050565b6000613f34846000018460001b8473ffffffffffffffffffffffffffffffffffffffff1660001b614679565b90509392505050565b600084848484604051602001808581526020018481526020018373ffffffffffffffffffffffffffffffffffffffff1673ffffffffffffffffffffffffffffffffffffffff1681526020018281526020019450505050506040516020818303038152906040528051906020012060001c9050949350505050565b600080828401905083811015614035576040517f08c379a000000000000000000000000000000000000000000000000000000000815260040180806020018281038252601b8152602001807f536166654d6174683a206164646974696f6e206f766572666c6f77000000000081525060200191505060405180910390fd5b8091505092915050565b60008282604051602001808381526020018281526020019250505060405160208183030381529060405280519060200120905092915050565b6000818360000180549050116140d9576040517f08c379a0000000000000000000000000000000000000000000000000000000008152600401808060200182810382526022815260200180614e066022913960400191505060405180910390fd5b8260000182815481106140e857fe5b9060005260206000200154905092915050565b6000808284600001805490501161415d576040517f08c379a0000000000000000000000000000000000000000000000000000000008152600401808060200182810382526022815260200180614f866022913960400191505060405180910390fd5b600084600001848154811061416e57fe5b906000526020600020906002020190508060000154816001015492509250509250929050565b6000808460010160008581526020019081526020016000205490506000811415839061425b576040517f08c379a00000000000000000000000000000000000000000000000000000000081526004018080602001828103825283818151815260200191508051906020019080838360005b83811015614220578082015181840152602081019050614205565b50505050905090810190601f16801561424d5780820380516001836020036101000a031916815260200191505b509250505060405180910390fd5b5084600001600182038154811061426e57fe5b9060005260206000209060020201600101549150509392505050565b600081600001805490509050919050565b6142b5828260405180602001604052806000815250614755565b5050565b60006142da8473ffffffffffffffffffffffffffffffffffffffff166147c6565b6142e757600190506144f6565b606061447d63150b7a0260e01b6142fc612ec0565b888787604051602401808573ffffffffffffffffffffffffffffffffffffffff1673ffffffffffffffffffffffffffffffffffffffff1681526020018473ffffffffffffffffffffffffffffffffffffffff1673ffffffffffffffffffffffffffffffffffffffff16815260200183815260200180602001828103825283818151815260200191508051906020019080838360005b838110156143ac578082015181840152602081019050614391565b50505050905090810190601f1680156143d95780820380516001836020036101000a031916815260200191505b5095505050505050604051602081830303815290604052907bffffffffffffffffffffffffffffffffffffffffffffffffffffffff19166020820180517bffffffffffffffffffffffffffffffffffffffffffffffffffffffff8381831617835250505050604051806060016040528060328152602001614e28603291398773ffffffffffffffffffffffffffffffffffffffff166147d99092919063ffffffff16565b9050600081806020019051602081101561449657600080fd5b8101908080519060200190929190505050905063150b7a0260e01b7bffffffffffffffffffffffffffffffffffffffffffffffffffffffff1916817bffffffffffffffffffffffffffffffffffffffffffffffffffffffff191614925050505b949350505050565b600080836001016000848152602001908152602001600020541415905092915050565b600080836001016000848152602001908152602001600020549050600081146145fd576000600182039050600060018660000180549050039050600086600001828154811061456c57fe5b906000526020600020015490508087600001848154811061458957fe5b90600052602060002001819055506001830187600101600083815260200190815260200160002081905550866000018054806145c157fe5b60019003818190600052602060002001600090559055866001016000878152602001908152602001600020600090556001945050505050614603565b60009150505b92915050565b600061461583836147f1565b61466e578260000182908060018154018082558091505060019003906000526020600020016000909190919091505582600001805490508360010160008481526020019081526020016000208190555060019050614673565b600090505b92915050565b60008084600101600085815260200190815260200160002054905060008114156147205784600001604051806040016040528086815260200185815250908060018154018082558091505060019003906000526020600020906002020160009091909190915060008201518160000155602082015181600101555050846000018054905085600101600086815260200190815260200160002081905550600191505061474e565b8285600001600183038154811061473357fe5b90600052602060002090600202016001018190555060009150505b9392505050565b61475f8383614814565b61476c60008484846142b9565b6147c1576040517f08c379a0000000000000000000000000000000000000000000000000000000008152600401808060200182810382526032815260200180614e286032913960400191505060405180910390fd5b505050565b600080823b905060008111915050919050565b60606147e88484600085614a08565b90509392505050565b600080836001016000848152602001908152602001600020541415905092915050565b600073ffffffffffffffffffffffffffffffffffffffff168273ffffffffffffffffffffffffffffffffffffffff1614156148b7576040517f08c379a00000000000000000000000000000000000000000000000000000000081526004018080602001828103825260208152602001807f4552433732313a206d696e7420746f20746865207a65726f206164647265737381525060200191505060405180910390fd5b6148c081612ea3565b15614933576040517f08c379a000000000000000000000000000000000000000000000000000000000815260040180806020018281038252601c8152602001807f4552433732313a20746f6b656e20616c7265616479206d696e7465640000000081525060200191505060405180910390fd5b61493f60008383613ecf565b61499081600260008573ffffffffffffffffffffffffffffffffffffffff1673ffffffffffffffffffffffffffffffffffffffff168152602001908152602001600020613eee90919063ffffffff16565b506149a781836003613f089092919063ffffffff16565b50808273ffffffffffffffffffffffffffffffffffffffff16600073ffffffffffffffffffffffffffffffffffffffff167fddf252ad1be2c89b69c2b068fc378daa952ba7f163c4a11628f55a4df523b3ef60405160405180910390a45050565b606082471015614a63576040517f08c379a0000000000000000000000000000000000000000000000000000000008152600401808060200182810382526026815260200180614ea96026913960400191505060405180910390fd5b614a6c856147c6565b614ade576040517f08c379a000000000000000000000000000000000000000000000000000000000815260040180806020018281038252601d8152602001807f416464726573733a2063616c6c20746f206e6f6e2d636f6e747261637400000081525060200191505060405180910390fd5b600060608673ffffffffffffffffffffffffffffffffffffffff1685876040518082805190602001908083835b60208310614b2e5780518252602082019150602081019050602083039250614b0b565b6001836020036101000a03801982511681845116808217855250505050505090500191505060006040518083038185875af1925050503d8060008114614b90576040519150601f19603f3d011682016040523d82523d6000602084013e614b95565b606091505b5091509150614ba5828286614bb1565b92505050949350505050565b60608315614bc157829050614c76565b600083511115614bd45782518084602001fd5b816040517f08c379a00000000000000000000000000000000000000000000000000000000081526004018080602001828103825283818151815260200191508051906020019080838360005b83811015614c3b578082015181840152602081019050614c20565b50505050905090810190601f168015614c685780820380516001836020036101000a031916815260200191505b509250505060405180910390fd5b9392505050565b604051806101400160405280600060ff16815260200160608152602001600060ff168152602001600061ffff168152602001600061ffff168152602001600061ffff168152602001600061ffff168152602001600061ffff168152602001600061ffff168152602001600061ffff1681525090565b828054600181600116156101000203166002900490600052602060002090601f016020900481019282601f10614d3357805160ff1916838001178555614d61565b82800160010185558215614d61579182015b82811115614d60578251825591602001919060010190614d45565b5b509050614d6e9190614de0565b5090565b604051806101200160405280600060ff168152602001600061ffff168152602001600061ffff168152602001600061ffff168152602001600061ffff168152602001600061ffff168152602001600061ffff168152602001600061ffff168152602001600060ff1681525090565b614e0291905b80821115614dfe576000816000905550600101614de6565b5090565b9056fe456e756d657261626c655365743a20696e646578206f7574206f6620626f756e64734552433732313a207472616e7366657220746f206e6f6e20455243373231526563656976657220696d706c656d656e7465724552433732313a207472616e7366657220746f20746865207a65726f20616464726573734e6f7420656e6f756768204c494e4b202d2066696c6c20636f6e7472616374207769746820666175636574416464726573733a20696e73756666696369656e742062616c616e636520666f722063616c6c4552433732313a206f70657261746f7220717565727920666f72206e6f6e6578697374656e7420746f6b656e4552433732313a20617070726f76652063616c6c6572206973206e6f74206f776e6572206e6f7220617070726f76656420666f7220616c6c4552433732313a2062616c616e636520717565727920666f7220746865207a65726f20616464726573734552433732313a206f776e657220717565727920666f72206e6f6e6578697374656e7420746f6b656e456e756d657261626c654d61703a20696e646578206f7574206f6620626f756e64734552433732313a20617070726f76656420717565727920666f72206e6f6e6578697374656e7420746f6b656e4552433732313a207472616e73666572206f6620746f6b656e2074686174206973206e6f74206f776e4552433732314d657461646174613a2055524920717565727920666f72206e6f6e6578697374656e7420746f6b656e4552433732313a20617070726f76616c20746f2063757272656e74206f776e65724552433732313a207472616e736665722063616c6c6572206973206e6f74206f776e6572206e6f7220617070726f766564a2646970667358221220716258ad0fbce884f03547c7234a9b2350089536657bb44aedc73db032e4da1564736f6c63430006060033",
  "immutableReferences": {
    "778": [
      {
        "length": 32,
        "start": 6053
      },
      {
        "length": 32,
        "start": 8369
      },
      {
        "length": 32,
        "start": 8430
      },
      {
        "length": 32,
        "start": 10068
      },
      {
        "length": 32,
        "start": 11015
      },
      {
        "length": 32,
        "start": 13009
      }
    ],
    "780": [
      {
        "length": 32,
        "start": 8926
      },
      {
        "length": 32,
        "start": 13069
      }
    ]
  },
  "source": "pragma solidity '0.6.6';\r\n\r\nimport '@chainlink/contracts/src/v0.6/VRFConsumerBase.sol';// Random number\r\nimport '@openzeppelin/contracts/token/ERC721/ERC721.sol';// ERC721 \r\n\r\ncontract Dota is VRFConsumerBase, ERC721 {\r\n    \r\n    uint256 Id;\r\n    \r\n    address owner; // contract owner\r\n\r\n    uint256 internal fee; //fee in LINK for chainlink\r\n    bytes32 internal keyHash;   \r\n\r\n    address public VRFCoordinator;\r\n    address public LinkToken;\r\n\r\n    // Structure Hero for creating heros\r\n    struct Hero{\r\n        uint8 heroCode;\r\n        string name;\r\n        uint8 level;\r\n        uint16 damage;\r\n        uint16 strength;\r\n        uint16 agility;\r\n        uint16 intelligence;\r\n        uint16 hitPoints;\r\n        uint16 mana;\r\n        uint16 movementSpeed;\r\n    }   \r\n    Hero[] public heros;\r\n\r\n    // Structure Item for creating items\r\n    struct Item{\r\n        uint8 itemCode;\r\n        uint16 damage;\r\n        uint16 strength;\r\n        uint16 agility;\r\n        uint16 intelligence;\r\n        uint16 hitPoints;\r\n        uint16 mana;\r\n        uint16 movementSpeed;\r\n        uint8 enhancement;\r\n    }\r\n    Item[] public items;\r\n\r\n    uint256 public number; // variable to hold random number\r\n    \r\n    mapping(bytes32 => string) requestToName;\r\n    mapping(bytes32 => address) requestToSender;\r\n    mapping(address => uint256[]) ownerToHeros;\r\n    mapping(address => uint256[]) ownerToItems;\r\n    mapping(bytes32 => uint8) requestFor;\r\n\r\n    constructor(address _VRFCoordinator, address _LinkToken, bytes32 _keyHash) public\r\n    VRFConsumerBase(_VRFCoordinator, _LinkToken)\r\n    ERC721(\"DefenceOfTheAncients\", \"DOTA\")\r\n    {\r\n        VRFCoordinator = _VRFCoordinator;\r\n        LinkToken = _LinkToken;\r\n        keyHash = _keyHash;\r\n        fee = 0.1 * 10**18; // 0.1 LINK\r\n        owner = msg.sender;\r\n    }\r\n\r\n    function requestHero(uint256 _seed, string memory _name) public\r\n    returns(bytes32) {\r\n        require(\r\n            LINK.balanceOf(address(this)) >= fee, \"Not enough LINK - fill contract with faucet\" );\r\n        bytes32 requestId = requestRandomness(keyHash, fee, _seed);\r\n        requestToName[requestId] = _name;\r\n        requestToSender[requestId] = msg.sender;\r\n        requestFor[requestId] = 0;\r\n        return(requestId);\r\n    }\r\n\r\n    function requestItem(uint256 _seed) public\r\n    returns(bytes32) {\r\n        require(\r\n            LINK.balanceOf(address(this)) >= fee, \"Not enough LINK - fill contract with faucet\" );\r\n        bytes32 requestId = requestRandomness(keyHash, fee, _seed);\r\n        requestToSender[requestId] = msg.sender;\r\n        requestFor[requestId] = 1;\r\n        return(requestId);\r\n    }\r\n\r\n    function fulfillRandomness(bytes32 requestId, uint256 randomNumber)\r\n    internal\r\n    override {\r\n        number = randomNumber;\r\n        \r\n        uint16 strength = uint16((randomNumber / 10000) % 25);\r\n        uint16 intelligence = uint16((randomNumber / 10000000) % 25);\r\n        uint16 agility = uint16((randomNumber / 1000) % 25);\r\n        uint16 movementSpeed = uint16(200 + (randomNumber / 100000000000) % 100);   \r\n        uint16 hitPoints = uint16(200 + strength * 20);\r\n        uint16 mana = uint16(75 + intelligence * 11);\r\n        uint16 damage = uint16(randomNumber % 30);\r\n        \r\n        if(requestFor[requestId] == 0){\r\n            uint256 newId = heros.length;\r\n            uint8 heroCode = uint8(randomNumber % 12 + 1);\r\n            heros.push(\r\n            Hero(\r\n                heroCode,\r\n                requestToName[requestId],\r\n                0,\r\n                damage,\r\n                strength,\r\n                agility,\r\n                intelligence,\r\n                hitPoints,\r\n                mana,\r\n                movementSpeed\r\n            )   \r\n            );\r\n\r\n            if(heroCode < 5){\r\n            damage += strength;\r\n            }else if(heroCode < 9){\r\n                damage += agility;\r\n            }else{\r\n                damage += intelligence;\r\n            }\r\n            Id++;\r\n            _safeMint(requestToSender[requestId], Id);\r\n            ownerToHeros[requestToSender[requestId]].push(newId);\r\n        }else{\r\n            uint256 newId = items.length;\r\n            uint8 itemCode = uint8(randomNumber % 12 + 1);\r\n            uint8 enhancement = uint8((randomNumber % 10000000000) % 12 + 1);\r\n            items.push(\r\n            Item(\r\n                itemCode,\r\n                damage,\r\n                strength,\r\n                agility,\r\n                intelligence,\r\n                hitPoints,\r\n                mana,\r\n                movementSpeed,\r\n                enhancement\r\n            )   \r\n            );\r\n            Id++;\r\n            _safeMint(requestToSender[requestId], Id);\r\n            ownerToItems[requestToSender[requestId]].push(newId);\r\n        }\r\n       \r\n    }\r\n\r\n    function getHero(uint256 id)\r\n    public\r\n    view\r\n    returns(uint8, string memory, uint8, uint16, uint16, uint16, uint16, uint16, uint16, uint16){\r\n        require(id >= 0 && id < heros.length, \"Hero does not exists.\");\r\n        Hero memory hero = heros[id];\r\n        return(hero.heroCode, hero.name, hero.level,hero.damage, hero.strength, hero.agility, hero.intelligence, hero.hitPoints, hero.mana, hero.movementSpeed);\r\n    }\r\n\r\n    function getItem(uint256 id)\r\n    public\r\n    view\r\n    returns(uint8, uint16, uint16, uint16, uint16, uint16, uint16, uint16, uint8){\r\n        require(id >= 0 && id < items.length, \"Item does not exists.\");\r\n        Item memory item = items[id];\r\n        return(item.itemCode, item.damage, item.strength, item.agility, item.intelligence, item.hitPoints, item.mana, item.movementSpeed, item.enhancement);\r\n    }\r\n\r\n    function withdrawLink() \r\n    external{\r\n        require(msg.sender == owner, \"Only Owner can withdraw LINKs.\");\r\n        require(LINK.transfer(msg.sender, LINK.balanceOf(address(this))), \"Unable to transfer\");\r\n    }\r\n\r\n    function linkBalance() \r\n    external \r\n    view \r\n    returns(uint256){\r\n        return(LINK.balanceOf(address(this)));\r\n    }\r\n\r\n    function getNFTCount(address _account)\r\n    public\r\n    view\r\n    returns(uint256){\r\n        return balanceOf(_account);\r\n    }\r\n\r\n    function getHeroCount()\r\n    public\r\n    view\r\n    returns (uint256){\r\n        return heros.length;\r\n    }\r\n\r\n    function getItemCount()\r\n    public\r\n    view\r\n    returns (uint256){\r\n        return items.length;\r\n    }\r\n\r\n    function getHeroNFTs(address _account)\r\n    public\r\n    view\r\n    returns(uint256[] memory){\r\n        return ownerToHeros[_account];\r\n    }\r\n\r\n    function getItemNFTs(address _account)\r\n    public\r\n    view\r\n    returns(uint256[] memory){\r\n        return ownerToItems[_account];\r\n    }\r\n}",
  "sourcePath": "D:/Blockchain/chainlink Hackethone/dota-nft/contracts/Dota.sol",
  "compiler": {
    "name": "solc",
    "version": "0.6.6+commit.6c089d02.Emscripten.clang"
  },
  "schemaVersion": "3.3.4",
  "updatedAt": "2021-03-29T09:10:08.541Z",
  "networkType": "ethereum",
  "devdoc": {
    "methods": {
      "approve(address,uint256)": {
        "details": "See {IERC721-approve}."
      },
      "balanceOf(address)": {
        "details": "See {IERC721-balanceOf}."
      },
      "baseURI()": {
        "details": "Returns the base URI set via {_setBaseURI}. This will be automatically added as a prefix in {tokenURI} to each token's URI, or to the token ID if no specific URI is set for that token ID."
      },
      "getApproved(uint256)": {
        "details": "See {IERC721-getApproved}."
      },
      "isApprovedForAll(address,address)": {
        "details": "See {IERC721-isApprovedForAll}."
      },
      "name()": {
        "details": "See {IERC721Metadata-name}."
      },
      "ownerOf(uint256)": {
        "details": "See {IERC721-ownerOf}."
      },
      "safeTransferFrom(address,address,uint256)": {
        "details": "See {IERC721-safeTransferFrom}."
      },
      "safeTransferFrom(address,address,uint256,bytes)": {
        "details": "See {IERC721-safeTransferFrom}."
      },
      "setApprovalForAll(address,bool)": {
        "details": "See {IERC721-setApprovalForAll}."
      },
      "supportsInterface(bytes4)": {
        "details": "See {IERC165-supportsInterface}.     * Time complexity O(1), guaranteed to always use less than 30 000 gas."
      },
      "symbol()": {
        "details": "See {IERC721Metadata-symbol}."
      },
      "tokenByIndex(uint256)": {
        "details": "See {IERC721Enumerable-tokenByIndex}."
      },
      "tokenOfOwnerByIndex(address,uint256)": {
        "details": "See {IERC721Enumerable-tokenOfOwnerByIndex}."
      },
      "tokenURI(uint256)": {
        "details": "See {IERC721Metadata-tokenURI}."
      },
      "totalSupply()": {
        "details": "See {IERC721Enumerable-totalSupply}."
      },
      "transferFrom(address,address,uint256)": {
        "details": "See {IERC721-transferFrom}."
      }
    }
  },
  "userdoc": {
    "methods": {}
  }
}