{
  "contractName": "Dota",
  "abi": [
    {
      "inputs": [
        {
          "internalType": "address",
          "name": "_VRFCoordinator",
          "type": "address"
        },
        {
          "internalType": "address",
          "name": "_LinkToken",
          "type": "address"
        },
        {
          "internalType": "bytes32",
          "name": "_keyHash",
          "type": "bytes32"
        }
      ],
      "stateMutability": "nonpayable",
      "type": "constructor"
    },
    {
      "anonymous": false,
      "inputs": [
        {
          "indexed": true,
          "internalType": "address",
          "name": "owner",
          "type": "address"
        },
        {
          "indexed": true,
          "internalType": "address",
          "name": "approved",
          "type": "address"
        },
        {
          "indexed": true,
          "internalType": "uint256",
          "name": "tokenId",
          "type": "uint256"
        }
      ],
      "name": "Approval",
      "type": "event"
    },
    {
      "anonymous": false,
      "inputs": [
        {
          "indexed": true,
          "internalType": "address",
          "name": "owner",
          "type": "address"
        },
        {
          "indexed": true,
          "internalType": "address",
          "name": "operator",
          "type": "address"
        },
        {
          "indexed": false,
          "internalType": "bool",
          "name": "approved",
          "type": "bool"
        }
      ],
      "name": "ApprovalForAll",
      "type": "event"
    },
    {
      "anonymous": false,
      "inputs": [
        {
          "indexed": true,
          "internalType": "address",
          "name": "from",
          "type": "address"
        },
        {
          "indexed": true,
          "internalType": "address",
          "name": "to",
          "type": "address"
        },
        {
          "indexed": true,
          "internalType": "uint256",
          "name": "tokenId",
          "type": "uint256"
        }
      ],
      "name": "Transfer",
      "type": "event"
    },
    {
      "inputs": [],
      "name": "LinkToken",
      "outputs": [
        {
          "internalType": "address",
          "name": "",
          "type": "address"
        }
      ],
      "stateMutability": "view",
      "type": "function",
      "constant": true
    },
    {
      "inputs": [],
      "name": "VRFCoordinator",
      "outputs": [
        {
          "internalType": "address",
          "name": "",
          "type": "address"
        }
      ],
      "stateMutability": "view",
      "type": "function",
      "constant": true
    },
    {
      "inputs": [
        {
          "internalType": "address",
          "name": "to",
          "type": "address"
        },
        {
          "internalType": "uint256",
          "name": "tokenId",
          "type": "uint256"
        }
      ],
      "name": "approve",
      "outputs": [],
      "stateMutability": "nonpayable",
      "type": "function"
    },
    {
      "inputs": [
        {
          "internalType": "address",
          "name": "owner",
          "type": "address"
        }
      ],
      "name": "balanceOf",
      "outputs": [
        {
          "internalType": "uint256",
          "name": "",
          "type": "uint256"
        }
      ],
      "stateMutability": "view",
      "type": "function",
      "constant": true
    },
    {
      "inputs": [],
      "name": "baseURI",
      "outputs": [
        {
          "internalType": "string",
          "name": "",
          "type": "string"
        }
      ],
      "stateMutability": "view",
      "type": "function",
      "constant": true
    },
    {
      "inputs": [
        {
          "internalType": "uint256",
          "name": "tokenId",
          "type": "uint256"
        }
      ],
      "name": "getApproved",
      "outputs": [
        {
          "internalType": "address",
          "name": "",
          "type": "address"
        }
      ],
      "stateMutability": "view",
      "type": "function",
      "constant": true
    },
    {
      "inputs": [
        {
          "internalType": "uint256",
          "name": "",
          "type": "uint256"
        }
      ],
      "name": "heros",
      "outputs": [
        {
          "internalType": "uint256",
          "name": "tokenId",
          "type": "uint256"
        },
        {
          "internalType": "uint8",
          "name": "heroCode",
          "type": "uint8"
        },
        {
          "internalType": "string",
          "name": "name",
          "type": "string"
        },
        {
          "internalType": "uint8",
          "name": "level",
          "type": "uint8"
        },
        {
          "internalType": "uint16",
          "name": "damage",
          "type": "uint16"
        },
        {
          "internalType": "uint16",
          "name": "armor",
          "type": "uint16"
        },
        {
          "internalType": "uint16",
          "name": "strength",
          "type": "uint16"
        },
        {
          "internalType": "uint16",
          "name": "agility",
          "type": "uint16"
        },
        {
          "internalType": "uint16",
          "name": "intelligence",
          "type": "uint16"
        },
        {
          "internalType": "uint16",
          "name": "hitPoints",
          "type": "uint16"
        },
        {
          "internalType": "uint16",
          "name": "mana",
          "type": "uint16"
        },
        {
          "internalType": "uint16",
          "name": "movementSpeed",
          "type": "uint16"
        }
      ],
      "stateMutability": "view",
      "type": "function",
      "constant": true
    },
    {
      "inputs": [
        {
          "internalType": "address",
          "name": "owner",
          "type": "address"
        },
        {
          "internalType": "address",
          "name": "operator",
          "type": "address"
        }
      ],
      "name": "isApprovedForAll",
      "outputs": [
        {
          "internalType": "bool",
          "name": "",
          "type": "bool"
        }
      ],
      "stateMutability": "view",
      "type": "function",
      "constant": true
    },
    {
      "inputs": [
        {
          "internalType": "uint256",
          "name": "",
          "type": "uint256"
        }
      ],
      "name": "items",
      "outputs": [
        {
          "internalType": "uint256",
          "name": "tokenId",
          "type": "uint256"
        },
        {
          "internalType": "uint8",
          "name": "itemCode",
          "type": "uint8"
        }
      ],
      "stateMutability": "view",
      "type": "function",
      "constant": true
    },
    {
      "inputs": [],
      "name": "name",
      "outputs": [
        {
          "internalType": "string",
          "name": "",
          "type": "string"
        }
      ],
      "stateMutability": "view",
      "type": "function",
      "constant": true
    },
    {
      "inputs": [
        {
          "internalType": "uint256",
          "name": "tokenId",
          "type": "uint256"
        }
      ],
      "name": "ownerOf",
      "outputs": [
        {
          "internalType": "address",
          "name": "",
          "type": "address"
        }
      ],
      "stateMutability": "view",
      "type": "function",
      "constant": true
    },
    {
      "inputs": [
        {
          "internalType": "bytes32",
          "name": "requestId",
          "type": "bytes32"
        },
        {
          "internalType": "uint256",
          "name": "randomness",
          "type": "uint256"
        }
      ],
      "name": "rawFulfillRandomness",
      "outputs": [],
      "stateMutability": "nonpayable",
      "type": "function"
    },
    {
      "inputs": [
        {
          "internalType": "address",
          "name": "from",
          "type": "address"
        },
        {
          "internalType": "address",
          "name": "to",
          "type": "address"
        },
        {
          "internalType": "uint256",
          "name": "tokenId",
          "type": "uint256"
        }
      ],
      "name": "safeTransferFrom",
      "outputs": [],
      "stateMutability": "nonpayable",
      "type": "function"
    },
    {
      "inputs": [
        {
          "internalType": "address",
          "name": "from",
          "type": "address"
        },
        {
          "internalType": "address",
          "name": "to",
          "type": "address"
        },
        {
          "internalType": "uint256",
          "name": "tokenId",
          "type": "uint256"
        },
        {
          "internalType": "bytes",
          "name": "_data",
          "type": "bytes"
        }
      ],
      "name": "safeTransferFrom",
      "outputs": [],
      "stateMutability": "nonpayable",
      "type": "function"
    },
    {
      "inputs": [
        {
          "internalType": "address",
          "name": "operator",
          "type": "address"
        },
        {
          "internalType": "bool",
          "name": "approved",
          "type": "bool"
        }
      ],
      "name": "setApprovalForAll",
      "outputs": [],
      "stateMutability": "nonpayable",
      "type": "function"
    },
    {
      "inputs": [
        {
          "internalType": "bytes4",
          "name": "interfaceId",
          "type": "bytes4"
        }
      ],
      "name": "supportsInterface",
      "outputs": [
        {
          "internalType": "bool",
          "name": "",
          "type": "bool"
        }
      ],
      "stateMutability": "view",
      "type": "function",
      "constant": true
    },
    {
      "inputs": [],
      "name": "symbol",
      "outputs": [
        {
          "internalType": "string",
          "name": "",
          "type": "string"
        }
      ],
      "stateMutability": "view",
      "type": "function",
      "constant": true
    },
    {
      "inputs": [
        {
          "internalType": "uint256",
          "name": "index",
          "type": "uint256"
        }
      ],
      "name": "tokenByIndex",
      "outputs": [
        {
          "internalType": "uint256",
          "name": "",
          "type": "uint256"
        }
      ],
      "stateMutability": "view",
      "type": "function",
      "constant": true
    },
    {
      "inputs": [
        {
          "internalType": "address",
          "name": "owner",
          "type": "address"
        },
        {
          "internalType": "uint256",
          "name": "index",
          "type": "uint256"
        }
      ],
      "name": "tokenOfOwnerByIndex",
      "outputs": [
        {
          "internalType": "uint256",
          "name": "",
          "type": "uint256"
        }
      ],
      "stateMutability": "view",
      "type": "function",
      "constant": true
    },
    {
      "inputs": [
        {
          "internalType": "uint256",
          "name": "tokenId",
          "type": "uint256"
        }
      ],
      "name": "tokenURI",
      "outputs": [
        {
          "internalType": "string",
          "name": "",
          "type": "string"
        }
      ],
      "stateMutability": "view",
      "type": "function",
      "constant": true
    },
    {
      "inputs": [],
      "name": "totalSupply",
      "outputs": [
        {
          "internalType": "uint256",
          "name": "",
          "type": "uint256"
        }
      ],
      "stateMutability": "view",
      "type": "function",
      "constant": true
    },
    {
      "inputs": [
        {
          "internalType": "address",
          "name": "from",
          "type": "address"
        },
        {
          "internalType": "address",
          "name": "to",
          "type": "address"
        },
        {
          "internalType": "uint256",
          "name": "tokenId",
          "type": "uint256"
        }
      ],
      "name": "transferFrom",
      "outputs": [],
      "stateMutability": "nonpayable",
      "type": "function"
    },
    {
      "inputs": [
        {
          "internalType": "uint256",
          "name": "_seed",
          "type": "uint256"
        },
        {
          "internalType": "string",
          "name": "_name",
          "type": "string"
        }
      ],
      "name": "requestHero",
      "outputs": [
        {
          "internalType": "bytes32",
          "name": "",
          "type": "bytes32"
        }
      ],
      "stateMutability": "nonpayable",
      "type": "function"
    },
    {
      "inputs": [
        {
          "internalType": "uint256",
          "name": "_seed",
          "type": "uint256"
        }
      ],
      "name": "requestItem",
      "outputs": [
        {
          "internalType": "bytes32",
          "name": "",
          "type": "bytes32"
        }
      ],
      "stateMutability": "nonpayable",
      "type": "function"
    },
    {
      "inputs": [
        {
          "internalType": "uint256",
          "name": "id",
          "type": "uint256"
        }
      ],
      "name": "getHeroFirstHalf",
      "outputs": [
        {
          "internalType": "uint8",
          "name": "",
          "type": "uint8"
        },
        {
          "internalType": "string",
          "name": "",
          "type": "string"
        },
        {
          "internalType": "uint8",
          "name": "",
          "type": "uint8"
        },
        {
          "internalType": "uint16",
          "name": "",
          "type": "uint16"
        },
        {
          "internalType": "uint16",
          "name": "",
          "type": "uint16"
        },
        {
          "internalType": "uint16",
          "name": "",
          "type": "uint16"
        }
      ],
      "stateMutability": "view",
      "type": "function",
      "constant": true
    },
    {
      "inputs": [
        {
          "internalType": "uint256",
          "name": "id",
          "type": "uint256"
        }
      ],
      "name": "getHeroSecondHalf",
      "outputs": [
        {
          "internalType": "uint16",
          "name": "",
          "type": "uint16"
        },
        {
          "internalType": "uint16",
          "name": "",
          "type": "uint16"
        },
        {
          "internalType": "uint16",
          "name": "",
          "type": "uint16"
        },
        {
          "internalType": "uint16",
          "name": "",
          "type": "uint16"
        },
        {
          "internalType": "uint16",
          "name": "",
          "type": "uint16"
        },
        {
          "internalType": "uint256",
          "name": "",
          "type": "uint256"
        }
      ],
      "stateMutability": "view",
      "type": "function",
      "constant": true
    },
    {
      "inputs": [
        {
          "internalType": "uint256",
          "name": "_id",
          "type": "uint256"
        }
      ],
      "name": "levelUp",
      "outputs": [],
      "stateMutability": "view",
      "type": "function",
      "constant": true
    },
    {
      "inputs": [
        {
          "internalType": "uint256",
          "name": "id",
          "type": "uint256"
        }
      ],
      "name": "getItem",
      "outputs": [
        {
          "internalType": "uint8",
          "name": "",
          "type": "uint8"
        }
      ],
      "stateMutability": "view",
      "type": "function",
      "constant": true
    },
    {
      "inputs": [],
      "name": "withdrawLink",
      "outputs": [],
      "stateMutability": "nonpayable",
      "type": "function"
    },
    {
      "inputs": [],
      "name": "linkBalance",
      "outputs": [
        {
          "internalType": "uint256",
          "name": "",
          "type": "uint256"
        }
      ],
      "stateMutability": "view",
      "type": "function",
      "constant": true
    },
    {
      "inputs": [
        {
          "internalType": "address",
          "name": "_account",
          "type": "address"
        }
      ],
      "name": "getNFTCount",
      "outputs": [
        {
          "internalType": "uint256",
          "name": "",
          "type": "uint256"
        }
      ],
      "stateMutability": "view",
      "type": "function",
      "constant": true
    },
    {
      "inputs": [],
      "name": "getHeroCount",
      "outputs": [
        {
          "internalType": "uint256",
          "name": "",
          "type": "uint256"
        }
      ],
      "stateMutability": "view",
      "type": "function",
      "constant": true
    },
    {
      "inputs": [],
      "name": "getItemCount",
      "outputs": [
        {
          "internalType": "uint256",
          "name": "",
          "type": "uint256"
        }
      ],
      "stateMutability": "view",
      "type": "function",
      "constant": true
    },
    {
      "inputs": [
        {
          "internalType": "address",
          "name": "_account",
          "type": "address"
        }
      ],
      "name": "getHeroNFTs",
      "outputs": [
        {
          "internalType": "uint256[]",
          "name": "",
          "type": "uint256[]"
        }
      ],
      "stateMutability": "view",
      "type": "function",
      "constant": true
    },
    {
      "inputs": [
        {
          "internalType": "address",
          "name": "_account",
          "type": "address"
        }
      ],
      "name": "getItemNFTs",
      "outputs": [
        {
          "internalType": "uint256[]",
          "name": "",
          "type": "uint256[]"
        }
      ],
      "stateMutability": "view",
      "type": "function",
      "constant": true
    }
  ],
  "bytecode": "0x60c06040523480156200001157600080fd5b506040516200585238038062005852833981810160405260608110156200003757600080fd5b810190808051906020019092919080519060200190929190805190602001909291905050506040518060400160405280601481526020017f446566656e63654f66546865416e6369656e74730000000000000000000000008152506040518060400160405280600481526020017f444f54410000000000000000000000000000000000000000000000000000000081525084848173ffffffffffffffffffffffffffffffffffffffff1660a08173ffffffffffffffffffffffffffffffffffffffff1660601b815250508073ffffffffffffffffffffffffffffffffffffffff1660808173ffffffffffffffffffffffffffffffffffffffff1660601b815250505050620001526301ffc9a760e01b620002b060201b60201c565b81600790805190602001906200016a929190620003b9565b50806008908051906020019062000183929190620003b9565b506200019c6380ac58cd60e01b620002b060201b60201c565b620001b4635b5e139f60e01b620002b060201b60201c565b620001cc63780e9d6360e01b620002b060201b60201c565b505082600f60006101000a81548173ffffffffffffffffffffffffffffffffffffffff021916908373ffffffffffffffffffffffffffffffffffffffff16021790555081601060006101000a81548173ffffffffffffffffffffffffffffffffffffffff021916908373ffffffffffffffffffffffffffffffffffffffff16021790555080600e8190555067016345785d8a0000600d8190555033600c60006101000a81548173ffffffffffffffffffffffffffffffffffffffff021916908373ffffffffffffffffffffffffffffffffffffffff16021790555050505062000468565b63ffffffff60e01b817bffffffffffffffffffffffffffffffffffffffffffffffffffffffff191614156200034d576040517f08c379a000000000000000000000000000000000000000000000000000000000815260040180806020018281038252601c8152602001807f4552433136353a20696e76616c696420696e746572666163652069640000000081525060200191505060405180910390fd5b6001806000837bffffffffffffffffffffffffffffffffffffffffffffffffffffffff19167bffffffffffffffffffffffffffffffffffffffffffffffffffffffff1916815260200190815260200160002060006101000a81548160ff02191690831515021790555050565b828054600181600116156101000203166002900490600052602060002090601f016020900481019282601f10620003fc57805160ff19168380011785556200042d565b828001600101855582156200042d579182015b828111156200042c5782518255916020019190600101906200040f565b5b5090506200043c919062000440565b5090565b6200046591905b808211156200046157600081600090555060010162000447565b5090565b90565b60805160601c60a05160601c6153a2620004b0600039806124da5280613750525080611aca52806122ad52806122ea52806128bb5280612f4a528061371452506153a26000f3fe608060405234801561001057600080fd5b50600436106102115760003560e01c806370a0823111610125578063bfb231d2116100ad578063d62a48871161007c578063d62a488714610ea9578063d8faebfb14610eeb578063e985e9c514610f84578063f41d3f6914611000578063f85d2c941461105857610211565b8063bfb231d214610ca7578063c26ecefa14610cf6578063c810f90b14610d14578063c87b56dd14610e0257610211565b80638dc654a2116100f45780638dc654a214610a8d57806394985ddd14610a9757806395d89b4114610acf578063a22cb46514610b52578063b88d4fde14610ba257610211565b806370a08231146108b95780637749cf2314610911578063775483821461092f578063814aab781461094d57610211565b80632f255c15116101a857806342842e0e1161017757806342842e0e146106ce5780634f6ccce71461073c5780634f8e2fdf1461077e5780636352211e146107c85780636c0360eb1461083657610211565b80632f255c15146105015780632f745c59146105da5780633129e7731461063c57806333b608631461068457610211565b80630ce90ec2116101e45780630ce90ec2146103ba57806318160ddd146103e857806318366df01461040657806323b872dd1461049357610211565b806301ffc9a71461021657806306fdde031461027b578063081812fc146102fe578063095ea7b31461036c575b600080fd5b6102616004803603602081101561022c57600080fd5b8101908080357bffffffffffffffffffffffffffffffffffffffffffffffffffffffff191690602001909291905050506110f1565b604051808215151515815260200191505060405180910390f35b610283611159565b6040518080602001828103825283818151815260200191508051906020019080838360005b838110156102c35780820151818401526020810190506102a8565b50505050905090810190601f1680156102f05780820380516001836020036101000a031916815260200191505b509250505060405180910390f35b61032a6004803603602081101561031457600080fd5b81019080803590602001909291905050506111fb565b604051808273ffffffffffffffffffffffffffffffffffffffff1673ffffffffffffffffffffffffffffffffffffffff16815260200191505060405180910390f35b6103b86004803603604081101561038257600080fd5b81019080803573ffffffffffffffffffffffffffffffffffffffff16906020019092919080359060200190929190505050611296565b005b6103e6600480360360208110156103d057600080fd5b81019080803590602001909291905050506113da565b005b6103f061175d565b6040518082815260200191505060405180910390f35b6104326004803603602081101561041c57600080fd5b810190808035906020019092919050505061176e565b604051808761ffff1661ffff1681526020018661ffff1661ffff1681526020018561ffff1661ffff1681526020018461ffff1661ffff1681526020018361ffff1661ffff168152602001828152602001965050505050505060405180910390f35b6104ff600480360360608110156104a957600080fd5b81019080803573ffffffffffffffffffffffffffffffffffffffff169060200190929190803573ffffffffffffffffffffffffffffffffffffffff16906020019092919080359060200190929190505050611a4d565b005b6105c46004803603604081101561051757600080fd5b81019080803590602001909291908035906020019064010000000081111561053e57600080fd5b82018360208201111561055057600080fd5b8035906020019184600183028401116401000000008311171561057257600080fd5b91908080601f016020809104026020016040519081016040528093929190818152602001838380828437600081840152601f19601f820116905080830192505050505050509192919290505050611ac3565b6040518082815260200191505060405180910390f35b610626600480360360408110156105f057600080fd5b81019080803573ffffffffffffffffffffffffffffffffffffffff16906020019092919080359060200190929190505050611cbb565b6040518082815260200191505060405180910390f35b6106686004803603602081101561065257600080fd5b8101908080359060200190929190505050611d16565b604051808260ff1660ff16815260200191505060405180910390f35b61068c611e02565b604051808273ffffffffffffffffffffffffffffffffffffffff1673ffffffffffffffffffffffffffffffffffffffff16815260200191505060405180910390f35b61073a600480360360608110156106e457600080fd5b81019080803573ffffffffffffffffffffffffffffffffffffffff169060200190929190803573ffffffffffffffffffffffffffffffffffffffff16906020019092919080359060200190929190505050611e28565b005b6107686004803603602081101561075257600080fd5b8101908080359060200190929190505050611e48565b6040518082815260200191505060405180910390f35b610786611e6b565b604051808273ffffffffffffffffffffffffffffffffffffffff1673ffffffffffffffffffffffffffffffffffffffff16815260200191505060405180910390f35b6107f4600480360360208110156107de57600080fd5b8101908080359060200190929190505050611e91565b604051808273ffffffffffffffffffffffffffffffffffffffff1673ffffffffffffffffffffffffffffffffffffffff16815260200191505060405180910390f35b61083e611ec8565b6040518080602001828103825283818151815260200191508051906020019080838360005b8381101561087e578082015181840152602081019050610863565b50505050905090810190601f1680156108ab5780820380516001836020036101000a031916815260200191505b509250505060405180910390f35b6108fb600480360360208110156108cf57600080fd5b81019080803573ffffffffffffffffffffffffffffffffffffffff169060200190929190505050611f6a565b6040518082815260200191505060405180910390f35b61091961203f565b6040518082815260200191505060405180910390f35b61093761204c565b6040518082815260200191505060405180910390f35b6109796004803603602081101561096357600080fd5b8101908080359060200190929190505050612059565b604051808d81526020018c60ff1660ff168152602001806020018b60ff1660ff1681526020018a61ffff1661ffff1681526020018961ffff1661ffff1681526020018861ffff1661ffff1681526020018761ffff1661ffff1681526020018661ffff1661ffff1681526020018561ffff1661ffff1681526020018461ffff1661ffff1681526020018361ffff1661ffff16815260200182810382528c818151815260200191508051906020019080838360005b83811015610a47578082015181840152602081019050610a2c565b50505050905090810190601f168015610a745780820380516001836020036101000a031916815260200191505b509d505050505050505050505050505060405180910390f35b610a956121e8565b005b610acd60048036036040811015610aad57600080fd5b8101908080359060200190929190803590602001909291905050506124d8565b005b610ad76125a7565b6040518080602001828103825283818151815260200191508051906020019080838360005b83811015610b17578082015181840152602081019050610afc565b50505050905090810190601f168015610b445780820380516001836020036101000a031916815260200191505b509250505060405180910390f35b610ba060048036036040811015610b6857600080fd5b81019080803573ffffffffffffffffffffffffffffffffffffffff169060200190929190803515159060200190929190505050612649565b005b610ca560048036036080811015610bb857600080fd5b81019080803573ffffffffffffffffffffffffffffffffffffffff169060200190929190803573ffffffffffffffffffffffffffffffffffffffff1690602001909291908035906020019092919080359060200190640100000000811115610c1f57600080fd5b820183602082011115610c3157600080fd5b80359060200191846001830284011164010000000083111715610c5357600080fd5b91908080601f016020809104026020016040519081016040528093929190818152602001838380828437600081840152601f19601f820116905080830192505050505050509192919290505050612801565b005b610cd360048036036020811015610cbd57600080fd5b8101908080359060200190929190505050612879565b604051808381526020018260ff1660ff1681526020019250505060405180910390f35b610cfe6128b7565b6040518082815260200191505060405180910390f35b610d4060048036036020811015610d2a57600080fd5b8101908080359060200190929190505050612996565b604051808760ff1660ff168152602001806020018660ff1660ff1681526020018561ffff1661ffff1681526020018461ffff1661ffff1681526020018361ffff1661ffff168152602001828103825287818151815260200191508051906020019080838360005b83811015610dc2578082015181840152602081019050610da7565b50505050905090810190601f168015610def5780820380516001836020036101000a031916815260200191505b5097505050505050505060405180910390f35b610e2e60048036036020811015610e1857600080fd5b8101908080359060200190929190505050612c72565b6040518080602001828103825283818151815260200191508051906020019080838360005b83811015610e6e578082015181840152602081019050610e53565b50505050905090810190601f168015610e9b5780820380516001836020036101000a031916815260200191505b509250505060405180910390f35b610ed560048036036020811015610ebf57600080fd5b8101908080359060200190929190505050612f43565b6040518082815260200191505060405180910390f35b610f2d60048036036020811015610f0157600080fd5b81019080803573ffffffffffffffffffffffffffffffffffffffff169060200190929190505050613112565b6040518080602001828103825283818151815260200191508051906020019060200280838360005b83811015610f70578082015181840152602081019050610f55565b505050509050019250505060405180910390f35b610fe660048036036040811015610f9a57600080fd5b81019080803573ffffffffffffffffffffffffffffffffffffffff169060200190929190803573ffffffffffffffffffffffffffffffffffffffff1690602001909291905050506131a9565b604051808215151515815260200191505060405180910390f35b6110426004803603602081101561101657600080fd5b81019080803573ffffffffffffffffffffffffffffffffffffffff16906020019092919050505061323d565b6040518082815260200191505060405180910390f35b61109a6004803603602081101561106e57600080fd5b81019080803573ffffffffffffffffffffffffffffffffffffffff16906020019092919050505061324f565b6040518080602001828103825283818151815260200191508051906020019060200280838360005b838110156110dd5780820151818401526020810190506110c2565b505050509050019250505060405180910390f35b600060016000837bffffffffffffffffffffffffffffffffffffffffffffffffffffffff19167bffffffffffffffffffffffffffffffffffffffffffffffffffffffff1916815260200190815260200160002060009054906101000a900460ff169050919050565b606060078054600181600116156101000203166002900480601f0160208091040260200160405190810160405280929190818152602001828054600181600116156101000203166002900480156111f15780601f106111c6576101008083540402835291602001916111f1565b820191906000526020600020905b8154815290600101906020018083116111d457829003601f168201915b5050505050905090565b6000611206826132e6565b61125b576040517f08c379a000000000000000000000000000000000000000000000000000000000815260040180806020018281038252602c815260200180615297602c913960400191505060405180910390fd5b6005600083815260200190815260200160002060009054906101000a900473ffffffffffffffffffffffffffffffffffffffff169050919050565b60006112a182611e91565b90508073ffffffffffffffffffffffffffffffffffffffff168373ffffffffffffffffffffffffffffffffffffffff161415611328576040517f08c379a000000000000000000000000000000000000000000000000000000000815260040180806020018281038252602181526020018061531b6021913960400191505060405180910390fd5b8073ffffffffffffffffffffffffffffffffffffffff16611347613303565b73ffffffffffffffffffffffffffffffffffffffff161480611376575061137581611370613303565b6131a9565b5b6113cb576040517f08c379a00000000000000000000000000000000000000000000000000000000081526004018080602001828103825260388152602001806151ea6038913960400191505060405180910390fd5b6113d5838361330b565b505050565b611401601182815481106113ea57fe5b906000526020600020906004020160000154611e91565b73ffffffffffffffffffffffffffffffffffffffff163373ffffffffffffffffffffffffffffffffffffffff1614611484576040517f08c379a00000000000000000000000000000000000000000000000000000000081526004018080602001828103825260278152602001806150f06027913960400191505060405180910390fd5b61148c614f84565b6011828154811061149957fe5b906000526020600020906004020160405180610180016040529081600082015481526020016001820160009054906101000a900460ff1660ff1660ff168152602001600282018054600181600116156101000203166002900480601f0160208091040260200160405190810160405280929190818152602001828054600181600116156101000203166002900480156115735780601f1061154857610100808354040283529160200191611573565b820191906000526020600020905b81548152906001019060200180831161155657829003601f168201915b505050505081526020016003820160009054906101000a900460ff1660ff1660ff1681526020016003820160019054906101000a900461ffff1661ffff1661ffff1681526020016003820160039054906101000a900461ffff1661ffff1661ffff1681526020016003820160059054906101000a900461ffff1661ffff1661ffff1681526020016003820160079054906101000a900461ffff1661ffff1661ffff1681526020016003820160099054906101000a900461ffff1661ffff1661ffff16815260200160038201600b9054906101000a900461ffff1661ffff1661ffff16815260200160038201600d9054906101000a900461ffff1661ffff1661ffff16815260200160038201600f9054906101000a900461ffff1661ffff1661ffff168152505090506001816060018181510191509060ff16908160ff168152505060028160c0018181510191509061ffff16908161ffff168152505060028160e0018181510191509061ffff16908161ffff1681525050600281610100018181510191509061ffff16908161ffff1681525050602881610120018181510191509061ffff16908161ffff1681525050601681610140018181510191509061ffff16908161ffff168152505060018160a0018181510191509061ffff16908161ffff16815250505050565b600061176960036133c4565b905090565b6000806000806000806000871015801561178c575060118054905087105b6117fe576040517f08c379a00000000000000000000000000000000000000000000000000000000081526004018080602001828103825260158152602001807f4865726f20646f6573206e6f74206578697374732e000000000000000000000081525060200191505060405180910390fd5b611806614f84565b6011888154811061181357fe5b906000526020600020906004020160405180610180016040529081600082015481526020016001820160009054906101000a900460ff1660ff1660ff168152602001600282018054600181600116156101000203166002900480601f0160208091040260200160405190810160405280929190818152602001828054600181600116156101000203166002900480156118ed5780601f106118c2576101008083540402835291602001916118ed565b820191906000526020600020905b8154815290600101906020018083116118d057829003601f168201915b505050505081526020016003820160009054906101000a900460ff1660ff1660ff1681526020016003820160019054906101000a900461ffff1661ffff1661ffff1681526020016003820160039054906101000a900461ffff1661ffff1661ffff1681526020016003820160059054906101000a900461ffff1661ffff1661ffff1681526020016003820160079054906101000a900461ffff1661ffff1661ffff1681526020016003820160099054906101000a900461ffff1661ffff1661ffff16815260200160038201600b9054906101000a900461ffff1661ffff1661ffff16815260200160038201600d9054906101000a900461ffff1661ffff1661ffff16815260200160038201600f9054906101000a900461ffff1661ffff1661ffff168152505090508061010001518161012001518261014001518361016001518460a0015185600001519650965096509650965096505091939550919395565b611a5e611a58613303565b826133d9565b611ab3576040517f08c379a000000000000000000000000000000000000000000000000000000000815260040180806020018281038252603181526020018061533c6031913960400191505060405180910390fd5b611abe8383836134cd565b505050565b6000600d547f000000000000000000000000000000000000000000000000000000000000000073ffffffffffffffffffffffffffffffffffffffff166370a08231306040518263ffffffff1660e01b8152600401808273ffffffffffffffffffffffffffffffffffffffff1673ffffffffffffffffffffffffffffffffffffffff16815260200191505060206040518083038186803b158015611b6557600080fd5b505afa158015611b79573d6000803e3d6000fd5b505050506040513d6020811015611b8f57600080fd5b81019080805190602001909291905050501015611bf7576040517f08c379a000000000000000000000000000000000000000000000000000000000815260040180806020018281038252602b81526020018061516d602b913960400191505060405180910390fd5b6000611c08600e54600d5486613710565b905082601360008381526020019081526020016000209080519060200190611c3192919061500b565b50336014600083815260200190815260200160002060006101000a81548173ffffffffffffffffffffffffffffffffffffffff021916908373ffffffffffffffffffffffffffffffffffffffff16021790555060006017600083815260200190815260200160002060006101000a81548160ff021916908360ff1602179055508091505092915050565b6000611d0e82600260008673ffffffffffffffffffffffffffffffffffffffff1673ffffffffffffffffffffffffffffffffffffffff16815260200190815260200160002061391b90919063ffffffff16565b905092915050565b6000808210158015611d2c575060128054905082105b611d9e576040517f08c379a00000000000000000000000000000000000000000000000000000000081526004018080602001828103825260158152602001807f4974656d20646f6573206e6f74206578697374732e000000000000000000000081525060200191505060405180910390fd5b611da661508b565b60128381548110611db357fe5b9060005260206000209060020201604051806040016040529081600082015481526020016001820160009054906101000a900460ff1660ff1660ff168152505090508060200151915050919050565b600f60009054906101000a900473ffffffffffffffffffffffffffffffffffffffff1681565b611e4383838360405180602001604052806000815250612801565b505050565b600080611e5f83600361393590919063ffffffff16565b50905080915050919050565b601060009054906101000a900473ffffffffffffffffffffffffffffffffffffffff1681565b6000611ec18260405180606001604052806029815260200161524c6029913960036139649092919063ffffffff16565b9050919050565b6060600a8054600181600116156101000203166002900480601f016020809104026020016040519081016040528092919081815260200182805460018160011615610100020316600290048015611f605780601f10611f3557610100808354040283529160200191611f60565b820191906000526020600020905b815481529060010190602001808311611f4357829003601f168201915b5050505050905090565b60008073ffffffffffffffffffffffffffffffffffffffff168273ffffffffffffffffffffffffffffffffffffffff161415611ff1576040517f08c379a000000000000000000000000000000000000000000000000000000000815260040180806020018281038252602a815260200180615222602a913960400191505060405180910390fd5b612038600260008473ffffffffffffffffffffffffffffffffffffffff1673ffffffffffffffffffffffffffffffffffffffff168152602001908152602001600020613983565b9050919050565b6000601280549050905090565b6000601180549050905090565b6011818154811061206657fe5b90600052602060002090600402016000915090508060000154908060010160009054906101000a900460ff1690806002018054600181600116156101000203166002900480601f01602080910402602001604051908101604052809291908181526020018280546001816001161561010002031660029004801561212b5780601f106121005761010080835404028352916020019161212b565b820191906000526020600020905b81548152906001019060200180831161210e57829003601f168201915b5050505050908060030160009054906101000a900460ff16908060030160019054906101000a900461ffff16908060030160039054906101000a900461ffff16908060030160059054906101000a900461ffff16908060030160079054906101000a900461ffff16908060030160099054906101000a900461ffff169080600301600b9054906101000a900461ffff169080600301600d9054906101000a900461ffff169080600301600f9054906101000a900461ffff1690508c565b600c60009054906101000a900473ffffffffffffffffffffffffffffffffffffffff1673ffffffffffffffffffffffffffffffffffffffff163373ffffffffffffffffffffffffffffffffffffffff16146122ab576040517f08c379a000000000000000000000000000000000000000000000000000000000815260040180806020018281038252601e8152602001807f4f6e6c79204f776e65722063616e207769746864726177204c494e4b732e000081525060200191505060405180910390fd5b7f000000000000000000000000000000000000000000000000000000000000000073ffffffffffffffffffffffffffffffffffffffff1663a9059cbb337f000000000000000000000000000000000000000000000000000000000000000073ffffffffffffffffffffffffffffffffffffffff166370a08231306040518263ffffffff1660e01b8152600401808273ffffffffffffffffffffffffffffffffffffffff1673ffffffffffffffffffffffffffffffffffffffff16815260200191505060206040518083038186803b15801561238557600080fd5b505afa158015612399573d6000803e3d6000fd5b505050506040513d60208110156123af57600080fd5b81019080805190602001909291905050506040518363ffffffff1660e01b8152600401808373ffffffffffffffffffffffffffffffffffffffff1673ffffffffffffffffffffffffffffffffffffffff16815260200182815260200192505050602060405180830381600087803b15801561242957600080fd5b505af115801561243d573d6000803e3d6000fd5b505050506040513d602081101561245357600080fd5b81019080805190602001909291905050506124d6576040517f08c379a00000000000000000000000000000000000000000000000000000000081526004018080602001828103825260128152602001807f556e61626c6520746f207472616e73666572000000000000000000000000000081525060200191505060405180910390fd5b565b7f000000000000000000000000000000000000000000000000000000000000000073ffffffffffffffffffffffffffffffffffffffff163373ffffffffffffffffffffffffffffffffffffffff1614612599576040517f08c379a000000000000000000000000000000000000000000000000000000000815260040180806020018281038252601f8152602001807f4f6e6c7920565246436f6f7264696e61746f722063616e2066756c66696c6c0081525060200191505060405180910390fd5b6125a38282613998565b5050565b606060088054600181600116156101000203166002900480601f01602080910402602001604051908101604052809291908181526020018280546001816001161561010002031660029004801561263f5780601f106126145761010080835404028352916020019161263f565b820191906000526020600020905b81548152906001019060200180831161262257829003601f168201915b5050505050905090565b612651613303565b73ffffffffffffffffffffffffffffffffffffffff168273ffffffffffffffffffffffffffffffffffffffff1614156126f2576040517f08c379a00000000000000000000000000000000000000000000000000000000081526004018080602001828103825260198152602001807f4552433732313a20617070726f766520746f2063616c6c65720000000000000081525060200191505060405180910390fd5b80600660006126ff613303565b73ffffffffffffffffffffffffffffffffffffffff1673ffffffffffffffffffffffffffffffffffffffff16815260200190815260200160002060008473ffffffffffffffffffffffffffffffffffffffff1673ffffffffffffffffffffffffffffffffffffffff16815260200190815260200160002060006101000a81548160ff0219169083151502179055508173ffffffffffffffffffffffffffffffffffffffff166127ac613303565b73ffffffffffffffffffffffffffffffffffffffff167f17307eab39ab6107e8899845ad3d59bd9653f200f220920489ca2b5937696c3183604051808215151515815260200191505060405180910390a35050565b61281261280c613303565b836133d9565b612867576040517f08c379a000000000000000000000000000000000000000000000000000000000815260040180806020018281038252603181526020018061533c6031913960400191505060405180910390fd5b61287384848484613ff2565b50505050565b6012818154811061288657fe5b90600052602060002090600202016000915090508060000154908060010160009054906101000a900460ff16905082565b60007f000000000000000000000000000000000000000000000000000000000000000073ffffffffffffffffffffffffffffffffffffffff166370a08231306040518263ffffffff1660e01b8152600401808273ffffffffffffffffffffffffffffffffffffffff1673ffffffffffffffffffffffffffffffffffffffff16815260200191505060206040518083038186803b15801561295657600080fd5b505afa15801561296a573d6000803e3d6000fd5b505050506040513d602081101561298057600080fd5b8101908080519060200190929190505050905090565b60006060600080600080600087101580156129b5575060118054905087105b612a27576040517f08c379a00000000000000000000000000000000000000000000000000000000081526004018080602001828103825260158152602001807f4865726f20646f6573206e6f74206578697374732e000000000000000000000081525060200191505060405180910390fd5b612a2f614f84565b60118881548110612a3c57fe5b906000526020600020906004020160405180610180016040529081600082015481526020016001820160009054906101000a900460ff1660ff1660ff168152602001600282018054600181600116156101000203166002900480601f016020809104026020016040519081016040528092919081815260200182805460018160011615610100020316600290048015612b165780601f10612aeb57610100808354040283529160200191612b16565b820191906000526020600020905b815481529060010190602001808311612af957829003601f168201915b505050505081526020016003820160009054906101000a900460ff1660ff1660ff1681526020016003820160019054906101000a900461ffff1661ffff1661ffff1681526020016003820160039054906101000a900461ffff1661ffff1661ffff1681526020016003820160059054906101000a900461ffff1661ffff1661ffff1681526020016003820160079054906101000a900461ffff1661ffff1661ffff1681526020016003820160099054906101000a900461ffff1661ffff1661ffff16815260200160038201600b9054906101000a900461ffff1661ffff1661ffff16815260200160038201600d9054906101000a900461ffff1661ffff1661ffff16815260200160038201600f9054906101000a900461ffff1661ffff1661ffff1681525050905080602001518160400151826060015183608001518460c001518560e001519650965096509650965096505091939550919395565b6060612c7d826132e6565b612cd2576040517f08c379a000000000000000000000000000000000000000000000000000000000815260040180806020018281038252602f8152602001806152ec602f913960400191505060405180910390fd5b6060600960008481526020019081526020016000208054600181600116156101000203166002900480601f016020809104026020016040519081016040528092919081815260200182805460018160011615610100020316600290048015612d7b5780601f10612d5057610100808354040283529160200191612d7b565b820191906000526020600020905b815481529060010190602001808311612d5e57829003601f168201915b505050505090506060612d8c611ec8565b9050600081511415612da2578192505050612f3e565b600082511115612e735780826040516020018083805190602001908083835b60208310612de45780518252602082019150602081019050602083039250612dc1565b6001836020036101000a03801982511681845116808217855250505050505090500182805190602001908083835b60208310612e355780518252602082019150602081019050602083039250612e12565b6001836020036101000a0380198251168184511680821785525050505050509050019250505060405160208183030381529060405292505050612f3e565b80612e7d85614064565b6040516020018083805190602001908083835b60208310612eb35780518252602082019150602081019050602083039250612e90565b6001836020036101000a03801982511681845116808217855250505050505090500182805190602001908083835b60208310612f045780518252602082019150602081019050602083039250612ee1565b6001836020036101000a03801982511681845116808217855250505050505090500192505050604051602081830303815290604052925050505b919050565b6000600d547f000000000000000000000000000000000000000000000000000000000000000073ffffffffffffffffffffffffffffffffffffffff166370a08231306040518263ffffffff1660e01b8152600401808273ffffffffffffffffffffffffffffffffffffffff1673ffffffffffffffffffffffffffffffffffffffff16815260200191505060206040518083038186803b158015612fe557600080fd5b505afa158015612ff9573d6000803e3d6000fd5b505050506040513d602081101561300f57600080fd5b81019080805190602001909291905050501015613077576040517f08c379a000000000000000000000000000000000000000000000000000000000815260040180806020018281038252602b81526020018061516d602b913960400191505060405180910390fd5b6000613088600e54600d5485613710565b9050336014600083815260200190815260200160002060006101000a81548173ffffffffffffffffffffffffffffffffffffffff021916908373ffffffffffffffffffffffffffffffffffffffff16021790555060016017600083815260200190815260200160002060006101000a81548160ff021916908360ff16021790555080915050919050565b6060601660008373ffffffffffffffffffffffffffffffffffffffff1673ffffffffffffffffffffffffffffffffffffffff16815260200190815260200160002080548060200260200160405190810160405280929190818152602001828054801561319d57602002820191906000526020600020905b815481526020019060010190808311613189575b50505050509050919050565b6000600660008473ffffffffffffffffffffffffffffffffffffffff1673ffffffffffffffffffffffffffffffffffffffff16815260200190815260200160002060008373ffffffffffffffffffffffffffffffffffffffff1673ffffffffffffffffffffffffffffffffffffffff16815260200190815260200160002060009054906101000a900460ff16905092915050565b600061324882611f6a565b9050919050565b6060601560008373ffffffffffffffffffffffffffffffffffffffff1673ffffffffffffffffffffffffffffffffffffffff1681526020019081526020016000208054806020026020016040519081016040528092919081815260200182805480156132da57602002820191906000526020600020905b8154815260200190600101908083116132c6575b50505050509050919050565b60006132fc8260036141ab90919063ffffffff16565b9050919050565b600033905090565b816005600083815260200190815260200160002060006101000a81548173ffffffffffffffffffffffffffffffffffffffff021916908373ffffffffffffffffffffffffffffffffffffffff160217905550808273ffffffffffffffffffffffffffffffffffffffff1661337e83611e91565b73ffffffffffffffffffffffffffffffffffffffff167f8c5be1e5ebec7d5bd14f71427d1e84f3dd0314c0f7b2291e5b200ac8c7c3b92560405160405180910390a45050565b60006133d2826000016141c5565b9050919050565b60006133e4826132e6565b613439576040517f08c379a000000000000000000000000000000000000000000000000000000000815260040180806020018281038252602c8152602001806151be602c913960400191505060405180910390fd5b600061344483611e91565b90508073ffffffffffffffffffffffffffffffffffffffff168473ffffffffffffffffffffffffffffffffffffffff1614806134b357508373ffffffffffffffffffffffffffffffffffffffff1661349b846111fb565b73ffffffffffffffffffffffffffffffffffffffff16145b806134c457506134c381856131a9565b5b91505092915050565b8273ffffffffffffffffffffffffffffffffffffffff166134ed82611e91565b73ffffffffffffffffffffffffffffffffffffffff1614613559576040517f08c379a00000000000000000000000000000000000000000000000000000000081526004018080602001828103825260298152602001806152c36029913960400191505060405180910390fd5b600073ffffffffffffffffffffffffffffffffffffffff168273ffffffffffffffffffffffffffffffffffffffff1614156135df576040517f08c379a00000000000000000000000000000000000000000000000000000000081526004018080602001828103825260248152602001806151496024913960400191505060405180910390fd5b6135ea8383836141d6565b6135f560008261330b565b61364681600260008673ffffffffffffffffffffffffffffffffffffffff1673ffffffffffffffffffffffffffffffffffffffff1681526020019081526020016000206141db90919063ffffffff16565b5061369881600260008573ffffffffffffffffffffffffffffffffffffffff1673ffffffffffffffffffffffffffffffffffffffff1681526020019081526020016000206141f590919063ffffffff16565b506136af8183600361420f9092919063ffffffff16565b50808273ffffffffffffffffffffffffffffffffffffffff168473ffffffffffffffffffffffffffffffffffffffff167fddf252ad1be2c89b69c2b068fc378daa952ba7f163c4a11628f55a4df523b3ef60405160405180910390a4505050565b60007f000000000000000000000000000000000000000000000000000000000000000073ffffffffffffffffffffffffffffffffffffffff16634000aea07f000000000000000000000000000000000000000000000000000000000000000085878660405160200180838152602001828152602001925050506040516020818303038152906040526040518463ffffffff1660e01b8152600401808473ffffffffffffffffffffffffffffffffffffffff1673ffffffffffffffffffffffffffffffffffffffff16815260200183815260200180602001828103825283818151815260200191508051906020019080838360005b8381101561381f578082015181840152602081019050613804565b50505050905090810190601f16801561384c5780820380516001836020036101000a031916815260200191505b50945050505050602060405180830381600087803b15801561386d57600080fd5b505af1158015613881573d6000803e3d6000fd5b505050506040513d602081101561389757600080fd5b81019080805190602001909291905050505060006138c98584306000808a815260200190815260200160002054614244565b90506138f16001600080888152602001908152602001600020546142be90919063ffffffff16565b600080878152602001908152602001600020819055506139118582614346565b9150509392505050565b600061392a836000018361437f565b60001c905092915050565b6000806000806139488660000186614402565b915091508160001c8160001c8090509350935050509250929050565b6000613977846000018460001b8461449b565b60001c90509392505050565b600061399182600001614591565b9050919050565b60006017600084815260200190815260200160002060009054906101000a900460ff1660ff161415613e77576000601961271083816139d357fe5b04816139db57fe5b069050600060196298968084816139ee57fe5b04816139f657fe5b069050600060196103e88581613a0857fe5b0481613a1057fe5b06905060006014840260c80190506000600b8402604b0190506000601e8781613a3557fe5b0690506000601180549050905060006001600c8a81613a5057fe5b0601905060058160ff161015613a6a578783019250613a87565b60098160ff161015613a80578583019250613a86565b86830192505b5b6011604051806101800160405280600b60008154809291906001019190505581526020018360ff168152602001601360008e81526020019081526020016000208054600181600116156101000203166002900480601f016020809104026020016040519081016040528092919081815260200182805460018160011615610100020316600290048015613b5b5780601f10613b3057610100808354040283529160200191613b5b565b820191906000526020600020905b815481529060010190602001808311613b3e57829003601f168201915b50505050508152602001600060ff1681526020018561ffff16815260200160058c81613b8357fe5b0661ffff1681526020018a61ffff1681526020018861ffff1681526020018961ffff1681526020018761ffff1681526020018661ffff168152602001606464174876e8008d81613bcf57fe5b0481613bd757fe5b0660c80161ffff1681525090806001815401808255809150506001900390600052602060002090600402016000909190919091506000820151816000015560208201518160010160006101000a81548160ff021916908360ff1602179055506040820151816002019080519060200190613c5292919061500b565b5060608201518160030160006101000a81548160ff021916908360ff16021790555060808201518160030160016101000a81548161ffff021916908361ffff16021790555060a08201518160030160036101000a81548161ffff021916908361ffff16021790555060c08201518160030160056101000a81548161ffff021916908361ffff16021790555060e08201518160030160076101000a81548161ffff021916908361ffff1602179055506101008201518160030160096101000a81548161ffff021916908361ffff16021790555061012082015181600301600b6101000a81548161ffff021916908361ffff16021790555061014082015181600301600d6101000a81548161ffff021916908361ffff16021790555061016082015181600301600f6101000a81548161ffff021916908361ffff1602179055505050613dd1601460008c815260200190815260200160002060009054906101000a900473ffffffffffffffffffffffffffffffffffffffff16600b546145a2565b60156000601460008d815260200190815260200160002060009054906101000a900473ffffffffffffffffffffffffffffffffffffffff1673ffffffffffffffffffffffffffffffffffffffff1673ffffffffffffffffffffffffffffffffffffffff1681526020019081526020016000208290806001815401808255809150506001900390600052602060002001600090919091909150555050505050505050613fee565b600060128054905090506000600160188481613e8f57fe5b0601905060126040518060400160405280600b60008154809291906001019190505581526020018360ff1681525090806001815401808255809150506001900390600052602060002090600202016000909190919091506000820151816000015560208201518160010160006101000a81548160ff021916908360ff1602179055505050613f526014600086815260200190815260200160002060009054906101000a900473ffffffffffffffffffffffffffffffffffffffff16600b546145a2565b601660006014600087815260200190815260200160002060009054906101000a900473ffffffffffffffffffffffffffffffffffffffff1673ffffffffffffffffffffffffffffffffffffffff1673ffffffffffffffffffffffffffffffffffffffff16815260200190815260200160002082908060018154018082558091505060019003906000526020600020016000909190919091505550505b5050565b613ffd8484846134cd565b614009848484846145c0565b61405e576040517f08c379a00000000000000000000000000000000000000000000000000000000081526004018080602001828103825260328152602001806151176032913960400191505060405180910390fd5b50505050565b606060008214156140ac576040518060400160405280600181526020017f300000000000000000000000000000000000000000000000000000000000000081525090506141a6565b600082905060005b600082146140d6578080600101915050600a82816140ce57fe5b0491506140b4565b60608167ffffffffffffffff811180156140ef57600080fd5b506040519080825280601f01601f1916602001820160405280156141225781602001600182028036833780820191505090505b50905060006001830390508593505b6000841461419e57600a848161414357fe5b0660300160f81b8282806001900393508151811061415d57fe5b60200101907effffffffffffffffffffffffffffffffffffffffffffffffffffffffffffff1916908160001a905350600a848161419657fe5b049350614131565b819450505050505b919050565b60006141bd836000018360001b614805565b905092915050565b600081600001805490509050919050565b505050565b60006141ed836000018360001b614828565b905092915050565b6000614207836000018360001b614910565b905092915050565b600061423b846000018460001b8473ffffffffffffffffffffffffffffffffffffffff1660001b614980565b90509392505050565b600084848484604051602001808581526020018481526020018373ffffffffffffffffffffffffffffffffffffffff1673ffffffffffffffffffffffffffffffffffffffff1681526020018281526020019450505050506040516020818303038152906040528051906020012060001c9050949350505050565b60008082840190508381101561433c576040517f08c379a000000000000000000000000000000000000000000000000000000000815260040180806020018281038252601b8152602001807f536166654d6174683a206164646974696f6e206f766572666c6f77000000000081525060200191505060405180910390fd5b8091505092915050565b60008282604051602001808381526020018281526020019250505060405160208183030381529060405280519060200120905092915050565b6000818360000180549050116143e0576040517f08c379a00000000000000000000000000000000000000000000000000000000081526004018080602001828103825260228152602001806150ce6022913960400191505060405180910390fd5b8260000182815481106143ef57fe5b9060005260206000200154905092915050565b60008082846000018054905011614464576040517f08c379a00000000000000000000000000000000000000000000000000000000081526004018080602001828103825260228152602001806152756022913960400191505060405180910390fd5b600084600001848154811061447557fe5b906000526020600020906002020190508060000154816001015492509250509250929050565b60008084600101600085815260200190815260200160002054905060008114158390614562576040517f08c379a00000000000000000000000000000000000000000000000000000000081526004018080602001828103825283818151815260200191508051906020019080838360005b8381101561452757808201518184015260208101905061450c565b50505050905090810190601f1680156145545780820380516001836020036101000a031916815260200191505b509250505060405180910390fd5b5084600001600182038154811061457557fe5b9060005260206000209060020201600101549150509392505050565b600081600001805490509050919050565b6145bc828260405180602001604052806000815250614a5c565b5050565b60006145e18473ffffffffffffffffffffffffffffffffffffffff16614acd565b6145ee57600190506147fd565b606061478463150b7a0260e01b614603613303565b888787604051602401808573ffffffffffffffffffffffffffffffffffffffff1673ffffffffffffffffffffffffffffffffffffffff1681526020018473ffffffffffffffffffffffffffffffffffffffff1673ffffffffffffffffffffffffffffffffffffffff16815260200183815260200180602001828103825283818151815260200191508051906020019080838360005b838110156146b3578082015181840152602081019050614698565b50505050905090810190601f1680156146e05780820380516001836020036101000a031916815260200191505b5095505050505050604051602081830303815290604052907bffffffffffffffffffffffffffffffffffffffffffffffffffffffff19166020820180517bffffffffffffffffffffffffffffffffffffffffffffffffffffffff8381831617835250505050604051806060016040528060328152602001615117603291398773ffffffffffffffffffffffffffffffffffffffff16614ae09092919063ffffffff16565b9050600081806020019051602081101561479d57600080fd5b8101908080519060200190929190505050905063150b7a0260e01b7bffffffffffffffffffffffffffffffffffffffffffffffffffffffff1916817bffffffffffffffffffffffffffffffffffffffffffffffffffffffff191614925050505b949350505050565b600080836001016000848152602001908152602001600020541415905092915050565b60008083600101600084815260200190815260200160002054905060008114614904576000600182039050600060018660000180549050039050600086600001828154811061487357fe5b906000526020600020015490508087600001848154811061489057fe5b90600052602060002001819055506001830187600101600083815260200190815260200160002081905550866000018054806148c857fe5b6001900381819060005260206000200160009055905586600101600087815260200190815260200160002060009055600194505050505061490a565b60009150505b92915050565b600061491c8383614af8565b61497557826000018290806001815401808255809150506001900390600052602060002001600090919091909150558260000180549050836001016000848152602001908152602001600020819055506001905061497a565b600090505b92915050565b6000808460010160008581526020019081526020016000205490506000811415614a2757846000016040518060400160405280868152602001858152509080600181540180825580915050600190039060005260206000209060020201600090919091909150600082015181600001556020820151816001015550508460000180549050856001016000868152602001908152602001600020819055506001915050614a55565b82856000016001830381548110614a3a57fe5b90600052602060002090600202016001018190555060009150505b9392505050565b614a668383614b1b565b614a7360008484846145c0565b614ac8576040517f08c379a00000000000000000000000000000000000000000000000000000000081526004018080602001828103825260328152602001806151176032913960400191505060405180910390fd5b505050565b600080823b905060008111915050919050565b6060614aef8484600085614d0f565b90509392505050565b600080836001016000848152602001908152602001600020541415905092915050565b600073ffffffffffffffffffffffffffffffffffffffff168273ffffffffffffffffffffffffffffffffffffffff161415614bbe576040517f08c379a00000000000000000000000000000000000000000000000000000000081526004018080602001828103825260208152602001807f4552433732313a206d696e7420746f20746865207a65726f206164647265737381525060200191505060405180910390fd5b614bc7816132e6565b15614c3a576040517f08c379a000000000000000000000000000000000000000000000000000000000815260040180806020018281038252601c8152602001807f4552433732313a20746f6b656e20616c7265616479206d696e7465640000000081525060200191505060405180910390fd5b614c46600083836141d6565b614c9781600260008573ffffffffffffffffffffffffffffffffffffffff1673ffffffffffffffffffffffffffffffffffffffff1681526020019081526020016000206141f590919063ffffffff16565b50614cae8183600361420f9092919063ffffffff16565b50808273ffffffffffffffffffffffffffffffffffffffff16600073ffffffffffffffffffffffffffffffffffffffff167fddf252ad1be2c89b69c2b068fc378daa952ba7f163c4a11628f55a4df523b3ef60405160405180910390a45050565b606082471015614d6a576040517f08c379a00000000000000000000000000000000000000000000000000000000081526004018080602001828103825260268152602001806151986026913960400191505060405180910390fd5b614d7385614acd565b614de5576040517f08c379a000000000000000000000000000000000000000000000000000000000815260040180806020018281038252601d8152602001807f416464726573733a2063616c6c20746f206e6f6e2d636f6e747261637400000081525060200191505060405180910390fd5b600060608673ffffffffffffffffffffffffffffffffffffffff1685876040518082805190602001908083835b60208310614e355780518252602082019150602081019050602083039250614e12565b6001836020036101000a03801982511681845116808217855250505050505090500191505060006040518083038185875af1925050503d8060008114614e97576040519150601f19603f3d011682016040523d82523d6000602084013e614e9c565b606091505b5091509150614eac828286614eb8565b92505050949350505050565b60608315614ec857829050614f7d565b600083511115614edb5782518084602001fd5b816040517f08c379a00000000000000000000000000000000000000000000000000000000081526004018080602001828103825283818151815260200191508051906020019080838360005b83811015614f42578082015181840152602081019050614f27565b50505050905090810190601f168015614f6f5780820380516001836020036101000a031916815260200191505b509250505060405180910390fd5b9392505050565b60405180610180016040528060008152602001600060ff16815260200160608152602001600060ff168152602001600061ffff168152602001600061ffff168152602001600061ffff168152602001600061ffff168152602001600061ffff168152602001600061ffff168152602001600061ffff168152602001600061ffff1681525090565b828054600181600116156101000203166002900490600052602060002090601f016020900481019282601f1061504c57805160ff191683800117855561507a565b8280016001018555821561507a579182015b8281111561507957825182559160200191906001019061505e565b5b50905061508791906150a8565b5090565b604051806040016040528060008152602001600060ff1681525090565b6150ca91905b808211156150c65760008160009055506001016150ae565b5090565b9056fe456e756d657261626c655365743a20696e646578206f7574206f6620626f756e64734f6e6c79206f776e6572206f66204e46542063616e206c6576656c2d757020746865206865726f4552433732313a207472616e7366657220746f206e6f6e20455243373231526563656976657220696d706c656d656e7465724552433732313a207472616e7366657220746f20746865207a65726f20616464726573734e6f7420656e6f756768204c494e4b202d2066696c6c20636f6e7472616374207769746820666175636574416464726573733a20696e73756666696369656e742062616c616e636520666f722063616c6c4552433732313a206f70657261746f7220717565727920666f72206e6f6e6578697374656e7420746f6b656e4552433732313a20617070726f76652063616c6c6572206973206e6f74206f776e6572206e6f7220617070726f76656420666f7220616c6c4552433732313a2062616c616e636520717565727920666f7220746865207a65726f20616464726573734552433732313a206f776e657220717565727920666f72206e6f6e6578697374656e7420746f6b656e456e756d657261626c654d61703a20696e646578206f7574206f6620626f756e64734552433732313a20617070726f76656420717565727920666f72206e6f6e6578697374656e7420746f6b656e4552433732313a207472616e73666572206f6620746f6b656e2074686174206973206e6f74206f776e4552433732314d657461646174613a2055524920717565727920666f72206e6f6e6578697374656e7420746f6b656e4552433732313a20617070726f76616c20746f2063757272656e74206f776e65724552433732313a207472616e736665722063616c6c6572206973206e6f74206f776e6572206e6f7220617070726f766564a2646970667358221220919acabcc73ecc78a99dfcc000b7024f4cf68f5842a5852e5e9baf7b6d40d44b64736f6c63430006060033",
  "immutableReferences": {
    "815": [
      {
        "length": 32,
        "start": 6858
      },
      {
        "length": 32,
        "start": 8877
      },
      {
        "length": 32,
        "start": 8938
      },
      {
        "length": 32,
        "start": 10427
      },
      {
        "length": 32,
        "start": 12106
      },
      {
        "length": 32,
        "start": 14100
      }
    ],
    "817": [
      {
        "length": 32,
        "start": 9434
      },
      {
        "length": 32,
        "start": 14160
      }
    ]
  },
  "source": "pragma solidity '0.6.6';\r\n\r\nimport '@chainlink/contracts/src/v0.6/VRFConsumerBase.sol';// Random number\r\nimport '@openzeppelin/contracts/token/ERC721/ERC721.sol';// ERC721 \r\n\r\ncontract Dota is VRFConsumerBase, ERC721 {\r\n    \r\n    uint256 Id;\r\n    \r\n    address owner; // contract owner\r\n\r\n    uint256 internal fee; //fee in LINK for chainlink\r\n    bytes32 internal keyHash;   \r\n\r\n    address public VRFCoordinator;\r\n    address public LinkToken;\r\n\r\n    // Structure Hero for creating heros\r\n    struct Hero{\r\n        uint256 tokenId;\r\n        uint8 heroCode;\r\n        string name;\r\n        uint8 level;\r\n        uint16 damage;\r\n        uint16 armor;\r\n        uint16 strength;\r\n        uint16 agility;\r\n        uint16 intelligence;\r\n        uint16 hitPoints;\r\n        uint16 mana;\r\n        uint16 movementSpeed;\r\n    }   \r\n    Hero[] public heros;\r\n\r\n    // Structure Item for creating items\r\n    struct Item{\r\n        uint256 tokenId;\r\n        uint8 itemCode;\r\n    }\r\n    Item[] public items;\r\n    \r\n    mapping(bytes32 => string) requestToName;\r\n    mapping(bytes32 => address) requestToSender;\r\n    mapping(address => uint256[]) ownerToHeros;\r\n    mapping(address => uint256[]) ownerToItems;\r\n    mapping(bytes32 => uint8) requestFor;\r\n    mapping(uint256 => uint256[6]) heroToItems;\r\n\r\n    constructor(address _VRFCoordinator, address _LinkToken, bytes32 _keyHash) public\r\n    VRFConsumerBase(_VRFCoordinator, _LinkToken)\r\n    ERC721(\"DefenceOfTheAncients\", \"DOTA\")\r\n    {\r\n        VRFCoordinator = _VRFCoordinator;\r\n        LinkToken = _LinkToken;\r\n        keyHash = _keyHash;\r\n        fee = 0.1 * 10**18; // 0.1 LINK\r\n        owner = msg.sender;\r\n    }\r\n\r\n    function requestHero(uint256 _seed, string memory _name) public\r\n    returns(bytes32) {\r\n        require(\r\n            LINK.balanceOf(address(this)) >= fee, \"Not enough LINK - fill contract with faucet\" );\r\n        bytes32 requestId = requestRandomness(keyHash, fee, _seed);\r\n        requestToName[requestId] = _name;\r\n        requestToSender[requestId] = msg.sender;\r\n        requestFor[requestId] = 0;\r\n        return(requestId);\r\n    }\r\n\r\n    function requestItem(uint256 _seed) public\r\n    returns(bytes32) {\r\n        require(\r\n            LINK.balanceOf(address(this)) >= fee, \"Not enough LINK - fill contract with faucet\" );\r\n        bytes32 requestId = requestRandomness(keyHash, fee, _seed);\r\n        requestToSender[requestId] = msg.sender;\r\n        requestFor[requestId] = 1;\r\n        return(requestId);\r\n    }\r\n\r\n    function fulfillRandomness(bytes32 requestId, uint256 randomNumber)\r\n    internal\r\n    override {       \r\n        if(requestFor[requestId] == 0){\r\n            uint16 strength = uint16((randomNumber / 10000) % 25);\r\n            uint16 intelligence = uint16((randomNumber / 10000000) % 25);\r\n            uint16 agility = uint16((randomNumber / 1000) % 25);   \r\n            uint16 hitPoints = uint16(200 + strength * 20);\r\n            uint16 mana = uint16(75 + intelligence * 11);\r\n            uint16 damage = uint16(randomNumber % 30);\r\n            uint256 newId = heros.length;\r\n            uint8 heroCode = uint8(randomNumber % 12 + 1);\r\n            if(heroCode < 5){\r\n                damage += strength;\r\n            }else if(heroCode < 9){\r\n                damage += agility;\r\n            }else{\r\n                damage += intelligence;\r\n            }\r\n            \r\n            heros.push(\r\n                Hero(\r\n                    Id++,\r\n                    heroCode,\r\n                    requestToName[requestId],\r\n                    0,\r\n                    damage,\r\n                    uint16(randomNumber % 5),\r\n                    strength,\r\n                    agility,\r\n                    intelligence,\r\n                    hitPoints,\r\n                    mana,\r\n                    uint16(200 + (randomNumber / 100000000000) % 100)\r\n                )   \r\n            );\r\n            \r\n            _safeMint(requestToSender[requestId], Id);\r\n            ownerToHeros[requestToSender[requestId]].push(newId);\r\n        }else{\r\n            uint256 newId = items.length;\r\n            uint8 itemCode = uint8(randomNumber % 24 + 1);\r\n            items.push(\r\n            Item(\r\n                Id++,\r\n                itemCode\r\n            )   \r\n            );\r\n\r\n            _safeMint(requestToSender[requestId], Id);\r\n            ownerToItems[requestToSender[requestId]].push(newId);\r\n        }\r\n       \r\n    }\r\n\r\n    function getHeroFirstHalf(uint256 id)\r\n    public\r\n    view\r\n    returns(uint8, string memory, uint8, uint16, uint16, uint16){\r\n        require(id >= 0 && id < heros.length, \"Hero does not exists.\");\r\n        Hero memory hero = heros[id];\r\n        return(hero.heroCode, hero.name, hero.level,hero.damage, hero.strength, hero.agility);\r\n    }\r\n\r\n    function getHeroSecondHalf(uint256 id)\r\n    public\r\n    view\r\n    returns(uint16, uint16, uint16, uint16, uint16, uint256){\r\n        require(id >= 0 && id < heros.length, \"Hero does not exists.\");\r\n        Hero memory hero = heros[id];\r\n        return(hero.intelligence, hero.hitPoints, hero.mana, hero.movementSpeed, hero.armor, hero.tokenId);\r\n    }\r\n\r\n    function levelUp(uint256 _id)\r\n    view\r\n    external\r\n    {\r\n        require(msg.sender == ownerOf(heros[_id].tokenId), \"Only owner of NFT can level-up the hero\");\r\n        Hero memory hero = heros[_id];\r\n        hero.level += 1;\r\n        hero.strength += 2;\r\n        hero.agility += 2;\r\n        hero.intelligence += 2;\r\n        hero.hitPoints += 40;\r\n        hero.mana += 22;\r\n        hero.armor += 1;\r\n    }\r\n\r\n    function getItem(uint256 id)\r\n    public\r\n    view\r\n    returns(uint8){\r\n        require(id >= 0 && id < items.length, \"Item does not exists.\");\r\n        Item memory item = items[id];\r\n        return(item.itemCode);\r\n    }\r\n\r\n    function withdrawLink() \r\n    external{\r\n        require(msg.sender == owner, \"Only Owner can withdraw LINKs.\");\r\n        require(LINK.transfer(msg.sender, LINK.balanceOf(address(this))), \"Unable to transfer\");\r\n    }\r\n\r\n    function linkBalance() \r\n    external \r\n    view \r\n    returns(uint256){\r\n        return(LINK.balanceOf(address(this)));\r\n    }\r\n\r\n    function getNFTCount(address _account)\r\n    public\r\n    view\r\n    returns(uint256){\r\n        return balanceOf(_account);\r\n    }\r\n\r\n    function getHeroCount()\r\n    public\r\n    view\r\n    returns (uint256){\r\n        return heros.length;\r\n    }\r\n\r\n    function getItemCount()\r\n    public\r\n    view\r\n    returns (uint256){\r\n        return items.length;\r\n    }\r\n\r\n    function getHeroNFTs(address _account)\r\n    public\r\n    view\r\n    returns(uint256[] memory){\r\n        return ownerToHeros[_account];\r\n    }\r\n\r\n    function getItemNFTs(address _account)\r\n    public\r\n    view\r\n    returns(uint256[] memory){\r\n        return ownerToItems[_account];\r\n    }\r\n}",
  "sourcePath": "D:/Blockchain/chainlink Hackethone/dota-nft/contracts/Dota.sol",
  "compiler": {
    "name": "solc",
    "version": "0.6.6+commit.6c089d02.Emscripten.clang"
  },
  "schemaVersion": "3.3.4",
  "updatedAt": "2021-04-03T19:06:49.134Z",
  "networkType": "ethereum",
  "devdoc": {
    "methods": {
      "approve(address,uint256)": {
        "details": "See {IERC721-approve}."
      },
      "balanceOf(address)": {
        "details": "See {IERC721-balanceOf}."
      },
      "baseURI()": {
        "details": "Returns the base URI set via {_setBaseURI}. This will be automatically added as a prefix in {tokenURI} to each token's URI, or to the token ID if no specific URI is set for that token ID."
      },
      "getApproved(uint256)": {
        "details": "See {IERC721-getApproved}."
      },
      "isApprovedForAll(address,address)": {
        "details": "See {IERC721-isApprovedForAll}."
      },
      "name()": {
        "details": "See {IERC721Metadata-name}."
      },
      "ownerOf(uint256)": {
        "details": "See {IERC721-ownerOf}."
      },
      "safeTransferFrom(address,address,uint256)": {
        "details": "See {IERC721-safeTransferFrom}."
      },
      "safeTransferFrom(address,address,uint256,bytes)": {
        "details": "See {IERC721-safeTransferFrom}."
      },
      "setApprovalForAll(address,bool)": {
        "details": "See {IERC721-setApprovalForAll}."
      },
      "supportsInterface(bytes4)": {
        "details": "See {IERC165-supportsInterface}.     * Time complexity O(1), guaranteed to always use less than 30 000 gas."
      },
      "symbol()": {
        "details": "See {IERC721Metadata-symbol}."
      },
      "tokenByIndex(uint256)": {
        "details": "See {IERC721Enumerable-tokenByIndex}."
      },
      "tokenOfOwnerByIndex(address,uint256)": {
        "details": "See {IERC721Enumerable-tokenOfOwnerByIndex}."
      },
      "tokenURI(uint256)": {
        "details": "See {IERC721Metadata-tokenURI}."
      },
      "totalSupply()": {
        "details": "See {IERC721Enumerable-totalSupply}."
      },
      "transferFrom(address,address,uint256)": {
        "details": "See {IERC721-transferFrom}."
      }
    }
  },
  "userdoc": {
    "methods": {}
  }
}