{
  "contractName": "Dota",
  "abi": [
    {
      "inputs": [
        {
          "internalType": "address",
          "name": "_VRFCoordinator",
          "type": "address"
        },
        {
          "internalType": "address",
          "name": "_LinkToken",
          "type": "address"
        },
        {
          "internalType": "bytes32",
          "name": "_keyHash",
          "type": "bytes32"
        }
      ],
      "stateMutability": "nonpayable",
      "type": "constructor"
    },
    {
      "anonymous": false,
      "inputs": [
        {
          "indexed": true,
          "internalType": "address",
          "name": "owner",
          "type": "address"
        },
        {
          "indexed": true,
          "internalType": "address",
          "name": "approved",
          "type": "address"
        },
        {
          "indexed": true,
          "internalType": "uint256",
          "name": "tokenId",
          "type": "uint256"
        }
      ],
      "name": "Approval",
      "type": "event"
    },
    {
      "anonymous": false,
      "inputs": [
        {
          "indexed": true,
          "internalType": "address",
          "name": "owner",
          "type": "address"
        },
        {
          "indexed": true,
          "internalType": "address",
          "name": "operator",
          "type": "address"
        },
        {
          "indexed": false,
          "internalType": "bool",
          "name": "approved",
          "type": "bool"
        }
      ],
      "name": "ApprovalForAll",
      "type": "event"
    },
    {
      "anonymous": false,
      "inputs": [
        {
          "indexed": true,
          "internalType": "address",
          "name": "from",
          "type": "address"
        },
        {
          "indexed": true,
          "internalType": "address",
          "name": "to",
          "type": "address"
        },
        {
          "indexed": true,
          "internalType": "uint256",
          "name": "tokenId",
          "type": "uint256"
        }
      ],
      "name": "Transfer",
      "type": "event"
    },
    {
      "inputs": [
        {
          "internalType": "address",
          "name": "to",
          "type": "address"
        },
        {
          "internalType": "uint256",
          "name": "tokenId",
          "type": "uint256"
        }
      ],
      "name": "approve",
      "outputs": [],
      "stateMutability": "nonpayable",
      "type": "function"
    },
    {
      "inputs": [
        {
          "internalType": "address",
          "name": "owner",
          "type": "address"
        }
      ],
      "name": "balanceOf",
      "outputs": [
        {
          "internalType": "uint256",
          "name": "",
          "type": "uint256"
        }
      ],
      "stateMutability": "view",
      "type": "function",
      "constant": true
    },
    {
      "inputs": [],
      "name": "baseURI",
      "outputs": [
        {
          "internalType": "string",
          "name": "",
          "type": "string"
        }
      ],
      "stateMutability": "view",
      "type": "function",
      "constant": true
    },
    {
      "inputs": [
        {
          "internalType": "uint256",
          "name": "tokenId",
          "type": "uint256"
        }
      ],
      "name": "getApproved",
      "outputs": [
        {
          "internalType": "address",
          "name": "",
          "type": "address"
        }
      ],
      "stateMutability": "view",
      "type": "function",
      "constant": true
    },
    {
      "inputs": [
        {
          "internalType": "address",
          "name": "owner",
          "type": "address"
        },
        {
          "internalType": "address",
          "name": "operator",
          "type": "address"
        }
      ],
      "name": "isApprovedForAll",
      "outputs": [
        {
          "internalType": "bool",
          "name": "",
          "type": "bool"
        }
      ],
      "stateMutability": "view",
      "type": "function",
      "constant": true
    },
    {
      "inputs": [],
      "name": "name",
      "outputs": [
        {
          "internalType": "string",
          "name": "",
          "type": "string"
        }
      ],
      "stateMutability": "view",
      "type": "function",
      "constant": true
    },
    {
      "inputs": [
        {
          "internalType": "uint256",
          "name": "tokenId",
          "type": "uint256"
        }
      ],
      "name": "ownerOf",
      "outputs": [
        {
          "internalType": "address",
          "name": "",
          "type": "address"
        }
      ],
      "stateMutability": "view",
      "type": "function",
      "constant": true
    },
    {
      "inputs": [
        {
          "internalType": "bytes32",
          "name": "requestId",
          "type": "bytes32"
        },
        {
          "internalType": "uint256",
          "name": "randomness",
          "type": "uint256"
        }
      ],
      "name": "rawFulfillRandomness",
      "outputs": [],
      "stateMutability": "nonpayable",
      "type": "function"
    },
    {
      "inputs": [
        {
          "internalType": "address",
          "name": "from",
          "type": "address"
        },
        {
          "internalType": "address",
          "name": "to",
          "type": "address"
        },
        {
          "internalType": "uint256",
          "name": "tokenId",
          "type": "uint256"
        }
      ],
      "name": "safeTransferFrom",
      "outputs": [],
      "stateMutability": "nonpayable",
      "type": "function"
    },
    {
      "inputs": [
        {
          "internalType": "address",
          "name": "from",
          "type": "address"
        },
        {
          "internalType": "address",
          "name": "to",
          "type": "address"
        },
        {
          "internalType": "uint256",
          "name": "tokenId",
          "type": "uint256"
        },
        {
          "internalType": "bytes",
          "name": "_data",
          "type": "bytes"
        }
      ],
      "name": "safeTransferFrom",
      "outputs": [],
      "stateMutability": "nonpayable",
      "type": "function"
    },
    {
      "inputs": [
        {
          "internalType": "address",
          "name": "operator",
          "type": "address"
        },
        {
          "internalType": "bool",
          "name": "approved",
          "type": "bool"
        }
      ],
      "name": "setApprovalForAll",
      "outputs": [],
      "stateMutability": "nonpayable",
      "type": "function"
    },
    {
      "inputs": [
        {
          "internalType": "bytes4",
          "name": "interfaceId",
          "type": "bytes4"
        }
      ],
      "name": "supportsInterface",
      "outputs": [
        {
          "internalType": "bool",
          "name": "",
          "type": "bool"
        }
      ],
      "stateMutability": "view",
      "type": "function",
      "constant": true
    },
    {
      "inputs": [],
      "name": "symbol",
      "outputs": [
        {
          "internalType": "string",
          "name": "",
          "type": "string"
        }
      ],
      "stateMutability": "view",
      "type": "function",
      "constant": true
    },
    {
      "inputs": [
        {
          "internalType": "uint256",
          "name": "index",
          "type": "uint256"
        }
      ],
      "name": "tokenByIndex",
      "outputs": [
        {
          "internalType": "uint256",
          "name": "",
          "type": "uint256"
        }
      ],
      "stateMutability": "view",
      "type": "function",
      "constant": true
    },
    {
      "inputs": [
        {
          "internalType": "address",
          "name": "owner",
          "type": "address"
        },
        {
          "internalType": "uint256",
          "name": "index",
          "type": "uint256"
        }
      ],
      "name": "tokenOfOwnerByIndex",
      "outputs": [
        {
          "internalType": "uint256",
          "name": "",
          "type": "uint256"
        }
      ],
      "stateMutability": "view",
      "type": "function",
      "constant": true
    },
    {
      "inputs": [
        {
          "internalType": "uint256",
          "name": "tokenId",
          "type": "uint256"
        }
      ],
      "name": "tokenURI",
      "outputs": [
        {
          "internalType": "string",
          "name": "",
          "type": "string"
        }
      ],
      "stateMutability": "view",
      "type": "function",
      "constant": true
    },
    {
      "inputs": [],
      "name": "totalSupply",
      "outputs": [
        {
          "internalType": "uint256",
          "name": "",
          "type": "uint256"
        }
      ],
      "stateMutability": "view",
      "type": "function",
      "constant": true
    },
    {
      "inputs": [
        {
          "internalType": "address",
          "name": "from",
          "type": "address"
        },
        {
          "internalType": "address",
          "name": "to",
          "type": "address"
        },
        {
          "internalType": "uint256",
          "name": "tokenId",
          "type": "uint256"
        }
      ],
      "name": "transferFrom",
      "outputs": [],
      "stateMutability": "nonpayable",
      "type": "function"
    },
    {
      "inputs": [
        {
          "internalType": "uint256",
          "name": "_seed",
          "type": "uint256"
        },
        {
          "internalType": "string",
          "name": "_name",
          "type": "string"
        }
      ],
      "name": "requestHero",
      "outputs": [
        {
          "internalType": "bytes32",
          "name": "",
          "type": "bytes32"
        }
      ],
      "stateMutability": "nonpayable",
      "type": "function"
    },
    {
      "inputs": [
        {
          "internalType": "uint256",
          "name": "_seed",
          "type": "uint256"
        }
      ],
      "name": "requestItem",
      "outputs": [
        {
          "internalType": "bytes32",
          "name": "",
          "type": "bytes32"
        }
      ],
      "stateMutability": "nonpayable",
      "type": "function"
    },
    {
      "inputs": [
        {
          "internalType": "uint256",
          "name": "_id",
          "type": "uint256"
        }
      ],
      "name": "getHeroFirstHalf",
      "outputs": [
        {
          "internalType": "uint8",
          "name": "",
          "type": "uint8"
        },
        {
          "internalType": "string",
          "name": "",
          "type": "string"
        },
        {
          "internalType": "uint8",
          "name": "",
          "type": "uint8"
        },
        {
          "internalType": "uint16",
          "name": "",
          "type": "uint16"
        },
        {
          "internalType": "uint16",
          "name": "",
          "type": "uint16"
        },
        {
          "internalType": "uint16",
          "name": "",
          "type": "uint16"
        }
      ],
      "stateMutability": "view",
      "type": "function",
      "constant": true
    },
    {
      "inputs": [
        {
          "internalType": "uint256",
          "name": "_id",
          "type": "uint256"
        }
      ],
      "name": "getHeroSecondHalf",
      "outputs": [
        {
          "internalType": "uint16",
          "name": "",
          "type": "uint16"
        },
        {
          "internalType": "uint16",
          "name": "",
          "type": "uint16"
        },
        {
          "internalType": "uint16",
          "name": "",
          "type": "uint16"
        },
        {
          "internalType": "uint16",
          "name": "",
          "type": "uint16"
        },
        {
          "internalType": "uint16",
          "name": "",
          "type": "uint16"
        },
        {
          "internalType": "uint256",
          "name": "",
          "type": "uint256"
        }
      ],
      "stateMutability": "view",
      "type": "function",
      "constant": true
    },
    {
      "inputs": [
        {
          "internalType": "uint256",
          "name": "_id",
          "type": "uint256"
        }
      ],
      "name": "getItem",
      "outputs": [
        {
          "internalType": "uint8",
          "name": "",
          "type": "uint8"
        }
      ],
      "stateMutability": "view",
      "type": "function",
      "constant": true
    },
    {
      "inputs": [
        {
          "internalType": "uint256",
          "name": "_id",
          "type": "uint256"
        }
      ],
      "name": "levelUp",
      "outputs": [],
      "stateMutability": "nonpayable",
      "type": "function"
    },
    {
      "inputs": [],
      "name": "withdrawLink",
      "outputs": [],
      "stateMutability": "nonpayable",
      "type": "function"
    },
    {
      "inputs": [],
      "name": "linkBalance",
      "outputs": [
        {
          "internalType": "uint256",
          "name": "",
          "type": "uint256"
        }
      ],
      "stateMutability": "view",
      "type": "function",
      "constant": true
    },
    {
      "inputs": [
        {
          "internalType": "uint256",
          "name": "_id",
          "type": "uint256"
        }
      ],
      "name": "getHeroOwner",
      "outputs": [
        {
          "internalType": "address",
          "name": "",
          "type": "address"
        }
      ],
      "stateMutability": "view",
      "type": "function",
      "constant": true
    },
    {
      "inputs": [
        {
          "internalType": "uint256",
          "name": "_id",
          "type": "uint256"
        }
      ],
      "name": "getItemOwner",
      "outputs": [
        {
          "internalType": "address",
          "name": "",
          "type": "address"
        }
      ],
      "stateMutability": "view",
      "type": "function",
      "constant": true
    },
    {
      "inputs": [
        {
          "internalType": "address",
          "name": "_account",
          "type": "address"
        }
      ],
      "name": "getNFTCount",
      "outputs": [
        {
          "internalType": "uint256",
          "name": "",
          "type": "uint256"
        }
      ],
      "stateMutability": "view",
      "type": "function",
      "constant": true
    },
    {
      "inputs": [],
      "name": "getHeroCount",
      "outputs": [
        {
          "internalType": "uint256",
          "name": "",
          "type": "uint256"
        }
      ],
      "stateMutability": "view",
      "type": "function",
      "constant": true
    },
    {
      "inputs": [],
      "name": "getItemCount",
      "outputs": [
        {
          "internalType": "uint256",
          "name": "",
          "type": "uint256"
        }
      ],
      "stateMutability": "view",
      "type": "function",
      "constant": true
    },
    {
      "inputs": [
        {
          "internalType": "address",
          "name": "_account",
          "type": "address"
        }
      ],
      "name": "getHeroNFTs",
      "outputs": [
        {
          "internalType": "uint256[]",
          "name": "",
          "type": "uint256[]"
        }
      ],
      "stateMutability": "view",
      "type": "function",
      "constant": true
    },
    {
      "inputs": [
        {
          "internalType": "address",
          "name": "_account",
          "type": "address"
        }
      ],
      "name": "getItemNFTs",
      "outputs": [
        {
          "internalType": "uint256[]",
          "name": "",
          "type": "uint256[]"
        }
      ],
      "stateMutability": "view",
      "type": "function",
      "constant": true
    },
    {
      "inputs": [
        {
          "internalType": "uint256",
          "name": "_heroId",
          "type": "uint256"
        },
        {
          "internalType": "uint256",
          "name": "_itemId",
          "type": "uint256"
        },
        {
          "internalType": "uint16",
          "name": "_strength",
          "type": "uint16"
        },
        {
          "internalType": "uint16",
          "name": "_agility",
          "type": "uint16"
        },
        {
          "internalType": "uint16",
          "name": "_intelligence",
          "type": "uint16"
        },
        {
          "internalType": "uint16",
          "name": "_damage",
          "type": "uint16"
        },
        {
          "internalType": "uint16",
          "name": "_armor",
          "type": "uint16"
        },
        {
          "internalType": "uint16",
          "name": "_mana",
          "type": "uint16"
        },
        {
          "internalType": "uint16",
          "name": "_movementSpeed",
          "type": "uint16"
        }
      ],
      "name": "equipItem",
      "outputs": [],
      "stateMutability": "nonpayable",
      "type": "function"
    },
    {
      "inputs": [
        {
          "internalType": "uint256",
          "name": "_id",
          "type": "uint256"
        }
      ],
      "name": "getEquippedItems",
      "outputs": [
        {
          "internalType": "uint256[]",
          "name": "",
          "type": "uint256[]"
        }
      ],
      "stateMutability": "view",
      "type": "function",
      "constant": true
    }
  ],
  "bytecode": "0x60c06040523480156200001157600080fd5b5060405162005e0138038062005e01833981810160405260608110156200003757600080fd5b810190808051906020019092919080519060200190929190805190602001909291905050506040518060400160405280601481526020017f446566656e63654f66546865416e6369656e74730000000000000000000000008152506040518060400160405280600481526020017f444f54410000000000000000000000000000000000000000000000000000000081525084848173ffffffffffffffffffffffffffffffffffffffff1660a08173ffffffffffffffffffffffffffffffffffffffff1660601b815250508073ffffffffffffffffffffffffffffffffffffffff1660808173ffffffffffffffffffffffffffffffffffffffff1660601b815250505050620001526301ffc9a760e01b620002b060201b60201c565b81600790805190602001906200016a929190620003b9565b50806008908051906020019062000183929190620003b9565b506200019c6380ac58cd60e01b620002b060201b60201c565b620001b4635b5e139f60e01b620002b060201b60201c565b620001cc63780e9d6360e01b620002b060201b60201c565b505082600f60006101000a81548173ffffffffffffffffffffffffffffffffffffffff021916908373ffffffffffffffffffffffffffffffffffffffff16021790555081601060006101000a81548173ffffffffffffffffffffffffffffffffffffffff021916908373ffffffffffffffffffffffffffffffffffffffff16021790555080600e8190555067016345785d8a0000600d8190555033600c60006101000a81548173ffffffffffffffffffffffffffffffffffffffff021916908373ffffffffffffffffffffffffffffffffffffffff16021790555050505062000468565b63ffffffff60e01b817bffffffffffffffffffffffffffffffffffffffffffffffffffffffff191614156200034d576040517f08c379a000000000000000000000000000000000000000000000000000000000815260040180806020018281038252601c8152602001807f4552433136353a20696e76616c696420696e746572666163652069640000000081525060200191505060405180910390fd5b6001806000837bffffffffffffffffffffffffffffffffffffffffffffffffffffffff19167bffffffffffffffffffffffffffffffffffffffffffffffffffffffff1916815260200190815260200160002060006101000a81548160ff02191690831515021790555050565b828054600181600116156101000203166002900490600052602060002090601f016020900481019282601f10620003fc57805160ff19168380011785556200042d565b828001600101855582156200042d579182015b828111156200042c5782518255916020019190600101906200040f565b5b5090506200043c919062000440565b5090565b6200046591905b808211156200046157600081600090555060010162000447565b5090565b90565b60805160601c60a05160601c615951620004b0600039806124605280613d09525080611b6f528061223352806122705280612d7e528061340f5280613ccd52506159516000f3fe608060405234801561001057600080fd5b50600436106102115760003560e01c806370a0823111610125578063c26ecefa116100ad578063d8faebfb1161007c578063d8faebfb14610e3f578063e1cb414814610ed8578063e985e9c514610f5b578063f41d3f6914610fd7578063f85d2c941461102f57610211565b8063c26ecefa14610c4a578063c810f90b14610c68578063c87b56dd14610d56578063d62a488714610dfd57610211565b806394985ddd116100f457806394985ddd1461099f57806395d89b41146109d7578063a22cb46514610a5a578063b88d4fde14610aaa578063be38502714610baf57610211565b806370a08231146109015780637749cf231461095957806377548382146109775780638dc654a21461099557610211565b806323b872dd116101a857806342842e0e1161017757806342842e0e146106f25780634f6ccce71461076057806356b4d760146107a25780636352211e146108105780636c0360eb1461087e57610211565b806323b872dd146105015780632f255c151461056f5780632f745c59146106485780633129e773146106aa57610211565b80630ce90ec2116101e45780630ce90ec2146103ba57806318160ddd146103e857806318366df0146104065780631d1440fd1461049357610211565b806301ffc9a71461021657806306fdde031461027b578063081812fc146102fe578063095ea7b31461036c575b600080fd5b6102616004803603602081101561022c57600080fd5b8101908080357bffffffffffffffffffffffffffffffffffffffffffffffffffffffff191690602001909291905050506110c8565b604051808215151515815260200191505060405180910390f35b610283611130565b6040518080602001828103825283818151815260200191508051906020019080838360005b838110156102c35780820151818401526020810190506102a8565b50505050905090810190601f1680156102f05780820380516001836020036101000a031916815260200191505b509250505060405180910390f35b61032a6004803603602081101561031457600080fd5b81019080803590602001909291905050506111d2565b604051808273ffffffffffffffffffffffffffffffffffffffff1673ffffffffffffffffffffffffffffffffffffffff16815260200191505060405180910390f35b6103b86004803603604081101561038257600080fd5b81019080803573ffffffffffffffffffffffffffffffffffffffff1690602001909291908035906020019092919050505061126d565b005b6103e6600480360360208110156103d057600080fd5b81019080803590602001909291905050506113b1565b005b6103f0611747565b6040518082815260200191505060405180910390f35b6104326004803603602081101561041c57600080fd5b8101908080359060200190929190505050611758565b604051808761ffff1661ffff1681526020018661ffff1661ffff1681526020018561ffff1661ffff1681526020018461ffff1661ffff1681526020018361ffff1661ffff168152602001828152602001965050505050505060405180910390f35b6104bf600480360360208110156104a957600080fd5b8101908080359060200190929190505050611a39565b604051808273ffffffffffffffffffffffffffffffffffffffff1673ffffffffffffffffffffffffffffffffffffffff16815260200191505060405180910390f35b61056d6004803603606081101561051757600080fd5b81019080803573ffffffffffffffffffffffffffffffffffffffff169060200190929190803573ffffffffffffffffffffffffffffffffffffffff16906020019092919080359060200190929190505050611af2565b005b6106326004803603604081101561058557600080fd5b8101908080359060200190929190803590602001906401000000008111156105ac57600080fd5b8201836020820111156105be57600080fd5b803590602001918460018302840111640100000000831117156105e057600080fd5b91908080601f016020809104026020016040519081016040528093929190818152602001838380828437600081840152601f19601f820116905080830192505050505050509192919290505050611b68565b6040518082815260200191505060405180910390f35b6106946004803603604081101561065e57600080fd5b81019080803573ffffffffffffffffffffffffffffffffffffffff16906020019092919080359060200190929190505050611d60565b6040518082815260200191505060405180910390f35b6106d6600480360360208110156106c057600080fd5b8101908080359060200190929190505050611dbb565b604051808260ff1660ff16815260200191505060405180910390f35b61075e6004803603606081101561070857600080fd5b81019080803573ffffffffffffffffffffffffffffffffffffffff169060200190929190803573ffffffffffffffffffffffffffffffffffffffff16906020019092919080359060200190929190505050611eaa565b005b61078c6004803603602081101561077657600080fd5b8101908080359060200190929190505050611eca565b6040518082815260200191505060405180910390f35b6107ce600480360360208110156107b857600080fd5b8101908080359060200190929190505050611eed565b604051808273ffffffffffffffffffffffffffffffffffffffff1673ffffffffffffffffffffffffffffffffffffffff16815260200191505060405180910390f35b61083c6004803603602081101561082657600080fd5b8101908080359060200190929190505050611fa6565b604051808273ffffffffffffffffffffffffffffffffffffffff1673ffffffffffffffffffffffffffffffffffffffff16815260200191505060405180910390f35b610886611fdd565b6040518080602001828103825283818151815260200191508051906020019080838360005b838110156108c65780820151818401526020810190506108ab565b50505050905090810190601f1680156108f35780820380516001836020036101000a031916815260200191505b509250505060405180910390f35b6109436004803603602081101561091757600080fd5b81019080803573ffffffffffffffffffffffffffffffffffffffff16906020019092919050505061207f565b6040518082815260200191505060405180910390f35b610961612154565b6040518082815260200191505060405180910390f35b61097f612161565b6040518082815260200191505060405180910390f35b61099d61216e565b005b6109d5600480360360408110156109b557600080fd5b81019080803590602001909291908035906020019092919050505061245e565b005b6109df61252d565b6040518080602001828103825283818151815260200191508051906020019080838360005b83811015610a1f578082015181840152602081019050610a04565b50505050905090810190601f168015610a4c5780820380516001836020036101000a031916815260200191505b509250505060405180910390f35b610aa860048036036040811015610a7057600080fd5b81019080803573ffffffffffffffffffffffffffffffffffffffff1690602001909291908035151590602001909291905050506125cf565b005b610bad60048036036080811015610ac057600080fd5b81019080803573ffffffffffffffffffffffffffffffffffffffff169060200190929190803573ffffffffffffffffffffffffffffffffffffffff1690602001909291908035906020019092919080359060200190640100000000811115610b2757600080fd5b820183602082011115610b3957600080fd5b80359060200191846001830284011164010000000083111715610b5b57600080fd5b91908080601f016020809104026020016040519081016040528093929190818152602001838380828437600081840152601f19601f820116905080830192505050505050509192919290505050612787565b005b610c486004803603610120811015610bc657600080fd5b810190808035906020019092919080359060200190929190803561ffff169060200190929190803561ffff169060200190929190803561ffff169060200190929190803561ffff169060200190929190803561ffff169060200190929190803561ffff169060200190929190803561ffff1690602001909291905050506127ff565b005b610c52612d7a565b6040518082815260200191505060405180910390f35b610c9460048036036020811015610c7e57600080fd5b8101908080359060200190929190505050612e59565b604051808760ff1660ff168152602001806020018660ff1660ff1681526020018561ffff1661ffff1681526020018461ffff1661ffff1681526020018361ffff1661ffff168152602001828103825287818151815260200191508051906020019080838360005b83811015610d16578082015181840152602081019050610cfb565b50505050905090810190601f168015610d435780820380516001836020036101000a031916815260200191505b5097505050505050505060405180910390f35b610d8260048036036020811015610d6c57600080fd5b8101908080359060200190929190505050613137565b6040518080602001828103825283818151815260200191508051906020019080838360005b83811015610dc2578082015181840152602081019050610da7565b50505050905090810190601f168015610def5780820380516001836020036101000a031916815260200191505b509250505060405180910390f35b610e2960048036036020811015610e1357600080fd5b8101908080359060200190929190505050613408565b6040518082815260200191505060405180910390f35b610e8160048036036020811015610e5557600080fd5b81019080803573ffffffffffffffffffffffffffffffffffffffff1690602001909291905050506135d7565b6040518080602001828103825283818151815260200191508051906020019060200280838360005b83811015610ec4578082015181840152602081019050610ea9565b505050509050019250505060405180910390f35b610f0460048036036020811015610eee57600080fd5b810190808035906020019092919050505061366e565b6040518080602001828103825283818151815260200191508051906020019060200280838360005b83811015610f47578082015181840152602081019050610f2c565b505050509050019250505060405180910390f35b610fbd60048036036040811015610f7157600080fd5b81019080803573ffffffffffffffffffffffffffffffffffffffff169060200190929190803573ffffffffffffffffffffffffffffffffffffffff169060200190929190505050613762565b604051808215151515815260200191505060405180910390f35b61101960048036036020811015610fed57600080fd5b81019080803573ffffffffffffffffffffffffffffffffffffffff1690602001909291905050506137f6565b6040518082815260200191505060405180910390f35b6110716004803603602081101561104557600080fd5b81019080803573ffffffffffffffffffffffffffffffffffffffff169060200190929190505050613808565b6040518080602001828103825283818151815260200191508051906020019060200280838360005b838110156110b4578082015181840152602081019050611099565b505050509050019250505060405180910390f35b600060016000837bffffffffffffffffffffffffffffffffffffffffffffffffffffffff19167bffffffffffffffffffffffffffffffffffffffffffffffffffffffff1916815260200190815260200160002060009054906101000a900460ff169050919050565b606060078054600181600116156101000203166002900480601f0160208091040260200160405190810160405280929190818152602001828054600181600116156101000203166002900480156111c85780601f1061119d576101008083540402835291602001916111c8565b820191906000526020600020905b8154815290600101906020018083116111ab57829003601f168201915b5050505050905090565b60006111dd8261389f565b611232576040517f08c379a000000000000000000000000000000000000000000000000000000000815260040180806020018281038252602c81526020018061581f602c913960400191505060405180910390fd5b6005600083815260200190815260200160002060009054906101000a900473ffffffffffffffffffffffffffffffffffffffff169050919050565b600061127882611fa6565b90508073ffffffffffffffffffffffffffffffffffffffff168373ffffffffffffffffffffffffffffffffffffffff1614156112ff576040517f08c379a00000000000000000000000000000000000000000000000000000000081526004018080602001828103825260218152602001806158a36021913960400191505060405180910390fd5b8073ffffffffffffffffffffffffffffffffffffffff1661131e6138bc565b73ffffffffffffffffffffffffffffffffffffffff16148061134d575061134c816113476138bc565b613762565b5b6113a2576040517f08c379a00000000000000000000000000000000000000000000000000000000081526004018080602001828103825260388152602001806157726038913960400191505060405180910390fd5b6113ac83836138c4565b505050565b80600081101580156113c7575060118054905081105b611439576040517f08c379a00000000000000000000000000000000000000000000000000000000081526004018080602001828103825260158152602001807f4865726f20646f6573206e6f74206578697374732e000000000000000000000081525060200191505060405180910390fd5b601e6011838154811061144857fe5b906000526020600020906004020160030160009054906101000a900460ff1660ff1611156114de576040517f08c379a00000000000000000000000000000000000000000000000000000000081526004018080602001828103825260148152602001807f596f7520617265204174204d6178206c6576656c00000000000000000000000081525060200191505060405180910390fd5b6001601183815481106114ed57fe5b906000526020600020906004020160030160008282829054906101000a900460ff160192506101000a81548160ff021916908360ff16021790555060026011838154811061153757fe5b906000526020600020906004020160030160058282829054906101000a900461ffff160192506101000a81548161ffff021916908361ffff16021790555060026011838154811061158457fe5b906000526020600020906004020160030160078282829054906101000a900461ffff160192506101000a81548161ffff021916908361ffff1602179055506002601183815481106115d157fe5b906000526020600020906004020160030160098282829054906101000a900461ffff160192506101000a81548161ffff021916908361ffff16021790555060286011838154811061161e57fe5b9060005260206000209060040201600301600b8282829054906101000a900461ffff160192506101000a81548161ffff021916908361ffff16021790555060166011838154811061166b57fe5b9060005260206000209060040201600301600d8282829054906101000a900461ffff160192506101000a81548161ffff021916908361ffff1602179055506001601183815481106116b857fe5b906000526020600020906004020160030160038282829054906101000a900461ffff160192506101000a81548161ffff021916908361ffff16021790555060026011838154811061170557fe5b906000526020600020906004020160030160018282829054906101000a900461ffff160192506101000a81548161ffff021916908361ffff1602179055505050565b6000611753600361397d565b905090565b6000806000806000808660008110158015611777575060118054905081105b6117e9576040517f08c379a00000000000000000000000000000000000000000000000000000000081526004018080602001828103825260158152602001807f4865726f20646f6573206e6f74206578697374732e000000000000000000000081525060200191505060405180910390fd5b6117f1615533565b601189815481106117fe57fe5b906000526020600020906004020160405180610180016040529081600082015481526020016001820160009054906101000a900460ff1660ff1660ff168152602001600282018054600181600116156101000203166002900480601f0160208091040260200160405190810160405280929190818152602001828054600181600116156101000203166002900480156118d85780601f106118ad576101008083540402835291602001916118d8565b820191906000526020600020905b8154815290600101906020018083116118bb57829003601f168201915b505050505081526020016003820160009054906101000a900460ff1660ff1660ff1681526020016003820160019054906101000a900461ffff1661ffff1661ffff1681526020016003820160039054906101000a900461ffff1661ffff1661ffff1681526020016003820160059054906101000a900461ffff1661ffff1661ffff1681526020016003820160079054906101000a900461ffff1661ffff1661ffff1681526020016003820160099054906101000a900461ffff1661ffff1661ffff16815260200160038201600b9054906101000a900461ffff1661ffff1661ffff16815260200160038201600d9054906101000a900461ffff1661ffff1661ffff16815260200160038201600f9054906101000a900461ffff1661ffff1661ffff168152505090508061010001518161012001518261014001518361016001518460a001518560000151975097509750975097509750505091939550919395565b60008160008110158015611a51575060128054905081105b611ac3576040517f08c379a00000000000000000000000000000000000000000000000000000000081526004018080602001828103825260158152602001807f4974656d20646f6573206e6f74206578697374732e000000000000000000000081525060200191505060405180910390fd5b611aea60128481548110611ad357fe5b906000526020600020906002020160000154611fa6565b915050919050565b611b03611afd6138bc565b82613992565b611b58576040517f08c379a00000000000000000000000000000000000000000000000000000000081526004018080602001828103825260318152602001806158eb6031913960400191505060405180910390fd5b611b63838383613a86565b505050565b6000600d547f000000000000000000000000000000000000000000000000000000000000000073ffffffffffffffffffffffffffffffffffffffff166370a08231306040518263ffffffff1660e01b8152600401808273ffffffffffffffffffffffffffffffffffffffff1673ffffffffffffffffffffffffffffffffffffffff16815260200191505060206040518083038186803b158015611c0a57600080fd5b505afa158015611c1e573d6000803e3d6000fd5b505050506040513d6020811015611c3457600080fd5b81019080805190602001909291905050501015611c9c576040517f08c379a000000000000000000000000000000000000000000000000000000000815260040180806020018281038252602b8152602001806156f5602b913960400191505060405180910390fd5b6000611cad600e54600d5486613cc9565b905082601360008381526020019081526020016000209080519060200190611cd69291906155ba565b50336014600083815260200190815260200160002060006101000a81548173ffffffffffffffffffffffffffffffffffffffff021916908373ffffffffffffffffffffffffffffffffffffffff16021790555060006017600083815260200190815260200160002060006101000a81548160ff021916908360ff1602179055508091505092915050565b6000611db382600260008673ffffffffffffffffffffffffffffffffffffffff1673ffffffffffffffffffffffffffffffffffffffff168152602001908152602001600020613ed490919063ffffffff16565b905092915050565b60008160008110158015611dd3575060128054905081105b611e45576040517f08c379a00000000000000000000000000000000000000000000000000000000081526004018080602001828103825260158152602001807f4974656d20646f6573206e6f74206578697374732e000000000000000000000081525060200191505060405180910390fd5b611e4d61563a565b60128481548110611e5a57fe5b9060005260206000209060020201604051806040016040529081600082015481526020016001820160009054906101000a900460ff1660ff1660ff16815250509050806020015192505050919050565b611ec583838360405180602001604052806000815250612787565b505050565b600080611ee1836003613eee90919063ffffffff16565b50905080915050919050565b60008160008110158015611f05575060118054905081105b611f77576040517f08c379a00000000000000000000000000000000000000000000000000000000081526004018080602001828103825260158152602001807f4865726f20646f6573206e6f74206578697374732e000000000000000000000081525060200191505060405180910390fd5b611f9e60118481548110611f8757fe5b906000526020600020906004020160000154611fa6565b915050919050565b6000611fd6826040518060600160405280602981526020016157d4602991396003613f1d9092919063ffffffff16565b9050919050565b6060600a8054600181600116156101000203166002900480601f0160208091040260200160405190810160405280929190818152602001828054600181600116156101000203166002900480156120755780601f1061204a57610100808354040283529160200191612075565b820191906000526020600020905b81548152906001019060200180831161205857829003601f168201915b5050505050905090565b60008073ffffffffffffffffffffffffffffffffffffffff168273ffffffffffffffffffffffffffffffffffffffff161415612106576040517f08c379a000000000000000000000000000000000000000000000000000000000815260040180806020018281038252602a8152602001806157aa602a913960400191505060405180910390fd5b61214d600260008473ffffffffffffffffffffffffffffffffffffffff1673ffffffffffffffffffffffffffffffffffffffff168152602001908152602001600020613f3c565b9050919050565b6000601280549050905090565b6000601180549050905090565b600c60009054906101000a900473ffffffffffffffffffffffffffffffffffffffff1673ffffffffffffffffffffffffffffffffffffffff163373ffffffffffffffffffffffffffffffffffffffff1614612231576040517f08c379a000000000000000000000000000000000000000000000000000000000815260040180806020018281038252601e8152602001807f4f6e6c79204f776e65722063616e207769746864726177204c494e4b732e000081525060200191505060405180910390fd5b7f000000000000000000000000000000000000000000000000000000000000000073ffffffffffffffffffffffffffffffffffffffff1663a9059cbb337f000000000000000000000000000000000000000000000000000000000000000073ffffffffffffffffffffffffffffffffffffffff166370a08231306040518263ffffffff1660e01b8152600401808273ffffffffffffffffffffffffffffffffffffffff1673ffffffffffffffffffffffffffffffffffffffff16815260200191505060206040518083038186803b15801561230b57600080fd5b505afa15801561231f573d6000803e3d6000fd5b505050506040513d602081101561233557600080fd5b81019080805190602001909291905050506040518363ffffffff1660e01b8152600401808373ffffffffffffffffffffffffffffffffffffffff1673ffffffffffffffffffffffffffffffffffffffff16815260200182815260200192505050602060405180830381600087803b1580156123af57600080fd5b505af11580156123c3573d6000803e3d6000fd5b505050506040513d60208110156123d957600080fd5b810190808051906020019092919050505061245c576040517f08c379a00000000000000000000000000000000000000000000000000000000081526004018080602001828103825260128152602001807f556e61626c6520746f207472616e73666572000000000000000000000000000081525060200191505060405180910390fd5b565b7f000000000000000000000000000000000000000000000000000000000000000073ffffffffffffffffffffffffffffffffffffffff163373ffffffffffffffffffffffffffffffffffffffff161461251f576040517f08c379a000000000000000000000000000000000000000000000000000000000815260040180806020018281038252601f8152602001807f4f6e6c7920565246436f6f7264696e61746f722063616e2066756c66696c6c0081525060200191505060405180910390fd5b6125298282613f51565b5050565b606060088054600181600116156101000203166002900480601f0160208091040260200160405190810160405280929190818152602001828054600181600116156101000203166002900480156125c55780601f1061259a576101008083540402835291602001916125c5565b820191906000526020600020905b8154815290600101906020018083116125a857829003601f168201915b5050505050905090565b6125d76138bc565b73ffffffffffffffffffffffffffffffffffffffff168273ffffffffffffffffffffffffffffffffffffffff161415612678576040517f08c379a00000000000000000000000000000000000000000000000000000000081526004018080602001828103825260198152602001807f4552433732313a20617070726f766520746f2063616c6c65720000000000000081525060200191505060405180910390fd5b80600660006126856138bc565b73ffffffffffffffffffffffffffffffffffffffff1673ffffffffffffffffffffffffffffffffffffffff16815260200190815260200160002060008473ffffffffffffffffffffffffffffffffffffffff1673ffffffffffffffffffffffffffffffffffffffff16815260200190815260200160002060006101000a81548160ff0219169083151502179055508173ffffffffffffffffffffffffffffffffffffffff166127326138bc565b73ffffffffffffffffffffffffffffffffffffffff167f17307eab39ab6107e8899845ad3d59bd9653f200f220920489ca2b5937696c3183604051808215151515815260200191505060405180910390a35050565b6127986127926138bc565b83613992565b6127ed576040517f08c379a00000000000000000000000000000000000000000000000000000000081526004018080602001828103825260318152602001806158eb6031913960400191505060405180910390fd5b6127f9848484846145a1565b50505050565b8860008110158015612815575060118054905081105b612887576040517f08c379a00000000000000000000000000000000000000000000000000000000081526004018080602001828103825260158152602001807f4865726f20646f6573206e6f74206578697374732e000000000000000000000081525060200191505060405180910390fd5b886000811015801561289d575060128054905081105b61290f576040517f08c379a00000000000000000000000000000000000000000000000000000000081526004018080602001828103825260158152602001807f4974656d20646f6573206e6f74206578697374732e000000000000000000000081525060200191505060405180910390fd5b8a6129376011828154811061292057fe5b906000526020600020906004020160000154611fa6565b73ffffffffffffffffffffffffffffffffffffffff163373ffffffffffffffffffffffffffffffffffffffff16146129ba576040517f08c379a00000000000000000000000000000000000000000000000000000000081526004018080602001828103825260278152602001806158c46027913960400191505060405180910390fd5b8a6129e2601282815481106129cb57fe5b906000526020600020906002020160000154611fa6565b73ffffffffffffffffffffffffffffffffffffffff163373ffffffffffffffffffffffffffffffffffffffff1614612a65576040517f08c379a00000000000000000000000000000000000000000000000000000000081526004018080602001828103825260278152602001806158c46027913960400191505060405180910390fd5b6007601860008f81526020019081526020016000208054905010612af1576040517f08c379a000000000000000000000000000000000000000000000000000000000815260040180806020018281038252601e8152602001807f4d6178696d756d2036206974656d732063616e20626520696e6675736564000081525060200191505060405180910390fd5b8a60118e81548110612aff57fe5b906000526020600020906004020160030160058282829054906101000a900461ffff160192506101000a81548161ffff021916908361ffff1602179055508960118e81548110612b4b57fe5b906000526020600020906004020160030160078282829054906101000a900461ffff160192506101000a81548161ffff021916908361ffff1602179055508860118e81548110612b9757fe5b906000526020600020906004020160030160098282829054906101000a900461ffff160192506101000a81548161ffff021916908361ffff1602179055508760118e81548110612be357fe5b906000526020600020906004020160030160018282829054906101000a900461ffff160192506101000a81548161ffff021916908361ffff1602179055508660118e81548110612c2f57fe5b906000526020600020906004020160030160038282829054906101000a900461ffff160192506101000a81548161ffff021916908361ffff1602179055508560118e81548110612c7b57fe5b9060005260206000209060040201600301600d8282829054906101000a900461ffff160192506101000a81548161ffff021916908361ffff1602179055508460118e81548110612cc757fe5b9060005260206000209060040201600301600f8282829054906101000a900461ffff160192506101000a81548161ffff021916908361ffff160217905550601860008e81526020019081526020016000208c90806001815401808255809150506001900390600052602060002001600090919091909150556001601960008e815260200190815260200160002060006101000a81548160ff02191690831515021790555050505050505050505050505050565b60007f000000000000000000000000000000000000000000000000000000000000000073ffffffffffffffffffffffffffffffffffffffff166370a08231306040518263ffffffff1660e01b8152600401808273ffffffffffffffffffffffffffffffffffffffff1673ffffffffffffffffffffffffffffffffffffffff16815260200191505060206040518083038186803b158015612e1957600080fd5b505afa158015612e2d573d6000803e3d6000fd5b505050506040513d6020811015612e4357600080fd5b8101908080519060200190929190505050905090565b600060606000806000808660008110158015612e79575060118054905081105b612eeb576040517f08c379a00000000000000000000000000000000000000000000000000000000081526004018080602001828103825260158152602001807f4865726f20646f6573206e6f74206578697374732e000000000000000000000081525060200191505060405180910390fd5b612ef3615533565b60118981548110612f0057fe5b906000526020600020906004020160405180610180016040529081600082015481526020016001820160009054906101000a900460ff1660ff1660ff168152602001600282018054600181600116156101000203166002900480601f016020809104026020016040519081016040528092919081815260200182805460018160011615610100020316600290048015612fda5780601f10612faf57610100808354040283529160200191612fda565b820191906000526020600020905b815481529060010190602001808311612fbd57829003601f168201915b505050505081526020016003820160009054906101000a900460ff1660ff1660ff1681526020016003820160019054906101000a900461ffff1661ffff1661ffff1681526020016003820160039054906101000a900461ffff1661ffff1661ffff1681526020016003820160059054906101000a900461ffff1661ffff1661ffff1681526020016003820160079054906101000a900461ffff1661ffff1661ffff1681526020016003820160099054906101000a900461ffff1661ffff1661ffff16815260200160038201600b9054906101000a900461ffff1661ffff1661ffff16815260200160038201600d9054906101000a900461ffff1661ffff1661ffff16815260200160038201600f9054906101000a900461ffff1661ffff1661ffff1681525050905080602001518160400151826060015183608001518460c001518560e00151975097509750975097509750505091939550919395565b60606131428261389f565b613197576040517f08c379a000000000000000000000000000000000000000000000000000000000815260040180806020018281038252602f815260200180615874602f913960400191505060405180910390fd5b6060600960008481526020019081526020016000208054600181600116156101000203166002900480601f0160208091040260200160405190810160405280929190818152602001828054600181600116156101000203166002900480156132405780601f1061321557610100808354040283529160200191613240565b820191906000526020600020905b81548152906001019060200180831161322357829003601f168201915b505050505090506060613251611fdd565b9050600081511415613267578192505050613403565b6000825111156133385780826040516020018083805190602001908083835b602083106132a95780518252602082019150602081019050602083039250613286565b6001836020036101000a03801982511681845116808217855250505050505090500182805190602001908083835b602083106132fa57805182526020820191506020810190506020830392506132d7565b6001836020036101000a0380198251168184511680821785525050505050509050019250505060405160208183030381529060405292505050613403565b8061334285614613565b6040516020018083805190602001908083835b602083106133785780518252602082019150602081019050602083039250613355565b6001836020036101000a03801982511681845116808217855250505050505090500182805190602001908083835b602083106133c957805182526020820191506020810190506020830392506133a6565b6001836020036101000a03801982511681845116808217855250505050505090500192505050604051602081830303815290604052925050505b919050565b6000600d547f000000000000000000000000000000000000000000000000000000000000000073ffffffffffffffffffffffffffffffffffffffff166370a08231306040518263ffffffff1660e01b8152600401808273ffffffffffffffffffffffffffffffffffffffff1673ffffffffffffffffffffffffffffffffffffffff16815260200191505060206040518083038186803b1580156134aa57600080fd5b505afa1580156134be573d6000803e3d6000fd5b505050506040513d60208110156134d457600080fd5b8101908080519060200190929190505050101561353c576040517f08c379a000000000000000000000000000000000000000000000000000000000815260040180806020018281038252602b8152602001806156f5602b913960400191505060405180910390fd5b600061354d600e54600d5485613cc9565b9050336014600083815260200190815260200160002060006101000a81548173ffffffffffffffffffffffffffffffffffffffff021916908373ffffffffffffffffffffffffffffffffffffffff16021790555060016017600083815260200190815260200160002060006101000a81548160ff021916908360ff16021790555080915050919050565b6060601660008373ffffffffffffffffffffffffffffffffffffffff1673ffffffffffffffffffffffffffffffffffffffff16815260200190815260200160002080548060200260200160405190810160405280929190818152602001828054801561366257602002820191906000526020600020905b81548152602001906001019080831161364e575b50505050509050919050565b60608160008110158015613686575060118054905081105b6136f8576040517f08c379a00000000000000000000000000000000000000000000000000000000081526004018080602001828103825260158152602001807f4865726f20646f6573206e6f74206578697374732e000000000000000000000081525060200191505060405180910390fd5b6018600084815260200190815260200160002080548060200260200160405190810160405280929190818152602001828054801561375557602002820191906000526020600020905b815481526020019060010190808311613741575b5050505050915050919050565b6000600660008473ffffffffffffffffffffffffffffffffffffffff1673ffffffffffffffffffffffffffffffffffffffff16815260200190815260200160002060008373ffffffffffffffffffffffffffffffffffffffff1673ffffffffffffffffffffffffffffffffffffffff16815260200190815260200160002060009054906101000a900460ff16905092915050565b60006138018261207f565b9050919050565b6060601560008373ffffffffffffffffffffffffffffffffffffffff1673ffffffffffffffffffffffffffffffffffffffff16815260200190815260200160002080548060200260200160405190810160405280929190818152602001828054801561389357602002820191906000526020600020905b81548152602001906001019080831161387f575b50505050509050919050565b60006138b582600361475a90919063ffffffff16565b9050919050565b600033905090565b816005600083815260200190815260200160002060006101000a81548173ffffffffffffffffffffffffffffffffffffffff021916908373ffffffffffffffffffffffffffffffffffffffff160217905550808273ffffffffffffffffffffffffffffffffffffffff1661393783611fa6565b73ffffffffffffffffffffffffffffffffffffffff167f8c5be1e5ebec7d5bd14f71427d1e84f3dd0314c0f7b2291e5b200ac8c7c3b92560405160405180910390a45050565b600061398b82600001614774565b9050919050565b600061399d8261389f565b6139f2576040517f08c379a000000000000000000000000000000000000000000000000000000000815260040180806020018281038252602c815260200180615746602c913960400191505060405180910390fd5b60006139fd83611fa6565b90508073ffffffffffffffffffffffffffffffffffffffff168473ffffffffffffffffffffffffffffffffffffffff161480613a6c57508373ffffffffffffffffffffffffffffffffffffffff16613a54846111d2565b73ffffffffffffffffffffffffffffffffffffffff16145b80613a7d5750613a7c8185613762565b5b91505092915050565b8273ffffffffffffffffffffffffffffffffffffffff16613aa682611fa6565b73ffffffffffffffffffffffffffffffffffffffff1614613b12576040517f08c379a000000000000000000000000000000000000000000000000000000000815260040180806020018281038252602981526020018061584b6029913960400191505060405180910390fd5b600073ffffffffffffffffffffffffffffffffffffffff168273ffffffffffffffffffffffffffffffffffffffff161415613b98576040517f08c379a00000000000000000000000000000000000000000000000000000000081526004018080602001828103825260248152602001806156d16024913960400191505060405180910390fd5b613ba3838383614785565b613bae6000826138c4565b613bff81600260008673ffffffffffffffffffffffffffffffffffffffff1673ffffffffffffffffffffffffffffffffffffffff16815260200190815260200160002061478a90919063ffffffff16565b50613c5181600260008573ffffffffffffffffffffffffffffffffffffffff1673ffffffffffffffffffffffffffffffffffffffff1681526020019081526020016000206147a490919063ffffffff16565b50613c68818360036147be9092919063ffffffff16565b50808273ffffffffffffffffffffffffffffffffffffffff168473ffffffffffffffffffffffffffffffffffffffff167fddf252ad1be2c89b69c2b068fc378daa952ba7f163c4a11628f55a4df523b3ef60405160405180910390a4505050565b60007f000000000000000000000000000000000000000000000000000000000000000073ffffffffffffffffffffffffffffffffffffffff16634000aea07f000000000000000000000000000000000000000000000000000000000000000085878660405160200180838152602001828152602001925050506040516020818303038152906040526040518463ffffffff1660e01b8152600401808473ffffffffffffffffffffffffffffffffffffffff1673ffffffffffffffffffffffffffffffffffffffff16815260200183815260200180602001828103825283818151815260200191508051906020019080838360005b83811015613dd8578082015181840152602081019050613dbd565b50505050905090810190601f168015613e055780820380516001836020036101000a031916815260200191505b50945050505050602060405180830381600087803b158015613e2657600080fd5b505af1158015613e3a573d6000803e3d6000fd5b505050506040513d6020811015613e5057600080fd5b8101908080519060200190929190505050506000613e828584306000808a8152602001908152602001600020546147f3565b9050613eaa60016000808881526020019081526020016000205461486d90919063ffffffff16565b60008087815260200190815260200160002081905550613eca85826148f5565b9150509392505050565b6000613ee3836000018361492e565b60001c905092915050565b600080600080613f0186600001866149b1565b915091508160001c8160001c8090509350935050509250929050565b6000613f30846000018460001b84614a4a565b60001c90509392505050565b6000613f4a82600001614b40565b9050919050565b600b6000815480929190600101919050555060006017600084815260200190815260200160002060009054906101000a900460ff1660ff16141561443457600060196127108381613f9e57fe5b0481613fa657fe5b06905060006019629896808481613fb957fe5b0481613fc157fe5b069050600060196103e88581613fd357fe5b0481613fdb57fe5b06905060006014840260c80190506000600b8402604b0190506000601e878161400057fe5b0690506000601180549050905060006001600c8a8161401b57fe5b0601905060058160ff161015614035578783019250614052565b60098160ff16101561404b578583019250614051565b86830192505b5b6011604051806101800160405280600b5481526020018360ff168152602001601360008e81526020019081526020016000208054600181600116156101000203166002900480601f0160208091040260200160405190810160405280929190818152602001828054600181600116156101000203166002900480156141185780601f106140ed57610100808354040283529160200191614118565b820191906000526020600020905b8154815290600101906020018083116140fb57829003601f168201915b50505050508152602001600060ff1681526020018561ffff16815260200160058c8161414057fe5b0661ffff1681526020018a61ffff1681526020018861ffff1681526020018961ffff1681526020018761ffff1681526020018661ffff168152602001606464174876e8008d8161418c57fe5b048161419457fe5b0660c80161ffff1681525090806001815401808255809150506001900390600052602060002090600402016000909190919091506000820151816000015560208201518160010160006101000a81548160ff021916908360ff160217905550604082015181600201908051906020019061420f9291906155ba565b5060608201518160030160006101000a81548160ff021916908360ff16021790555060808201518160030160016101000a81548161ffff021916908361ffff16021790555060a08201518160030160036101000a81548161ffff021916908361ffff16021790555060c08201518160030160056101000a81548161ffff021916908361ffff16021790555060e08201518160030160076101000a81548161ffff021916908361ffff1602179055506101008201518160030160096101000a81548161ffff021916908361ffff16021790555061012082015181600301600b6101000a81548161ffff021916908361ffff16021790555061014082015181600301600d6101000a81548161ffff021916908361ffff16021790555061016082015181600301600f6101000a81548161ffff021916908361ffff160217905550505061438e601460008c815260200190815260200160002060009054906101000a900473ffffffffffffffffffffffffffffffffffffffff16600b54614b51565b60156000601460008d815260200190815260200160002060009054906101000a900473ffffffffffffffffffffffffffffffffffffffff1673ffffffffffffffffffffffffffffffffffffffff1673ffffffffffffffffffffffffffffffffffffffff168152602001908152602001600020829080600181540180825580915050600190039060005260206000200160009091909190915055505050505050505061459d565b60006012805490509050600060016018848161444c57fe5b0601905060126040518060400160405280600b5481526020018360ff1681525090806001815401808255809150506001900390600052602060002090600202016000909190919091506000820151816000015560208201518160010160006101000a81548160ff021916908360ff16021790555050506145016014600086815260200190815260200160002060009054906101000a900473ffffffffffffffffffffffffffffffffffffffff16600b54614b51565b601660006014600087815260200190815260200160002060009054906101000a900473ffffffffffffffffffffffffffffffffffffffff1673ffffffffffffffffffffffffffffffffffffffff1673ffffffffffffffffffffffffffffffffffffffff16815260200190815260200160002082908060018154018082558091505060019003906000526020600020016000909190919091505550505b5050565b6145ac848484613a86565b6145b884848484614b6f565b61460d576040517f08c379a000000000000000000000000000000000000000000000000000000000815260040180806020018281038252603281526020018061569f6032913960400191505060405180910390fd5b50505050565b6060600082141561465b576040518060400160405280600181526020017f30000000000000000000000000000000000000000000000000000000000000008152509050614755565b600082905060005b60008214614685578080600101915050600a828161467d57fe5b049150614663565b60608167ffffffffffffffff8111801561469e57600080fd5b506040519080825280601f01601f1916602001820160405280156146d15781602001600182028036833780820191505090505b50905060006001830390508593505b6000841461474d57600a84816146f257fe5b0660300160f81b8282806001900393508151811061470c57fe5b60200101907effffffffffffffffffffffffffffffffffffffffffffffffffffffffffffff1916908160001a905350600a848161474557fe5b0493506146e0565b819450505050505b919050565b600061476c836000018360001b614db4565b905092915050565b600081600001805490509050919050565b505050565b600061479c836000018360001b614dd7565b905092915050565b60006147b6836000018360001b614ebf565b905092915050565b60006147ea846000018460001b8473ffffffffffffffffffffffffffffffffffffffff1660001b614f2f565b90509392505050565b600084848484604051602001808581526020018481526020018373ffffffffffffffffffffffffffffffffffffffff1673ffffffffffffffffffffffffffffffffffffffff1681526020018281526020019450505050506040516020818303038152906040528051906020012060001c9050949350505050565b6000808284019050838110156148eb576040517f08c379a000000000000000000000000000000000000000000000000000000000815260040180806020018281038252601b8152602001807f536166654d6174683a206164646974696f6e206f766572666c6f77000000000081525060200191505060405180910390fd5b8091505092915050565b60008282604051602001808381526020018281526020019250505060405160208183030381529060405280519060200120905092915050565b60008183600001805490501161498f576040517f08c379a000000000000000000000000000000000000000000000000000000000815260040180806020018281038252602281526020018061567d6022913960400191505060405180910390fd5b82600001828154811061499e57fe5b9060005260206000200154905092915050565b60008082846000018054905011614a13576040517f08c379a00000000000000000000000000000000000000000000000000000000081526004018080602001828103825260228152602001806157fd6022913960400191505060405180910390fd5b6000846000018481548110614a2457fe5b906000526020600020906002020190508060000154816001015492509250509250929050565b60008084600101600085815260200190815260200160002054905060008114158390614b11576040517f08c379a00000000000000000000000000000000000000000000000000000000081526004018080602001828103825283818151815260200191508051906020019080838360005b83811015614ad6578082015181840152602081019050614abb565b50505050905090810190601f168015614b035780820380516001836020036101000a031916815260200191505b509250505060405180910390fd5b50846000016001820381548110614b2457fe5b9060005260206000209060020201600101549150509392505050565b600081600001805490509050919050565b614b6b82826040518060200160405280600081525061500b565b5050565b6000614b908473ffffffffffffffffffffffffffffffffffffffff1661507c565b614b9d5760019050614dac565b6060614d3363150b7a0260e01b614bb26138bc565b888787604051602401808573ffffffffffffffffffffffffffffffffffffffff1673ffffffffffffffffffffffffffffffffffffffff1681526020018473ffffffffffffffffffffffffffffffffffffffff1673ffffffffffffffffffffffffffffffffffffffff16815260200183815260200180602001828103825283818151815260200191508051906020019080838360005b83811015614c62578082015181840152602081019050614c47565b50505050905090810190601f168015614c8f5780820380516001836020036101000a031916815260200191505b5095505050505050604051602081830303815290604052907bffffffffffffffffffffffffffffffffffffffffffffffffffffffff19166020820180517bffffffffffffffffffffffffffffffffffffffffffffffffffffffff838183161783525050505060405180606001604052806032815260200161569f603291398773ffffffffffffffffffffffffffffffffffffffff1661508f9092919063ffffffff16565b90506000818060200190516020811015614d4c57600080fd5b8101908080519060200190929190505050905063150b7a0260e01b7bffffffffffffffffffffffffffffffffffffffffffffffffffffffff1916817bffffffffffffffffffffffffffffffffffffffffffffffffffffffff191614925050505b949350505050565b600080836001016000848152602001908152602001600020541415905092915050565b60008083600101600084815260200190815260200160002054905060008114614eb35760006001820390506000600186600001805490500390506000866000018281548110614e2257fe5b9060005260206000200154905080876000018481548110614e3f57fe5b9060005260206000200181905550600183018760010160008381526020019081526020016000208190555086600001805480614e7757fe5b60019003818190600052602060002001600090559055866001016000878152602001908152602001600020600090556001945050505050614eb9565b60009150505b92915050565b6000614ecb83836150a7565b614f24578260000182908060018154018082558091505060019003906000526020600020016000909190919091505582600001805490508360010160008481526020019081526020016000208190555060019050614f29565b600090505b92915050565b6000808460010160008581526020019081526020016000205490506000811415614fd657846000016040518060400160405280868152602001858152509080600181540180825580915050600190039060005260206000209060020201600090919091909150600082015181600001556020820151816001015550508460000180549050856001016000868152602001908152602001600020819055506001915050615004565b82856000016001830381548110614fe957fe5b90600052602060002090600202016001018190555060009150505b9392505050565b61501583836150ca565b6150226000848484614b6f565b615077576040517f08c379a000000000000000000000000000000000000000000000000000000000815260040180806020018281038252603281526020018061569f6032913960400191505060405180910390fd5b505050565b600080823b905060008111915050919050565b606061509e84846000856152be565b90509392505050565b600080836001016000848152602001908152602001600020541415905092915050565b600073ffffffffffffffffffffffffffffffffffffffff168273ffffffffffffffffffffffffffffffffffffffff16141561516d576040517f08c379a00000000000000000000000000000000000000000000000000000000081526004018080602001828103825260208152602001807f4552433732313a206d696e7420746f20746865207a65726f206164647265737381525060200191505060405180910390fd5b6151768161389f565b156151e9576040517f08c379a000000000000000000000000000000000000000000000000000000000815260040180806020018281038252601c8152602001807f4552433732313a20746f6b656e20616c7265616479206d696e7465640000000081525060200191505060405180910390fd5b6151f560008383614785565b61524681600260008573ffffffffffffffffffffffffffffffffffffffff1673ffffffffffffffffffffffffffffffffffffffff1681526020019081526020016000206147a490919063ffffffff16565b5061525d818360036147be9092919063ffffffff16565b50808273ffffffffffffffffffffffffffffffffffffffff16600073ffffffffffffffffffffffffffffffffffffffff167fddf252ad1be2c89b69c2b068fc378daa952ba7f163c4a11628f55a4df523b3ef60405160405180910390a45050565b606082471015615319576040517f08c379a00000000000000000000000000000000000000000000000000000000081526004018080602001828103825260268152602001806157206026913960400191505060405180910390fd5b6153228561507c565b615394576040517f08c379a000000000000000000000000000000000000000000000000000000000815260040180806020018281038252601d8152602001807f416464726573733a2063616c6c20746f206e6f6e2d636f6e747261637400000081525060200191505060405180910390fd5b600060608673ffffffffffffffffffffffffffffffffffffffff1685876040518082805190602001908083835b602083106153e457805182526020820191506020810190506020830392506153c1565b6001836020036101000a03801982511681845116808217855250505050505090500191505060006040518083038185875af1925050503d8060008114615446576040519150601f19603f3d011682016040523d82523d6000602084013e61544b565b606091505b509150915061545b828286615467565b92505050949350505050565b606083156154775782905061552c565b60008351111561548a5782518084602001fd5b816040517f08c379a00000000000000000000000000000000000000000000000000000000081526004018080602001828103825283818151815260200191508051906020019080838360005b838110156154f15780820151818401526020810190506154d6565b50505050905090810190601f16801561551e5780820380516001836020036101000a031916815260200191505b509250505060405180910390fd5b9392505050565b60405180610180016040528060008152602001600060ff16815260200160608152602001600060ff168152602001600061ffff168152602001600061ffff168152602001600061ffff168152602001600061ffff168152602001600061ffff168152602001600061ffff168152602001600061ffff168152602001600061ffff1681525090565b828054600181600116156101000203166002900490600052602060002090601f016020900481019282601f106155fb57805160ff1916838001178555615629565b82800160010185558215615629579182015b8281111561562857825182559160200191906001019061560d565b5b5090506156369190615657565b5090565b604051806040016040528060008152602001600060ff1681525090565b61567991905b8082111561567557600081600090555060010161565d565b5090565b9056fe456e756d657261626c655365743a20696e646578206f7574206f6620626f756e64734552433732313a207472616e7366657220746f206e6f6e20455243373231526563656976657220696d706c656d656e7465724552433732313a207472616e7366657220746f20746865207a65726f20616464726573734e6f7420656e6f756768204c494e4b202d2066696c6c20636f6e7472616374207769746820666175636574416464726573733a20696e73756666696369656e742062616c616e636520666f722063616c6c4552433732313a206f70657261746f7220717565727920666f72206e6f6e6578697374656e7420746f6b656e4552433732313a20617070726f76652063616c6c6572206973206e6f74206f776e6572206e6f7220617070726f76656420666f7220616c6c4552433732313a2062616c616e636520717565727920666f7220746865207a65726f20616464726573734552433732313a206f776e657220717565727920666f72206e6f6e6578697374656e7420746f6b656e456e756d657261626c654d61703a20696e646578206f7574206f6620626f756e64734552433732313a20617070726f76656420717565727920666f72206e6f6e6578697374656e7420746f6b656e4552433732313a207472616e73666572206f6620746f6b656e2074686174206973206e6f74206f776e4552433732314d657461646174613a2055524920717565727920666f72206e6f6e6578697374656e7420746f6b656e4552433732313a20617070726f76616c20746f2063757272656e74206f776e65724f6e6c79206f776e6572206f66204e46542063616e20646f2074686973206f7065726174696f6e4552433732313a207472616e736665722063616c6c6572206973206e6f74206f776e6572206e6f7220617070726f766564a2646970667358221220f123248ddd2f18ea316be387dd057cad895866a9fb8c58e1fabe861700a7f12364736f6c63430006060033",
  "immutableReferences": {
    "1035": [
      {
        "length": 32,
        "start": 7023
      },
      {
        "length": 32,
        "start": 8755
      },
      {
        "length": 32,
        "start": 8816
      },
      {
        "length": 32,
        "start": 11646
      },
      {
        "length": 32,
        "start": 13327
      },
      {
        "length": 32,
        "start": 15565
      }
    ],
    "1037": [
      {
        "length": 32,
        "start": 9312
      },
      {
        "length": 32,
        "start": 15625
      }
    ]
  },
  "source": "pragma solidity '0.6.6';\r\n\r\nimport '@chainlink/contracts/src/v0.6/VRFConsumerBase.sol';// Random number\r\nimport '@openzeppelin/contracts/token/ERC721/ERC721.sol';// ERC721 \r\n\r\ncontract Dota is VRFConsumerBase, ERC721 {\r\n    \r\n    uint256 Id; // Token_Id for NFT\r\n    \r\n    address owner; // contract owner\r\n\r\n    uint256 internal fee; //fee in LINK for chainlink\r\n    bytes32 internal keyHash;   \r\n\r\n    address VRFCoordinator;\r\n    address LinkToken;\r\n\r\n    // Structure Hero for creating heros\r\n    struct Hero{\r\n        uint256 tokenId;\r\n        uint8 heroCode;\r\n        string name;\r\n        uint8 level;\r\n        uint16 damage;\r\n        uint16 armor;\r\n        uint16 strength;\r\n        uint16 agility;\r\n        uint16 intelligence;\r\n        uint16 hitPoints;\r\n        uint16 mana;\r\n        uint16 movementSpeed;\r\n    }   \r\n    Hero[] heros; // array of heros\r\n\r\n    // Structure Item for creating items\r\n    struct Item{\r\n        uint256 tokenId;\r\n        uint8 itemCode;\r\n    }\r\n    Item[] items;// array of items\r\n    \r\n    mapping(bytes32 => string) requestToName;\r\n    mapping(bytes32 => address) requestToSender;\r\n    mapping(address => uint256[]) ownerToHeros; // mapping for owners to their heros\r\n    mapping(address => uint256[]) ownerToItems; // mapping for owners to their items\r\n    mapping(bytes32 => uint8) requestFor; // mapping for which request is made for item or hero\r\n    mapping(uint256 => uint256[]) heroToItems; // mapping for hero to infused items\r\n    mapping(uint256 => bool) equippedItems; //check if items is equiped or not\r\n\r\n    // modifiers start\r\n    modifier existingItem(uint256 _id){\r\n        require(_id >= 0 && _id < items.length, \"Item does not exists.\");\r\n        _;\r\n    }\r\n\r\n    modifier existingHero(uint256 _id){\r\n        require(_id >= 0 && _id < heros.length, \"Hero does not exists.\");\r\n        _;\r\n    }\r\n\r\n    modifier heroOwnerOnly(uint256 _id){\r\n        require(msg.sender == ownerOf(heros[_id].tokenId), \"Only owner of NFT can do this operation\");\r\n        _;\r\n    }\r\n\r\n     modifier itemOwnerOnly(uint256 _id){\r\n        require(msg.sender == ownerOf(items[_id].tokenId), \"Only owner of NFT can do this operation\");\r\n        _;\r\n    }\r\n    // modifiers ends\r\n    \r\n    constructor(address _VRFCoordinator, address _LinkToken, bytes32 _keyHash) public\r\n    VRFConsumerBase(_VRFCoordinator, _LinkToken)\r\n    ERC721(\"DefenceOfTheAncients\", \"DOTA\")\r\n    {\r\n        VRFCoordinator = _VRFCoordinator;\r\n        LinkToken = _LinkToken;\r\n        keyHash = _keyHash;\r\n        fee = 0.1 * 10**18; // 0.1 LINK\r\n        owner = msg.sender;\r\n    }\r\n\r\n    function requestHero(uint256 _seed, string memory _name) public\r\n    returns(bytes32) { // function to create random hero\r\n        require(LINK.balanceOf(address(this)) >= fee, \"Not enough LINK - fill contract with faucet\" );\r\n        bytes32 requestId = requestRandomness(keyHash, fee, _seed);\r\n        requestToName[requestId] = _name;\r\n        requestToSender[requestId] = msg.sender;\r\n        requestFor[requestId] = 0;\r\n        return(requestId);\r\n    }\r\n\r\n    function requestItem(uint256 _seed) public\r\n    returns(bytes32) { //function to create random item\r\n        require(LINK.balanceOf(address(this)) >= fee, \"Not enough LINK - fill contract with faucet\" );\r\n        bytes32 requestId = requestRandomness(keyHash, fee, _seed);\r\n        requestToSender[requestId] = msg.sender;\r\n        requestFor[requestId] = 1;\r\n        return(requestId);\r\n    }\r\n\r\n    function fulfillRandomness(bytes32 requestId, uint256 randomNumber)\r\n    internal\r\n    override { // fulfilling the callback function\r\n        Id++; // increment token before minting so no NFT '0'   \r\n        if(requestFor[requestId] == 0){\r\n            uint16 strength = uint16((randomNumber / 10000) % 25);\r\n            uint16 intelligence = uint16((randomNumber / 10000000) % 25);\r\n            uint16 agility = uint16((randomNumber / 1000) % 25);   \r\n            uint16 hitPoints = uint16(200 + strength * 20);\r\n            uint16 mana = uint16(75 + intelligence * 11);\r\n            uint16 damage = uint16(randomNumber % 30);\r\n            uint256 newId = heros.length;\r\n            uint8 heroCode = uint8(randomNumber % 12 + 1); // there are total 12 heros\r\n            if(heroCode < 5){\r\n                damage += strength;\r\n            }else if(heroCode < 9){\r\n                damage += agility;\r\n            }else{\r\n                damage += intelligence;\r\n            }\r\n            \r\n            heros.push(\r\n                Hero(\r\n                    Id, // tokenId\r\n                    heroCode,\r\n                    requestToName[requestId],// name\r\n                    0, // level\r\n                    damage,\r\n                    uint16(randomNumber % 5), //armor\r\n                    strength, \r\n                    agility,\r\n                    intelligence,\r\n                    hitPoints,\r\n                    mana,\r\n                    uint16(200 + (randomNumber / 100000000000) % 100) // movementSpeed\r\n                )   \r\n            );\r\n            \r\n            _safeMint(requestToSender[requestId], Id);\r\n            ownerToHeros[requestToSender[requestId]].push(newId); //push array index in owned heros\r\n        }else{\r\n            uint256 newId = items.length;\r\n            uint8 itemCode = uint8(randomNumber % 24 + 1); // there are total 24 items\r\n            items.push(\r\n            Item(\r\n                Id, // tokenId\r\n                itemCode\r\n            )   \r\n            );\r\n\r\n            _safeMint(requestToSender[requestId], Id);\r\n            ownerToItems[requestToSender[requestId]].push(newId); // push array index in owned items\r\n        }\r\n       \r\n    }\r\n\r\n    function getHeroFirstHalf(uint256 _id) // returns half datea of hero\r\n    public\r\n    view\r\n    existingHero(_id)\r\n    returns(uint8, string memory, uint8, uint16, uint16, uint16){\r\n        Hero memory hero = heros[_id];\r\n        return(hero.heroCode, hero.name, hero.level,hero.damage, hero.strength, hero.agility);\r\n    }\r\n\r\n    function getHeroSecondHalf(uint256 _id) // returns remailning data of hero\r\n    public\r\n    view\r\n    existingHero(_id)\r\n    returns(uint16, uint16, uint16, uint16, uint16, uint256){\r\n        Hero memory hero = heros[_id];\r\n        return(hero.intelligence, hero.hitPoints, hero.mana, hero.movementSpeed, hero.armor, hero.tokenId);\r\n    }\r\n\r\n    function getItem(uint256 _id) // get item of perticular index form items array\r\n    public\r\n    view\r\n    existingItem(_id)\r\n    returns(uint8){\r\n        Item memory item = items[_id];\r\n        return(item.itemCode);\r\n    }\r\n\r\n    function levelUp(uint256 _id) //function to level up hero add 1 level and 2 to each attrinute\r\n    public\r\n    existingHero(_id){\r\n        require(heros[_id].level <= 30, \"You are At Max level\");\r\n        heros[_id].level += 1;\r\n        heros[_id].strength += 2;\r\n        heros[_id].agility += 2;\r\n        heros[_id].intelligence += 2;\r\n        heros[_id].hitPoints += 40;\r\n        heros[_id].mana += 22;\r\n        heros[_id].armor += 1;\r\n        heros[_id].damage += 2;\r\n    }\r\n\r\n    function withdrawLink() // withdraw link from contract\r\n    external{\r\n        require(msg.sender == owner, \"Only Owner can withdraw LINKs.\");\r\n        require(LINK.transfer(msg.sender, LINK.balanceOf(address(this))), \"Unable to transfer\");\r\n    }\r\n\r\n    function linkBalance() // check the LINK balance of contract\r\n    external \r\n    view \r\n    returns(uint256){\r\n        return(LINK.balanceOf(address(this)));\r\n    }\r\n\r\n    function getHeroOwner(uint256 _id)\r\n    public\r\n    view\r\n    existingHero(_id)\r\n    returns(address){\r\n        return(ownerOf(heros[_id].tokenId));\r\n    }\r\n\r\n    function getItemOwner(uint256 _id)\r\n    public\r\n    view\r\n    existingItem(_id)\r\n    returns(address){\r\n        return(ownerOf(items[_id].tokenId));\r\n    }\r\n\r\n    function getNFTCount(address _account)// return the total number of nfts owned by user\r\n    public\r\n    view\r\n    returns(uint256){\r\n        return balanceOf(_account);\r\n    }\r\n\r\n    function getHeroCount()// return total numbers of heros\r\n    public\r\n    view\r\n    returns (uint256){\r\n        return heros.length;\r\n    }\r\n\r\n    function getItemCount()// returns the total number of items\r\n    public\r\n    view\r\n    returns (uint256){\r\n        return items.length;\r\n    }\r\n\r\n    function getHeroNFTs(address _account) // returns the index of heros from array heros owned by user\r\n    public\r\n    view\r\n    returns(uint256[] memory){\r\n        return ownerToHeros[_account];\r\n    }\r\n\r\n    function getItemNFTs(address _account) // returns the index of items from array items owned by user\r\n    public\r\n    view\r\n    returns(uint256[] memory){\r\n        return ownerToItems[_account];\r\n    }\r\n\r\n    function equipItem(uint256 _heroId, uint256 _itemId,uint16 _strength, uint16 _agility, uint16 _intelligence, uint16 _damage, uint16 _armor, uint16 _mana, uint16 _movementSpeed)\r\n    public\r\n    existingHero(_heroId)\r\n    existingItem(_itemId)\r\n    heroOwnerOnly(_heroId)\r\n    itemOwnerOnly(_itemId){\r\n        require(heroToItems[_heroId].length < 7, \"Maximum 6 items can be infused\");\r\n        heros[_heroId].strength += _strength;\r\n        heros[_heroId].agility += _agility;\r\n        heros[_heroId].intelligence += _intelligence;\r\n        heros[_heroId].damage += _damage;\r\n        heros[_heroId].armor += _armor;\r\n        heros[_heroId].mana += _mana;\r\n        heros[_heroId].movementSpeed += _movementSpeed;\r\n\r\n        heroToItems[_heroId].push(_itemId); // add the item id in items of hero mapping.\r\n        equippedItems[_itemId] = true;\r\n    }\r\n\r\n    function getEquippedItems(uint256 _id)\r\n    public\r\n    view\r\n    existingHero(_id)\r\n    returns(uint256[] memory){\r\n        return(heroToItems[_id]);\r\n    }\r\n}",
  "sourcePath": "D:/Blockchain/chainlink Hackethone/dota-nft/contracts/Dota.sol",
  "compiler": {
    "name": "solc",
    "version": "0.6.6+commit.6c089d02.Emscripten.clang"
  },
  "schemaVersion": "3.3.4",
  "updatedAt": "2021-04-06T18:30:09.372Z",
  "networkType": "ethereum",
  "devdoc": {
    "methods": {
      "approve(address,uint256)": {
        "details": "See {IERC721-approve}."
      },
      "balanceOf(address)": {
        "details": "See {IERC721-balanceOf}."
      },
      "baseURI()": {
        "details": "Returns the base URI set via {_setBaseURI}. This will be automatically added as a prefix in {tokenURI} to each token's URI, or to the token ID if no specific URI is set for that token ID."
      },
      "getApproved(uint256)": {
        "details": "See {IERC721-getApproved}."
      },
      "isApprovedForAll(address,address)": {
        "details": "See {IERC721-isApprovedForAll}."
      },
      "name()": {
        "details": "See {IERC721Metadata-name}."
      },
      "ownerOf(uint256)": {
        "details": "See {IERC721-ownerOf}."
      },
      "safeTransferFrom(address,address,uint256)": {
        "details": "See {IERC721-safeTransferFrom}."
      },
      "safeTransferFrom(address,address,uint256,bytes)": {
        "details": "See {IERC721-safeTransferFrom}."
      },
      "setApprovalForAll(address,bool)": {
        "details": "See {IERC721-setApprovalForAll}."
      },
      "supportsInterface(bytes4)": {
        "details": "See {IERC165-supportsInterface}.     * Time complexity O(1), guaranteed to always use less than 30 000 gas."
      },
      "symbol()": {
        "details": "See {IERC721Metadata-symbol}."
      },
      "tokenByIndex(uint256)": {
        "details": "See {IERC721Enumerable-tokenByIndex}."
      },
      "tokenOfOwnerByIndex(address,uint256)": {
        "details": "See {IERC721Enumerable-tokenOfOwnerByIndex}."
      },
      "tokenURI(uint256)": {
        "details": "See {IERC721Metadata-tokenURI}."
      },
      "totalSupply()": {
        "details": "See {IERC721Enumerable-totalSupply}."
      },
      "transferFrom(address,address,uint256)": {
        "details": "See {IERC721-transferFrom}."
      }
    }
  },
  "userdoc": {
    "methods": {}
  }
}